:020000040800F2
:10000000585D00209D0100080F240008F31F000820
:100010000D240008D1070008513F0008000000002F
:10002000000000000000000000000000F9260008A9
:1000300049080008000000008B250008052700087B
:10004000B7010008B7010008B7010008B7010008B0
:10005000B7010008B70100084B080008B701000805
:10006000B7010008B7010008B7010008B701000890
:10007000B7010008B7010008B7010008B701000880
:10008000B7010008B7010008B7010008B701000870
:10009000B7010008B7010008B7010008B701000860
:1000A000B7010008B7010008B7010008B701000850
:1000B000B7010008B7010008B7010008B701000840
:1000C000B7010008B7010008B7010008B701000830
:1000D000B7010008B7010008B7010008B701000820
:1000E000B7010008B7010008B7010008B701000810
:1000F000B7010008B7010008B7010008B701000800
:10010000B7010008B7010008B7010008B7010008EF
:10011000B7010008B7010008B7010008B7010008DF
:10012000B7010008B7010008B7010008B7010008CF
:10013000B7010008B7010008B7010008B7010008BF
:10014000B7010008B7010008B70100081124000832
:10015000B7010008B7010008B7010008B70100089F
:10016000B7010008B7010008B7010008B70100088F
:10017000B7010008B7010008B7010008000000003F
:10018000B7010008B7010008DFF80CD000F074FADE
:100190000048004779480008585D0020064880471D
:1001A00006480047FEE7FEE7FEE7FEE7FEE7FEE75C
:1001B000FEE7FEE7FEE7FEE7992700088901000851
:1001C0002DE9F05F0546002092469B46884606468C
:1001D000814640241BE0284641464746224600F01F
:1001E00083F853465A46C01A914110D31146184617
:1001F000224600F06AF82D1A67EB01084F462246A6
:100200000120002100F061F817EB00094E41201E8B
:10021000A4F10104DFDC484631462A464346BDE8E6
:10022000F09F40EA01039B0703D009E008C9121FB1
:1002300008C0042AFAD203E011F8013B00F8013BA0
:10024000521EF9D27047D2B201E000F8012B491ECC
:10025000FBD270470022F6E710B513460A46044663
:100260001946FFF7F0FF204610BD421C10F8011B95
:100270000029FBD1801A704700F0004230F00040A6
:100280000AD0C10D01F56071C0F3160042EA0151B8
:10029000C20840071143704700200146704730B53F
:1002A0000B46014600202022012409E021FA02F534
:1002B0009D4205D303FA02F5491B04FA02F52844CE
:1002C000151EA2F10102F1DC30BD202A04DB203A28
:1002D00000FA02F1002070479140C2F1200320FA99
:1002E00003F3194390407047202A04DB203A21FA97
:1002F00002F00021704721FA02F3D040C2F120023F
:1003000091400843194670472DE9FE4F804681EA27
:100310000300C00F0C46009021F0004123F000457F
:10032000B8EB0200A94105D24046214690461C4642
:100330000B46024623F00040104347D0270DC7F379
:100340000A00C3F30A510290401A019040286BDA68
:10035000C3F3130040F4801B0098924620B10023A1
:10036000D2EB030A63EB0B0B01985946C0F1400234
:100370005046FFF7AAFF06460D4650465946019AD9
:1003800000F08CF910EB08006141002487EA11525B
:1003900084EAE7731A4340D0009A62B3019A012AB3
:1003A0004FEA075215DC001B61EB02014FF00042DF
:1003B00002EA0752CDE90042001C41F580113246A5
:1003C0002B4600F08CF903B0BDE8F08F4046214683
:1003D000F9E7001B61EB0201001C41F580130018D6
:1003E0005B412018A2F5001747EB030140EAD570E6
:1003F000B6196D4111E06D084FEA360645EAC07541
:100400004FEA0752001B61EB0201001C41F580110D
:1004100049084FEA30000019514132462B4603B0DB
:10042000BDE8F04F00F04CB90098012240000023D5
:10043000D0EB020263EBE073009821464FEAE074D0
:10044000B8EB000061EB0401E9E783F000435BE7F0
:1004500081F0004158E72DE9FE4F81EA030404F0E2
:10046000004421F0004100944FF0000B23F00043C2
:1004700050EA01045ED052EA03045BD0C3F30A548D
:10048000C1F30A552C44A4F2F3340194A0FB0254A6
:10049000C1F3130141F48011C3F3130343F4801338
:1004A00001FB024400FB034E840A970A44EA81548C
:1004B00047EA8357A4FB076802958D0A05FB078569
:1004C0004FEA932C04FB0C542705029D4FEA065873
:1004D00047EA1637B5EB08056EEB070C870E920E50
:1004E00047EA811742EA8312A7FB0201B6EB0B0130
:1004F00064EB00042B0D43EA0C335E1844EB1C50F4
:10050000DA465146E7FB0201C5F313044FEA0B3309
:1005100043EA14534FEA0432019C43EA0603A4F170
:100520000C040294009CCDE900B400F0D8F803B0AC
:10053000BDE8F08F00200146F9E72DE9F04D81EA92
:10054000030404F0004B21F0004514464FF0000A6C
:1005500023F0004150EA050220D054EA01021DD0E8
:10056000C5F30A570246C5F31303C1F31300C1F3E1
:100570000A5640F4801543F48013A7EB0608101BBD
:10058000D64608F2FD3873EB050002D308F10108E6
:1005900001E092185B41B8F1000F03DA0020014638
:1005A000BDE8F08D00204FF48011064684460EE031
:1005B000171B73EB050705D3121B63EB05030643FB
:1005C0004CEA010C49084FEA300092185B4150EAAE
:1005D0000107EDD152EA030012D082EA040083EA57
:1005E0000501084305D0101BAB4106D201220023B0
:1005F00006E000224FF0004302E06FF001025310CA
:100600001AEB06004CEB085110EB0A0041EB0B0112
:10061000BDE8F04D00F054B8C1F30A52C1F3130124
:1006200040F2FF3341F480119A4202DA0020014681
:10063000704740F233439A42A2F2334202DC524204
:10064000FFF752BEFFF741BE30B5041E71F1000442
:1006500004DB4FF00044404264EB0101141E73F1CF
:10066000000405DB1C464FF00043524263EB0403D9
:10067000994208BF904230BD064C074D06E0E06845
:1006800040F0010394E8070098471034AC42F6D3D9
:10069000FFF77EFD94490008B4490008202A06DBD4
:1006A000CB17203A41FA02F043EAE07306E041FA40
:1006B00002F3D040C2F1200291400843194670472E
:1006C00010B5141E73F1000408DA401C41F100015A
:1006D00092185B411A4301D120F0010010BD2DE9B1
:1006E000F04D92469B4611B1B1FA81F202E0B0FAA8
:1006F00080F220329046FFF7E8FD04460F4640EABC
:100700000A0041EA0B0153465A46084313D01146EA
:1007100053EA010019D0C8F140025046FFF7E4FD4A
:1007200005460E46504659464246FFF7CEFD084361
:1007300005D0012004E020463946BDE8F08D0020B8
:10074000054346EAE0762C4337430A986305E40AFA
:10075000A0EB08000022FD0A44EA47540A3002D503
:1007600000200146E9E7010510196941DDE9084566
:1007700000196941BDE8F04DA2E770B58C1810F87A
:10078000015B15F0070301D110F8013B2A1106D1D6
:1007900010F8012B03E010F8016B01F8016B5B1EF0
:1007A000F9D12B0705D40023521E0DD401F8013BCB
:1007B000FAE710F8013BCB1A921C03E013F8015B37
:1007C00001F8015B521EF9D5A142D8D3002070BDBB
:1007D000FEE70020704700207047000010B500229F
:1007E0000449054802F0EFF80449034802F0E2F832
:1007F000002010BD300F00206002002030070020D4
:1008000010B50146034802F0D5F8024802F0B7F8E7
:10081000002010BD6002002000207047094A10B57A
:10082000D2F8BC22D2F814220AB1012010BD0A4627
:100830000146044802F0C7F8BDE81040014802F044
:100840002CB90000600200207047012000F016B8AB
:1008500072B6FEE770B5044600F018F90546601C54
:1008600002D004480078044400F010F9401BA04274
:10087000FAD370BD8000002070470000044910B515
:100880000A68024202D00860FFF7F6FF10BD0000C0
:10089000143C01402DE9F84FDFF8B8A100220125F2
:1008A0000AF1040B03264FF00F090BF1040E00BFF1
:1008B0000B6805FA02F42340A3426FD10F7907F0C9
:1008C0000307012F01D0022F16D187684FEA420893
:1008D00006FA08FC27EA0C07D1F80CC00CFA08FC51
:1008E0004CEA070CC0F808C04768A7430C79C4F36A
:1008F000001494403C4344600C79E443A4070AD0BC
:10090000C4684FEA420C06FA0CF7BC438F6807FA3A
:100910000CF72743C7600C7904F00304022C12D1B2
:10092000D40800EB840CDCF820405707FF0E09FACE
:1009300007F824EA0804D1F8108008FA07F848EA12
:100940000408CCF8208004684FEA420C06FA0CF741
:10095000BC430F7907F0030707FA0CF7274307603A
:100960004C68E40070D53C4C276847F4804727600A
:10097000246822F0030704F480440094374C07EB0A
:10098000040CDCF8084897074FEA177809FA08F7CB
:10099000BC43334FB84202D1002724E054E0314F2A
:1009A000B84201D101271EE02F4FB84201D10227E2
:1009B00019E02E4FB84201D1032714E02C4FB84262
:1009C00001D104270FE02B4FB84201D105270AE0DF
:1009D000294FB84201D1062705E0284FB84201D17E
:1009E000072700E0082707FA08F72743CCF808781C
:1009F000DAF800405746D1F804C09C435FEACC3C8B
:100A000000D51C433C60DBF800405F46D1F804C0D1
:100A10009C435FEA8C3C00D51C433C60DEF8004000
:100A20007746D1F804C09C435FEACC2C00D51C4328
:100A30003C60084F0C373C68D1F804C09C435FEA27
:100A40008C2C00D51C433C60521C102AFFF430AFA4
:100A5000BDE8F88F003C01404438024000300140BE
:100A6000000002400004024000080240000C024066
:100A7000001002400014024000180240001C024016
:100A80000AB1816170470904FBE7000001488068F2
:100A900070470000800000200248816802781144FD
:100AA00081607047800000200B4810B5016841F458
:100AB00000710160016841F480610160016841F4E6
:100AC00080710160032000F06FF8002000F006F84C
:100AD00000F024F8002010BD003C024070B50D4D20
:100AE00004464FF47A712878B1FBF0F00A4909689E
:100AF000B1FBF0F001F069FA48B9102C07D20022DE
:100B00002146501E00F030F800206C6070BD0120BE
:100B100070BD0000800000208C0000200A4808B54D
:100B2000016841F480410160006800F48040009059
:100B30000548001F016841F080510160006800F025
:100B40008050009008BD000044380240002809DBB6
:100B500000F01F02012191404009800000F1E020D7
:100B6000C0F8001170470000F0B40E4B1B680C4633
:100B7000C3F30223C3F10705042D00D90425191D71
:100B8000072901D2002300E0DB1E012606FA05F149
:100B9000491E214099409E40761E16403143F0BCCC
:100BA00003F0ECB90CED00E0064900F0070208681C
:100BB0004FF6FF03184040EA0220034A1043086042
:100BC000704700000CED00E00000FA057047006877
:100BD000416200207047F0B50368586A39B19C6AD9
:100BE0004FF4827600EB144400204D1E0AE040EAE8
:100BF000024098620FE006EB8007DF59401C04EBCF
:100C00001744C0B2A842F6D344EA02404FF48072BF
:100C100002EB810158500020F0BDD0F8040402F02E
:100C200073B9C1EBC10200EB8202D0F80404926CEC
:100C300002F0E0B8C1EBC10200EB8202D0F804047C
:100C4000D2F8082202F02AB9D0F8040402F05EB902
:100C500070B504460B0601F00F00C0EBC00104EBB9
:100C600081014FF001024FF0000503D581F83D20CE
:100C70003C3103E081F8FD5101F5FE71087094F8F4
:100C8000BC03012808D084F8BC23206802F0F8FCDB
:100C900084F8BC53002070BD022070BD70B50446BE
:100CA00001F00F006268904201D9012070BD0B066F
:100CB00001F00F01C1EBC10104EB81014FF0010212
:100CC0004FF0000503D581F83D203C3103E081F869
:100CD000FD5101F5FE718D70087094F8BC03012878
:100CE00008D084F8BC23206802F0C4FE84F8BC530A
:100CF000002070BD022070BD01F00F01C1EBC101E9
:100D000000EB8100D0F8140270472DE9F041044651
:100D10000F0601F00F00C0EBC00104EB81014FF0A2
:100D200001064FF0000503D581F83D603C3103E03A
:100D300081F8FD5101F5FE7108708A60CB704A7828
:100D400002B1C880022B00D10D7194F8BC030128B8
:100D500009D084F8BC63206802F0EEFB284684F8D2
:100D6000BC53BDE8F0810220FBE770B50C4601F0F2
:100D70000F05C5EBC50100EB8101C1F81032C1F8C8
:100D800008220023C1F8143281F8FD3181F8FC51AA
:100D9000036901F5FE71012B00D10A612207027C73
:100DA000006803D002F0BEFE002070BD02F0AAFD74
:100DB000FAE770B504460D4601F00F0061688842FD
:100DC00001D9012070BD29064FF000064FF0010245
:100DD00007D5C0EBC00104EB810181F83D203C3117
:100DE00007E0C5EBC50104EB810181F8FD6101F568
:100DF000FE718A70087094F8BC03012807D084F84B
:100E0000BC23206802F062FE280702D007E002201F
:100E100070BD217C04F57172206802F0FFFD84F83A
:100E2000BC63002070BD70B50C4601F00F05C5EB2A
:100E3000C50100EB81010B658A6400234B6501232A
:100E400081F83D3001F83C5F0369012B00D10A6154
:100E50002207027C006803D002F064FE002070BD0F
:100E600002F050FDFAE700002DE9FC5F056804463A
:100E7000284602F080FF00287ED1206802F0A7FFFC
:100E8000002879D0206802F0A2FF800704D52168ED
:100E9000486900F002004861206802F098FFC1062E
:100EA00004F57170009034D52068816921F010013B
:100EB00081612F6A07F00F00C0EBC00004EB8006D1
:100EC000C7F3434006F5FE76022802D0062811D06B
:100ED0001AE047F6F070074216D0C7F30A12174619
:100EE0002846F16802F077FFF0683844F060B06996
:100EF000384408E008222846009902F06CFFB069E7
:100F0000C7F30A110844B0612068816941F01001FB
:100F10008161206802F05BFF00034FF0010A4FF08F
:100F2000080B5BD50026206802F030FF0746DFF88B
:100F3000689351E0F8074DD0F1B2206802F03FFF0E
:100F40008046C00707D005EB4611C1F808AB314613
:100F5000204601F063FA5FEA087022D505EB4611DE
:100F6000C1F808BB2068016C00EB46100191D0F875
:100F7000082B494507D900E08BE1110403D54FF454
:100F80000041C0F8081B204600F076FA0198484559
:100F900007D92069012804D120680121009A02F0B4
:100FA0003DFD5FEAC86004D505EB46111020C1F88D
:100FB000080B5FEA886004D505EB46112020C1F8D4
:100FC000080B5FEA884005D505EB46104FF4005149
:100FD000C0F8081B7F08761C002FABD1206802F0F8
:100FE000F6FE40034FF000095CD5206802F0C7FE12
:100FF0000746002654E0F80750D0F1B2206802F00E
:10100000CCFE8046C00723D006F00F020AFA02F099
:10101000D5F834288243C5F8342805EB4610C0F8CB
:1010200008A9206901280FD1C6EBC60004EB800097
:10103000D0E911211144816436B9206D20B92068AE
:101040000121009A02F0EAFCF1B22046FFF7E9FD27
:101050005FEA087003D505EB4611C1F808B95FEAED
:10106000C86004D505EB46111020C1F808095FEAF5
:10107000486004D505EB46114020C1F808095FEA35
:10108000887004D505EB46110220C1F808095FEA13
:10109000086003D53146204601F026FA7F08761C09
:1010A000002FA8D1206802F092FE002811DAD5F8AE
:1010B000040820F00100C5F8040894F8F40301289E
:1010C00029D0204600F0BCF92068416901F00041B8
:1010D0004161206802F07BFE00050BD5D5F80808B9
:1010E000C00702D0204600F0EFF92068416901F402
:1010F00000614161206802F06AFEC00468D5D5F83D
:10110000040820F00100C5F804081021206802F04E
:1011100013FE002127E084F8F49300212046FFF716
:1011200055FDD1E705EB41104FF67F32C0F8082995
:10113000D0F8003923F40013C0F80039D0F8003992
:1011400043F00063C0F80039C0F8082BD0F8002B3A
:1011500022F40012C0F8002BD0F8002B42F00062FD
:10116000C0F8002B491C60688842DBD8D5F81C0801
:1011700040F00110C5F81C08206B60B1D5F8840858
:1011800040F00B00C5F88408D5F8440840F00B0087
:10119000C5F844080CE0D5F8141842F22B000143BE
:1011A000C5F81418D5F8100840F00B00C5F8100861
:1011B000D5F8000820F4FE60C5F80008217C2068FE
:1011C000009A02F02BFC2068416901F480514161D2
:1011D000206802F0FCFD800415D5206802F0ECF9CF
:1011E000206802F0BBFDE06000F020FA0146227B9F
:1011F000206802F027FE204600F00CF920684169C3
:1012000001F400514161206802F0E1FD000707D5BB
:10121000204600F019F92068416901F00801416198
:10122000206802F0D4FDC00208D50021204600F05D
:1012300035F82068416901F480114161206802F0AD
:10124000C6FD800208D50021204600F02BF820685A
:10125000416901F400114161206802F0B8FD4000CD
:1012600007D52046FFF7D9FC2068416901F080418D
:101270004161206802F0ABFD40070AD5206845684F
:10128000680702D52046FFF7DFFC20684168294344
:101290004160BDE8FC9F00000A30544FD0F80404C0
:1012A00001F084BED0F8040401F090BE2DE9F041B5
:1012B0008AB0040005D094F8BD032668002520B14B
:1012C00008E001200AB0BDE8F08184F8BC53204654
:1012D00000F05EF8032084F8BD03F06BC00500D475
:1012E0002561206802F008FB04F1100128228846DD
:1012F0006846FEF796FF94E80F0002F06BF90226AD
:10130000C8BB0021206802F074FD002001270EE018
:10131000C0EBC00104EB810181F83D7001F83C0F86
:10132000C880CD708D60CD60401CC0B24D616168D9
:101330008142EDD8002011E0C0EBC00104EB810137
:1013400081F8FD5181F8FC0181F8FF51C1F8045288
:10135000C1F80852401CC0B2C1F810526168814205
:10136000EAD8282241466846FEF75BFF94E80F0062
:1013700002F008FA10B184F8BD63A2E784F838508F
:1013800084F8BD73206802F0EFF900209AE70000AE
:1013900010B586B0044614216846FEF75BFF20684E
:1013A000B0F1A04F2FD119480021026842F001028C
:1013B0000260006800F0010005904FF4C0500090FA
:1013C0000220CDE90101032003900A200490694620
:1013D0000F48FFF75FFA0D48001D016841F08001DA
:1013E00001600A481430016841F4804101600068DE
:1013F000002200F48040059011464320FFF7B4FB23
:101400004320FFF7A3FB06B010BD000030380240B8
:101410000000024070B50446C068012570B1022882
:1014200001D0FFF715FA2946D4F8040401F03AFE7A
:10143000D4F80404BDE8704001F0EDBD0025F2E7EA
:10144000D0F8040401F014BED0F8040401F01ABE70
:1014500010B5044690F8BC0301280BD0012084F895
:10146000BC0384F83810206802F0DAFC002084F80D
:10147000BC0310BD022010BDD0F8042400F571712A
:10148000104601F01BBE10B50446006894F8BC136A
:10149000012906D0012184F8BC13A16A012902D0D8
:1014A00008E0022010BDA169012903D0816B41F43D
:1014B00080318163206802F029FC206802F046F93F
:1014C000002084F8BC0310BD10B50446D0F8040415
:1014D00001F036FE2068D0F8001E41F00101C0F88E
:1014E000001E206A002804D00248016841F006016D
:1014F000016010BD10ED00E02DE9F0470E4605003B
:1015000065D0DFF81481D8F80000F7B200F00700CA
:10151000B04207D288F80070D8F8000000F0070049
:10152000B04254D128683D4C810712D5400703D5FD
:10153000206840F4E05020602878000703D5206838
:1015400040F4604020602068A96820F0F000084363
:1015500020602878C0072DD03049686808390128F4
:1015600012D0022813D0032811D009688907002956
:101570002DDA216821F0030101432160FFF786FA8B
:10158000814641F2883A0EE009688903EFE709686D
:101590008901ECE7FFF77AFAA0EB0901514502D97E
:1015A0000320BDE8F0872068696800F00C00B0EB0C
:1015B000810FEFD1D8F80010404601F00701B14289
:1015C00007D90770006800F00700B04201D0012081
:1015D000E7E72878400705D52068E96820F4E0505F
:1015E000084320602878000706D52068296920F480
:1015F000604040EAC100206000F01EF82168084AFF
:10160000C1F30311515CC8400649086006480068F0
:10161000FFF764FA0020C4E7003C024008380240AB
:10162000844900088C0000208400002001480068E4
:10163000704700008C000020154810B5006810F0BD
:101640000C02144813D04110042A0FD0082A0ED1DE
:101650000F4C241F2268236802F03F025B0207D56B
:101660002068C0F38810A0FB010106E0084610BD09
:101670002168C1F38811A1FB00010023FEF7A0FD42
:101680002168C1F30141491C4900B0FBF1F010BDD4
:10169000083802400024F4002DE9F84F04006ED011
:1016A0002078DFF84C93C007A9F104054AD009F16E
:1016B00004000168C1F38101012908D00068C0F36A
:1016C000810002280AD1D9F80000400206D5286816
:1016D000800337D560680028E1D033E06068B0F55A
:1016E000803F10D0B0F5A02F286810D020F48030B3
:1016F0002860286820F4802028606068A8B1FFF77F
:10170000C5F906460DE0286840F48030F4E740F45F
:1017100080202860F7E700BFFFF7B8F9801B642836
:1017200073D828688003F7D50CE0FFF7AFF90646B9
:1017300005E000BFFFF7AAF9801B6428F0D82868ED
:101740008003F7D42078DFF8AC8280074FF0000ADE
:101750003ED5A748001D016811F00C0F08D00068A5
:10176000C0F3810002280BD1D9F80000400207D451
:101770002868800716D5E068012800D112E033E11F
:10178000E068B8B10120C8F80000FFF77FF906460D
:1017900005E000BFFFF77AF9801B0228C0D828684F
:1017A0008007F7D52868216920F0F80040EAC100D9
:1017B00028600DE0C8F800A0FFF768F9064604E0CD
:1017C000FFF764F9801B02281FD828688007F7D428
:1017D0002078000722D5864F87486169703771B13C
:1017E00001210160FFF752F9064604E0FFF74EF9C8
:1017F000801B022809D838688007F7D50EE0C0F8AA
:1018000000A0FFF743F9064605E082E0FFF73EF946
:10181000801B02287DD838688007F7D420784007DD
:1018200068D5DFF8CCB100270BF13C0BDBF80000EA
:10183000C0000BD4DBF8001041F08051CBF8001051
:10184000DBF80000012700F0805000906B4E3068FC
:10185000C00510D4306840F480703060FFF716F98E
:10186000009005E0FFF712F90099401A022850D8BD
:101870003068C005F6D55E4EA0686C3601280FD0E2
:101880000528306810D020F001003060306820F06A
:1018900004003060A068B8B1FFF7F8F800900FE0DE
:1018A000306840F00100F4E740F004003060F7E7F2
:1018B000FFF7ECF80099411A41F28830814266D86E
:1018C00030688007F4D50EE0FFF7E0F8009007E0FD
:1018D000FFF7DCF80099411A41F28830814256D86E
:1018E00030688007F4D42FB1DBF8001021F080516C
:1018F000CBF80010A069C8B33D49091D0968C1F3C0
:10190000810102294AD00228504607D0C8F8600059
:1019100000E03CE0FFF7BAF804463BE04746C8F871
:101920006000FFF7B3F8064605E000BFFFF7AEF82A
:10193000801B02282BD828688001F7D4D4E907013E
:101940000843A16A2E4A490802EB0141626A41EA52
:101950008211084394F82C1040EA0161C9F8001084
:1019600001203866FFF792F8044606E03EE000BF2B
:10197000FFF78CF8001B022809D828688001F7D5EA
:1019800034E000BFFFF782F8001B022802D90320D1
:10199000BDE8F88F28688001F4D427E00128F7D04B
:1019A000D9F80000E26900F4800191421CD1226A5A
:1019B00000F03F01914217D147F6C071626A0140C1
:1019C000B1EB821F10D1A26A4FF0FF3300F4403117
:1019D00003EB5202B1EB024F06D194F82C1000F049
:1019E0007060B0EB016F01D00120D1E70020CFE79C
:1019F0000438024000004742800E47420070004019
:101A00000000FFFF70B5040009D0606A002540B1F6
:101A100025616561A56294F8510040B10CE0012098
:101A200070BD6068B0F5827FF4D0E561F2E784F8BC
:101A30005050204600F044F8022084F851002068FD
:101A4000016821F040010160A088218900F48270C2
:101A500001F404410843A18901F400610843217C99
:101A600001F002010843217D01F001010843218BAF
:101A700001F400710843217F01F03801084394F814
:101A8000201001F080010843218D01F4005108432A
:101A900021680860A069042101EA104094F824102C
:101AA00001F010010843216848602068C16921F4F1
:101AB0000061C1616565012084F85100002070BD9E
:101AC00010B586B0044614216846FEF7C3FB1349DF
:101AD0002068884220D112480021026842F48052D6
:101AE0000260006800F4805005900D4814380268C8
:101AF00042F001020260006800F001000590E02061
:101B000000900220CDE901010320039005200490FC
:101B100069460448FEF7BEFE06B010BD0030014025
:101B200044380240000002402DE9F84F0446406866
:101B30000025984616460F464FF0040BB0F5827FFD
:101B400001D1A06888B194F85000012818D0012074
:101B500084F85000FEF79AFF814694F851004FF048
:101B6000000A01280ED0022582E084F851B0134605
:101B70000A462046CDF8008000F036F9BDE8F88F1F
:101B80000220FBE7002F72D0002E70D084F851B0F5
:101B9000C4F854A0A763A687E687C4F830A0A4F8C9
:101BA00034A0A4F836A0C4F840A0C4F844A0A068AB
:101BB000B0F5004F09D12068016821F040010160B3
:101BC0002068016821F480410160206801684906AD
:101BD00003D4016841F040010160E068D8B139E008
:101BE00020688168C90709D0007BA16B0870A06BD1
:101BF000401CA063E08F401EE0870CE0FEF746FF2C
:101C0000A0EB0901414503D3B8F1FF3F03D036E013
:101C1000B8F1000F33D0E08F0028E1D11DE020683B
:101C20008168C90709D0C068A16B0880A06B801CBF
:101C3000A063E08F401EE0870CE0FEF727FFA0EBDB
:101C40000901414503D3B8F1FF3F03D017E0B8F1D4
:101C5000000F14D0E08F0028E1D14A4641462046CB
:101C600000F094FC08B120206065606D00B1012592
:101C7000012084F8510084F850A028467EE703250F
:101C8000F6E72DE9F84F044690F8500000271D466E
:101C90001646894601280DD04FF0010B84F850B04C
:101CA000FEF7F4FE804694F85100BA46012804D0AD
:101CB000022793E00220BDE8F88FB9F1000F73D03E
:101CC000002E71D0032084F85100C4F854A0C4F849
:101CD0003090A686E686C4F838A0A4F83CA0A4F804
:101CE0003EA0C4F844A0C4F840A0A068B0F5004FDE
:101CF00009D12068016821F0400101602068016875
:101D000041F48041016020680168490603D40168FC
:101D100041F040010160E068B0F5006F606803D0F9
:101D200030B3012E24D041E008B1012E1CD1206B2C
:101D300021680088C86006E020688168890709D5A5
:101D4000216B0988C160206B801C2063E08E401EDF
:101D5000E08609E0FEF79AFEA0EB0800A84202D355
:101D6000681C01D031E07DB3E08E0028E4D120E092
:101D7000206B21680078087306E020688168890775
:101D800009D5216B09780173206B401C2063E08E1C
:101D9000401EE0860AE0FEF779FEA0EB0800A842AC
:101DA00003D3681C02D010E017E06DB1E08E00286C
:101DB000E3D142462946204600F016FC08B1202017
:101DC0006065A06818B106E0FFE7032706E0206819
:101DD000C16880680090606D00B1012784F851B03F
:101DE00084F850A0384666E72DE9F84F044690F88D
:101DF000500000270A9E1D4692468B464FF001096F
:101E000001280ED0012084F85000FEF73FFE8046E6
:101E100094F85100616801280CD0B1F5827F07D198
:101E200002E00220BDE8F88FA16809B9042801D0BA
:101E30000227C2E0BBF1000F27D0BAF1000F24D077
:101E40001DB394F85100042802D0052084F85100F5
:101E500000206065C4F838A0E587A587C4F830B0D5
:101E6000E586A5862064606420680168490603D47D
:101E7000016841F040010160E068B0F5006F606802
:101E800005D0E8B3012D46D07FE0012795E008B1E9
:101E9000012D39D1206B21680088C860206B801C1F
:101EA0002063E08E401EE0862EE02068816889076E
:101EB0000FD5E18E69B1B9F1010F0AD1216B098803
:101EC000C160206B801C2063E08E401EE0864FF0D6
:101ED000000920688168C9070CD0E18F51B1C06842
:101EE000A16B0880A06B801CA063E08F401EE08780
:101EF0004FF00109FEF7CAFDA0EB0800B04200E078
:101F000009E001D3701C50D1E08E0028CDD1E08FC4
:101F10000028CAD13FE0206B216800780873206B4D
:101F2000401C2063E08E401EE0862EE02068816821
:101F300089070FD5E18E69B1B9F1010F0AD1216B83
:101F400009780173206B401C2063E08E401EE08600
:101F50004FF0000920688168C9070CD0E18F51B1AA
:101F6000C068A16B0870A06B401CA063E08F401E8E
:101F7000E0874FF00109FEF789FDA0EB0800B042B1
:101F800002D3701C01D010E07EB1E08E0028CDD1CC
:101F9000E08F0028CAD142463146204600F024FB9B
:101FA00028B101272020606507E0032705E0A0682D
:101FB00018B92068C16880680090012084F8510039
:101FC000002084F8500038462CE710B5401EB0F1D0
:101FD000807F01D3012010BD4FF0E02460610F210C
:101FE000601701F0CBFF0020A061072020610020D6
:101FF00010BDFEE7F0B500230A24302537261F4622
:1020000011E000BFB4EB107F02D905EB107C01E0BA
:1020100006EB107C01F813C001EB430C00015B1CC4
:102020008CF80170DBB29342ECD3F0BD3EB50446B0
:1020300002226946282000F0C3F89DF800009DF8B0
:102040000110022200EB0120ADF8040069462A20AD
:1020500000F0B6F89DF800009DF80110022200EB98
:102060000120ADF8060069462C2000F0A9F89DF883
:1020700000009DF8011000EB0120ADF80800019868
:102080002060BDF80800A0803EBD00001CB5684679
:10209000FFF7CCFFBDF90000BDF9021000EE100AF9
:1020A0001348B8EEC00A90ED001AD0ED041A90ED76
:1020B000052A60EE010A90ED010A10EEA10A00EE79
:1020C000901ABDF90410F8EEE00A60EE811AD0ED26
:1020D000020A51EE820A01EE901A90ED062AF8EEFD
:1020E000E11A61EE811A90ED031A11EE821A1CBDFD
:1020F0000000002038B50C4600218DF80010014684
:1021000058222748FEF78DF8E078012200F00700FA
:102110008DF80000217801F0F00101438DF80010E6
:102120006946202000F07AF8A078617800F0C000BD
:1021300001F0380101438DF8001001226946242086
:1021400000F06CF8207938B188208DF80000012269
:102150006946232000F062F861781248102916D0F1
:1021600003DC39B108290CD107E0182912D0202945
:1021700007D112E09FED0C0A01E09FED0C0A80ED03
:10218000000A012208210A48FEF77AFC38BD9FEDBB
:10219000090AF4E79FED080AF1E79FED080AEEE768
:1021A000A4010020000000208FC2753D8FC2F53DC4
:1021B00000100240EC51383E8FC2753E48E13A3F74
:1021C000F8B540F08000134E15460C468DF800001F
:1021D000002208213046FEF753FC0A2301226946FB
:1021E0000D48FFF74EFD0A232A4669460A48FFF7C5
:1021F0009BFC012208213046FEF742FC00206A4683
:1022000005F0030103E0135C2354401CC0B281427B
:10221000F9D8F8BD00100240A4010020F8B50E4E18
:1022200014460D468DF80000002208213046FEF7C6
:1022300027FC0A23012269460848FFF722FD0A23EA
:10224000224629460548FFF71CFD01220821304699
:10225000FEF716FCF8BD000000100240A4010020AB
:1022600030EE801AF6EE001A064830EEC00A21EE73
:10227000211ADFED050A80ED011A80EE801A80ED4B
:10228000041A7047000000200000FA4430EE801A63
:10229000F6EE001A064830EEC00A21EE211ADFEDF4
:1022A000050A80ED021A80EE801A80ED051A70474B
:1022B000000000200000FA4430EE801AF6EE001A0A
:1022C000064830EEC00A21EE211ADFED050A80ED46
:1022D000031A80EE801A80ED061A70470000002075
:1022E0000000FA4470B586B014216846FDF7B2FFCD
:1022F0001D480024016841F010010160016801F0EF
:1023000010010591016841F080010160016801F050
:1023100080010591016841F0010101600068134EE0
:1023200000F001000590002208213046FEF7A8FBCE
:10233000082000900125CDE90154694630460394F8
:10234000FEF7A8FA0A480095CDE90104694630462F
:10235000FEF7A0FA002211460620FEF705FC062033
:10236000FEF7F4FB06B070BD3038024000100240AA
:10237000000011100F4810B50D4901604FF4827133
:10238000416000218160C1604FF400720161C0E9C9
:102390000512C1610162416281620A21C162FFF7D7
:1023A00031FB002803D0BDE81040FEF751BA10BD44
:1023B000003001400802002010B500220F491048EB
:1023C00000F0F3FC08B1FEF743FA0E490C4800F0A8
:1023D000DFFE08B1FEF73CFA0B49094800F0E3FACA
:1023E00008B1FEF735FA064800F04CFF002803D08C
:1023F000BDE81040FEF72CBA10BD00001C00002004
:10240000600200206C0100206C000020FEE7FEE767
:102410000148FEF729BD0000501900202DE9F041C8
:1024200003680D4604461E6C03EB4511D1F8080BFA
:10243000D4F810E04FF400474FF0200C04F571720F
:10244000BEF1010F09D0DFF898E0764539D10204DA
:1024500032D500BFC1F8087B3FE0224B5FEA007E27
:1024600004D59E4239D90004F4D436E05FEA806E88
:1024700002D5C1F808CB30E010F0280F2DD19E42D4
:1024800001D90004E6D4C5EBC50004EB8000D1F807
:10249000101BD0F80432C1F31201591AC0F81412FB
:1024A000D0F808121944C0F8081295B9D4F81002EF
:1024B00078B9012120680AE080060AD5C1F808CB66
:1024C00007E035B9D4F8100218B90021184601F018
:1024D000A5FAE9B22046FEF7ADFB0020BDE8F08189
:1024E0000A31544F0A30544F2DE9F84F0E46C1EBD4
:1024F000C60100EB810481460568D4E914103C3420
:10250000884202D90120BDE8F88F081AA1688142EB
:1025100000D20846C01C870805EB46181BE000BF28
:10252000A0EB010AA068504500D282460AF10300E0
:10253000870899F8100000901FFA8AF3F2B2284633
:10254000E16801F0F3FCE16801EB0A00E060A169D9
:1025500001EB0A00A061D8F8180980B2B84205D38F
:10256000D4E90501814201D20028D9D1D4E905017D
:10257000884208D806F00F0101208840D5F83418A9
:102580008143C5F834180020BDE77047F8B504460C
:1025900040684FF48273984221D1A0684FF480655F
:1025A000B0F5004F01D0A8420AD12068066826F095
:1025B000400606606068984211D1A068A8420ED01B
:1025C00000920B4600228021204600F039F80028B6
:1025D00004D0606D40F0200060650320F8BD0092DB
:1025E0000B4600220121EFE738B504461248134B91
:1025F0000068B0FBF3F04FF47A73584300906068C2
:10260000B0F5827F0DD10B4600920022802120463A
:1026100000F016F870B1606D40F020006065032096
:1026200038BD009830B1401E009020688068C043DB
:102630000006F6D5002038BD8C00002000366E0163
:102640002DE9F8431E46914688460446089DFEF74C
:102650001DFA401B351AFEF719FA0746254800688F
:10266000C0F3CB30684338E0701C37D0FEF70EFA69
:10267000C01BA84203D215B1009860B32CE02068BB
:10268000416821F0E00141606068B0F5827F0BD1C4
:10269000A068B0F5004F02D0B0F5806F04D120687B
:1026A000016821F040010160A06AB0F5005F09D126
:1026B0002068016821F4005101602068016841F43C
:1026C00000510160012084F85100002084F850007E
:1026D0000320BDE8F8830025401E00902068816833
:1026E00038EA010004D000214945BDD10020F0E7BF
:1026F0000121F9E78C00002070470178407841EA19
:1027000000207047FEF7C8B930B593B03021684655
:10271000FDF7A0FD14210CA8FDF79CFD1C48002529
:10272000016841F080510160006800F08050119014
:102730001848016841F4804101600068022400F4F7
:102740008040119001200090000401908001CDE9AB
:10275000064004200890A820CDE9090407200B902A
:102760006846FEF799FF08B172B6FEE70F20CDE983
:102770000C0480200E904001CDE90F0502210CA829
:10278000FEF7BAFE002801D072B6FEE713B030BDE6
:1027900040380240007000400248016841F4700176
:1027A0000160704788ED00E02DE9F0410C46D0F85B
:1027B000C422D0F8BC12F9B104EB840300EB83050A
:1027C0000026AB694BB1C4EBC40702EB8702526C25
:1027D000B3FBF2F702FB173282B1C1F81462D0F8F2
:1027E000C00203692BB1D1F80802224601F5047139
:1027F00098470020BDE8F0810320FBE700231A463C
:102800002146AE6100F0A5FCF3E770B5D0F8BC42FC
:1028100005466CB100F086FBC4F80C02D5F8C01276
:10282000D4F80402CA6804F503719047002070BD13
:10283000032070BD70B50446812100F0D2FA002556
:1028400025870121204600F0CCFAA4F87851822196
:10285000204600F0C6FAA4F84C50A4F84E50D4F824
:10286000BC0248B1D4F8C00204F52F744068804718
:10287000206800F05CFE2560002070BD10B5D0F827
:10288000BC4284B1D0F8C01259B194F80002FF28BC
:1028900007D08B6894F8012221469847FF2084F8DE
:1028A0000002002010BD032010BD00000A2101809D
:1028B0000048704794000020432101800048704781
:1028C000E40000204321018000487047A000002060
:1028D0004321018000487047280100202DE9F0477E
:1028E00004464FF4077000F023FE05004FF0000788
:1028F00035D0C4F8BC52207C4FF010084FF400795A
:10290000012680B3402302228121204600F06EFB85
:102910002687402302220121204600F067FBA4F80D
:102920007861A4F84E80082303228221204600F01B
:102930005DFBA4F84C60D4F8C00200688047C5F87D
:102940001472C5F81872207CD5F80422A8B140236F
:102950000121204600F056FB0020BDE8F087022050
:10296000C4F8BC72F9E7FFE74B46022281212046FA
:1029700000F03CFB26874B46CCE74B46E8E710B51A
:10298000D0F8BC1251B1027C002AD1F8042207D041
:102990004023012100F036FB002010BD032010BDB4
:1029A0004FF40073F5E719B1C0F8C012002070476A
:1029B00003207047D0F8BC0218B1C0F80412002000
:1029C000704703207047D0F8BC0228B1C0F810222D
:1029D000C0F8081200207047032070472DE9FC4121
:1029E0000646D0F8BC7200200C468DF80000ADF809
:1029F0000400054637B1207810F0600128D0202966
:102A000044D102E00320BDE8FC81E288C2B10006A7
:102A100060780AD5D6F8C0128B6839469847E288A4
:102A2000072A00D90722394628E087F80002A07952
:102A300087F80102E2883946304600F06CF82AE057
:102A4000D6F8C012607800228B682146984722E0B1
:102A5000607830B101281ED00A2809D00B2815D182
:102A600010E096F89C02032810D1022201A905E08B
:102A700096F89C02032809D101226946304600F0ED
:102A800064F808E096F89C02032804D021463046FA
:102A900000F036F803252846B5E710B5D0F8BC128B
:102AA000012219B1D1F8143213B10FE0032010BD87
:102AB0000122C1F81422D1F81022C262D1F81032DA
:102AC000D1F80822812100F044FB0022104610BDFD
:102AD00010B5D0F8B8220AB152689047002010BD56
:102AE000134610B50A46002100F08CFA002010BDF4
:102AF000134610B50A46002100F02BFB002010BD44
:102B000010B50446802100F009FB2046BDE81040C6
:102B1000002100F003BB10B50323C0F89432C0F8C5
:102B200058211346C0F85C210A46002100F06AFAD9
:102B3000002010BD10B50521C0F8941200231A46DC
:102B4000194600F05FFA002010BD10B50223C0F84E
:102B5000943282611346C2610A46002100F0F9FAFC
:102B6000002010BD10B50421C0F8941200231A46AD
:102B7000194600F0EEFA002010BD000010B50A461C
:102B8000024903A000F0E1F8004810BD3005002024
:102B900043444320436F6E6669670000122008803B
:102BA000004870473C00002010B50A46024903A0C7
:102BB00000F0CBF8004810BD30050020434443200E
:102BC000496E7465726661636500000004200880C8
:102BD000004870473800002010B50A46024903A09B
:102BE00000F0B3F8004810BD3005002053544D6983
:102BF00063726F656C656374726F6E6963730000F6
:102C000010B50A46024903A000F09FF8004810BD25
:102C10003005002053544D3332205669727475616B
:102C20006C20436F6D506F727400000010B51A2055
:102C300008800A480168001D0468001D0068081823
:102C400009D008220649FFF7D5F9054904221031B9
:102C50002046FFF7CFF90248801E10BD107AFF1FF3
:102C600052000020F8B504460020ADF80000488866
:102C70000D46010A08295FD2DFE801F05E0409175A
:102C80005E5E3C45D4F8B412207C0A6819E0207CD2
:102C900002260028D4F8B80205D0C16A68468847E1
:102CA0000146467039E0816AF8E7C0B2062843D28F
:102CB000DFE800F0030A1014181CD4F8B4024268CC
:102CC00005E0694690471CE0D4F8B402826892B3EC
:102CD000207CF6E7D4F8B402C268F8E7D4F8B4026E
:102CE0000269F4E7D4F8B4024269F0E7D4F8B40218
:102CF0008269ECE7207CF0B9D4F8B802416B6846F1
:102D00008847014609E0207CA8B9D4F8B802016BD5
:102D100068468847014607204870EA888AB1BDF8AE
:102D2000000040B1824200D90246ADF800202046A2
:102D3000FFF70BFFF8BDFFE729462046FFF7E0FE4F
:102D4000F8E72046FFF70EFFF4E770B500230028F0
:102D50001ED00025044602E06D1CEDB2641C2678EE
:102D6000002EF9D1022404EB450414801278CA54D1
:102D70005B1C0322CA5400245B1C06E0CA545B1C83
:102D8000DAB28C54521CD3B2401C0278002AF5D11E
:102D900070BD01004FF0000004D0012901D00229CC
:102DA00001D0032070470120704778B10023C0F89C
:102DB000B832C0F8C032C0F8CC3209B1C0F8B41291
:102DC000012180F89C12027000F0B0B80320704717
:102DD00010B5D0F8C402FDF761FFBDE81040FFF761
:102DE000D8BF10B5D0F8C402FDF732FFBDE81040DF
:102DF000FFF7CFBF70B51646044621B194F89C0288
:102E0000032841D048E0D4F8941204F114000025BE
:102E1000022932D1D0E902318B4206D95A1A826096
:102E200031462046FFF764FE0FE0994214D1406816
:102E3000884211D3D4F8981288420DD2002211464C
:102E40002046FFF755FEC4F8985200231A4619464B
:102E5000204600F0D7F810E094F89C02032805D132
:102E6000D4F8B802C16809B12046884780212046BD
:102E700000F054F92046FFF75DFE94F8A002012807
:102E80000AD184F8A05207E0D4F8B80242691AB116
:102E900020469047002800D1002070BD10B5134691
:102EA000044621B194F89C02032823D02AE0D4F8E8
:102EB000941204F5AA70032924D1D0E90212914298
:102EC0000AD98A1A8260C068824200D30246194633
:102ED0002046FFF705FE15E094F89C02032805D173
:102EE000D4F8B802016909B1204688472046FFF7A7
:102EF00039FE07E0D4F8B80282691AB1204690473B
:102F0000002800D1002010BD0020704710B501211D
:102F100080F89C12D0F8B82212B15268017990471B
:102F2000002010BDD0F8C402FDF7E6BE10B5017850
:102F300039BB15490222C1F80404C0F8C4124FF08D
:102F4000A0400860042048600020C1E90320C1E9D6
:102F5000062008624862C86208630846FEF7A6F9C0
:102F600008B1FDF775FC80210748FDF730FE4022CF
:102F700000210548FDF72FFE802201210248FDF7C0
:102F80002AFE002010BD0000501900200A0601F0A2
:102F90007F01D0F8C402C1EBC10100EB810002D572
:102FA00090F83E00704790F8FE01704710B5D0F8D9
:102FB000B82222B190F89C32032B02D004E0032007
:102FC00010BD126A02B19047002010BD10B5D0F8B4
:102FD000B82222B190F89C32032B02D004E00320E7
:102FE00010BD526A02B19047002010BD10B51C46BA
:102FF0001346D0F8C4022246FDF787FEBDE8104014
:10300000FFF7C7BE10B5D0F8C402FDF7AEFEBDE8AD
:103010001040FFF7BEBE70B50125044680F89C52F3
:103020000020C4F894026060C4F8A402D4F8B80286
:10303000E0B1D4F8BC1221B1426812B1002120469F
:1030400090470022402311462046FFF7CFFF40263D
:10305000A4F864513346002280212046C4F8606100
:10306000FFF7C4FFA5840020266270BD032070BD59
:1030700090F89C12042903D190F89D1280F89C12BC
:103080000020704710B5D0F8B81221B190F89C22FA
:10309000032A02D004E0032010BDC96901B18847AA
:1030A000002010BD01740020704710B5D0F8C40294
:1030B000FEF7CEF9BDE81040FFF76BBE70B50446D1
:1030C00000F2AA20054600F04DF80120C4F8940251
:1030D000B4F8B002C4F8980294F8AA0210F01F01E4
:1030E0000AD001290ED0022912D000F0800120461A
:1030F000BDE8704000F012B829462046BDE8704097
:1031000000F0C2B829462046BDE8704000F0E6B99C
:1031100029462046BDE8704000F040B910B5D0F80F
:10312000C402FDF746FEBDE81040FFF732BE10B501
:10313000D0F8C402FEF7A7F9BDE81040FFF729BE9A
:1031400090F89C1280F89D12042180F89C120020B7
:10315000704710B5D0F8C402FDF765FEBDE8104019
:10316000FFF717BE70B5054611F8010B28700878F7
:1031700068704C1C2046FFF7C0FA6880A41C2046EB
:10318000FFF7BBFAA880A01CFFF7B7FAE88070BD74
:1031900038B504460020ADF8000049B1C4F8B812B3
:1031A000C96A19B168468847C4F8CC02002038BD06
:1031B000032038BD02460320D2F8B832002B02D0DB
:1031C0001B681046184770472DE9F0410F462C4EFA
:1031D0008978002504463170012906D939462046F0
:1031E000FFF78EFC0320BDE8F08194F89C020228D2
:1031F0000CD003281DD039462046FFF781FC3178DA
:103200002046FFF765FC03252846ECE799B32046E6
:103210006160FFF7CFFF050004D039462046FFF775
:103220006FFCF1E72046FFF79DFC032084F89C0229
:10323000EAE74FF00208C1B1606888421BD0C1B212
:103240002046FFF745FC317820466160FFF7B2FF6A
:10325000050010D039462046FFF752FC2179204660
:10326000FFF736FC84F89C82CEE784F89C822046E7
:103270006160FFF72DFC2046FFF774FCC4E70000F7
:1032800090000020FFF753BF2DE9F0410A78002598
:1032900012F0600208D0202A01D0402A71D1D0F863
:1032A000B8229268904731E04B78002201260A2B21
:1032B00067D2DFE803F0415E6658660805662D298F
:1032C000FFF7D0FC5FE004468888D8B9C888C8B941
:1032D0004888802816D200F07F0794F89C020328C3
:1032E00010D084F89E7239462046FFF7DEFE204655
:1032F000FFF738FC1FB1022084F89C0243E084F8F9
:103300009C6240E020463CE0FFF75EFF05463AE065
:10331000CB88012B35D190F89C32012B04D0022BA5
:1033200002D0032B2DD104E08260012200F10801BC
:1033300016E00122011D13E090F89C22012A03D01F
:10334000022A01D0032A1CD1CA88022A19D1C660D8
:10335000D0F8A41209B10321C160022200F10C01CE
:10336000FFF7F3FB0FE0498801290CD1C0F8A462F4
:1033700011E090F89C32012B08D0022B06D0032BD1
:1033800004D0FFF7BDFB2846BDE8F081498801293C
:10339000F9D1C0F8A422FFF7E5FBF4E72DE9F041ED
:1033A0000D46044628780026097910F060000BD0FD
:1033B000202801D040286DD1D4F8B802294682686F
:1033C00020469047064686E06878A8B3012822D0B8
:1033D00003287CD194F89C02022802D0032876D1DD
:1033E0000BE0002973D0802971D02046FFF796FEAC
:1033F00080212046FFF792FE6DE0688838B931B130
:10340000802904D0E88810B92046FFF787FE2046BF
:10341000FFF7A8FB5FE094F89C020228E1D00328A4
:1034200055D16888A8BB480602D02046FFF7D0FCDB
:103430002046FFF797FBBFE7FFE794F89C020027C1
:10344000022802D0032842D111E009B180293ED1DF
:10345000080601F07F0000EB800004EB800101D53D
:10346000143101E001F5AA7102220F602BE0080679
:1034700001F00F0000EB800004EB80000BD5808C86
:1034800040B101F07F0000EB800004EB80051435B3
:103490000CE020E01BE0B0F86401C0B101F07F0057
:1034A00000EB800004EB800505F5AA7541B1802989
:1034B00006D02046FFF76AFD10B10120286000E029
:1034C0002F60022229462046FFF73FFB03E02946F2
:1034D0002046FFF715FB3046BDE8F08170B5064683
:1034E000087800240D4610F0600003D0202801D099
:1034F000402817D196F89C02012803D0022801D059
:1035000003280FD1287901280CD8D6F8B802826890
:10351000304690470446E888204306D13046FFF7FE
:1035200021FB02E03046FFF7EBFA204670BD704702
:10353000004870473017002070B50A78012302F068
:103540000F054E78AB401B4CD0F81C58012E17D0FD
:1035500045EA0343C0F81C3800EB4210D0F8002BBA
:1035600012040BD4D0F8002B0B89C978C3F30A03DB
:103570001A4344EA81410A43C0F8002B002070BD81
:103580009BB21D43C0F81C5800EB4210D0F8003924
:103590001B04F3D4D0F800390D89C978C5F30A05A6
:1035A00089042B4341EA82510B432343C0F800397D
:1035B000E4E7000000800010D0F800196FF30A0162
:1035C000C0F80019D0F8041841F48071C0F804184C
:1035D0000020704770B5044606990A9E049D0D9818
:1035E000012916D0E06840F04000E060204600F07D
:1035F0002BF8A16B1EB321F48031A163012D07D1FB
:10360000A16841F00601A160A16841F02001A1601C
:1036100070BDA16B21F48031A163E168094A1140BA
:10362000E160E16821F44011E160012803D1E06824
:1036300040F48010E060204600F006F8DEE741F438
:103640008031DAE7BFFFBDFF01220C4902E0521CC6
:103650008A420BD80369002BF9DA026942F00102B1
:103660000261012204E0521C8A4201D90320704702
:103670000369DB07F7D1002070470000400D03000D
:1036800030B54C780A78012300EB4212012C2CD083
:10369000D2F8004B002C0BDAD2F8004B44F0006457
:1036A000C2F8004BD2F8004B44F08044C2F8004B03
:1036B000D0F83C580C7804F00F0403FA04F425EA1F
:1036C0000444C0F83C48D0F81C48097801F00F01C8
:1036D0008B4024EA0341C0F81C18D2F8000B1949AA
:1036E0000840C2F8000B002030BDD2F80049002C81
:1036F0000BDAD2F8004944F00064C2F80049D2F86D
:10370000004944F08044C2F80049D0F83C480D78A4
:1037100005F00F0503FA05F5ADB2AC43C0F83C481F
:10372000D0F81C48097801F00F018B4099B28C4306
:10373000C0F81C48D2F8000903490840C2F8000943
:10374000D1E700000078F3EF007833ECD0F8001EEA
:1037500021F00301C0F8001ED0F8041821F0020186
:10376000C0F8041800207047D0F8001E21F00301B3
:10377000C0F8001ED0F8041841F00201C0F8041887
:10378000002070472DE9F04F00250E460446DDF875
:103790002CC0DDF824B0109F2846294604EB800297
:1037A000C2F80411401C0F28F8D32046C7B1806B23
:1037B00020F40012A263A06B40F40022A26308462A
:1037C0008846C4F8000ED4F800182046C4F8001843
:1037D000BCF1010F16D0D0F8001841F0030116E03B
:1037E000D0F8040840F00202C4F80428A06B40F4AA
:1037F0000012A263A06B20F40022A263A06B20F44D
:103800008022DBE7D0F800180BB141F00101C0F8CD
:103810000018102100F090FA00B10125204600F0B8
:103820007BFA00B101254046C4F81088C4F814881A
:10383000C4F81C8800214FF000694FF0904A4FF601
:103840007F3314E004EB4112D2F800C9BCF1000F41
:1038500006DA11B1C2F800A904E0C4F8009901E049
:10386000C2F80009C2F81009C2F80839491C8E4292
:10387000E8D8002115E000BF04EB4112D2F800CBDC
:10388000BCF1000F06DA11B1C2F800AB04E0C4F8D5
:10389000009B01E0C2F8000BC2F8100BC2F8083B15
:1038A000491C8E42E8D8D4F8101821F48072C4F86C
:1038B0001028A0616FF080406061BBF1000F03D160
:1038C000A06940F01000A061A06909490843A06107
:1038D0000C9818B1A06940F00800A061012F03D135
:1038E000A06904490843A0612846BDE8F08F0000A4
:1038F00000383C8004000040816821F001018160B3
:103900000020704770B50D784E78434CEBB200EB59
:103910004313012E1FD0D3F8100B6FF31200C3F81E
:10392000100BD3F8100B2040C3F8100B486908B1F6
:1039300088684861D3F8100B40F40020C3F8100BDE
:10394000D3F8100B8C68C4F312042043C3F8100B97
:10395000012A55D058E04E69002ED3F8106932D0B4
:103960006FF31206C3F81069D3F810692640C3F844
:1039700010694E698C68A64200D94C61D3F8104991
:1039800044F40024C3F81049D3F810494E69C6F333
:1039900012063443C3F81049012A22D000EB451225
:1039A000D2F8003943F00443C2F800394A6932B30F
:1039B000D0F83428097801F00F03012199400A4317
:1039C000C0F8342826E02640C3F81069D3F810491F
:1039D00044F40024C3F81049D3F810496FF31204DB
:1039E000D8E7096919B100EB4512C2F8141900EBC8
:1039F0004510D0F8001941F00441C0F8001909E061
:103A0000C86808B1C3F8140BD3F8000B40F00440A9
:103A1000C3F8000B002070BDFFFF07E010B5036C7A
:103A2000134CA34203D9D0F8003B002B1EDB00232C
:103A3000C0F8103BD0F8103B43F40023C0F8103B13
:103A4000D0F8103B43F01803C0F8103BD0F8103BFF
:103A500043F0C043C0F8103B012907D1C0F8142B34
:103A6000D0F8001B41F08021C0F8001B002010BDE1
:103A70000A30544F4A780B78012A00EB43100BD0E0
:103A8000D0F8002B22F40012C0F8002BC9780329CB
:103A900014D0022912D017E0D0F8002922F4001225
:103AA000C0F80029C978032901D002290CD1D0F827
:103AB000001941F08051C0F8001905E0D0F8001B52
:103AC00041F08051C0F8001B002070470A784B7805
:103AD000D1B200EB4110012B12D0D0F8001B00290D
:103AE00006DB2AB1D0F8001B21F08041C0F8001B92
:103AF000D0F8001B41F40011C0F8001B00207047F3
:103B0000D0F80019002906DB2AB1D0F8001921F0FD
:103B10008041C0F80019D0F8001941F40011C0F834
:103B20000019EBE7F8B50C784F78774DE3B26FF0FA
:103B3000604600EB4313012F26D0D3F8104B6FF3F0
:103B40001204C3F8104BD3F8104B2C40C3F8104BA1
:103B50004C69002C74D08D682C44641EB4FBF5F4C1
:103B6000D3F8105BA4B206EAC4463543C3F8105B31
:103B7000D3F8105B8E686643C6F312042543C3F87E
:103B8000105B012A71D0A6E04F691FB3D3F81079FA
:103B90006FF31207C3F81079D3F810792F40C3F8E8
:103BA00010794F698D682F447F1EB7FBF5F506EA43
:103BB000C545D3F810693543C3F81059D3F81059E7
:103BC0004E69C6F312063543C3F81059CD78012D5E
:103BD00010D01BE0D3F810692E40C3F81069D3F859
:103BE000105945F40025C3F81059D3F810596FF354
:103BF000120509E0D3F8105925F0C045C3F8105953
:103C0000D3F8105945F00055C3F81059012A18D0BF
:103C100000EB4413D3F8004944F00444C3F80049CE
:103C2000CC78012C2FD04A6962B3D0F834280978B7
:103C300001F00F03012199400A43C0F8342860E0E5
:103C400036E00A691AB100EB4413C3F81429C978A5
:103C500001290FD1D0F80818C90500EB4411D1F89B
:103C6000002903D442F0005202E030E042F08052DA
:103C7000C1F8002900EB4410D0F8001941F00441CC
:103C8000C0F800193DE0D0F80848E405D3F8004931
:103C900002D444F0005401E044F08054C3F80049D9
:103CA00000928A8A93B20A78C96800F03FF928E046
:103CB000D3F8104B8D68C5F312052C43C3F8104B95
:103CC000D3F8104B44F40024C3F8104B59E7CA68EA
:103CD0000AB1C3F8142BC97801290CD1D0F808080F
:103CE000C005D3F8000B02D440F0005001E040F0D2
:103CF0008050C3F8000BD3F8000B40F00440C3F829
:103D0000000B0020F8BD0000FFFF07E0816841F0D4
:103D10000101816000207047002110220261054AE4
:103D2000491C914201D9032070470369DB06F7D48F
:103D300000207047400D03000022202343EA811138
:103D400001610549521C8A4201D903207047036969
:103D50009B06F7D400207047400D0300D0F80808F8
:103D600010F0060004D0022803D0062801D00F204E
:103D7000704702207047406900F001007047D0F89A
:103D80001818D0F81C08084080B27047D0F81818EE
:103D9000D0F81C080840000C704710B5D0F8103857
:103DA000D0F8342801F00F0400EB4110E24002F09B
:103DB0000102D0F8080943EAC212104010BD00EB1E
:103DC0004111D1F8081BD0F8140808407047416928
:103DD000806908407047D21C10B59308002200F596
:103DE000805002E00468521C10C19A42FAD308467F
:103DF00010BD10B5C26822F0C042C260012902D0D5
:103E000029B1012010BDC16841F0005102E0C16834
:103E100041F08041C1603220FCF71CFD002010BD44
:103E2000D0F8002822F4FE62C0F80028D0F800285C
:103E30004FF4FE6303EA01110A43C0F80028002092
:103E400070470000022A3ED1264A274B0A449A4274
:103E500001D20F2138E0254A254B0A449A4201D26B
:103E60000E2131E0234A244B0A449A4201D20D210B
:103E70002AE0224A224B0A449A4201D20C2123E032
:103E8000204A214B0A449A4201D20B211CE01F4ACE
:103E90001F4B0A449A4201D20A2115E01D4A1E4BCB
:103EA0000A449A420FD31D4A1D4B0A449A4201D23A
:103EB000082109E01B4A11441B4A914201D2072103
:103EC00002E0062100E00921C26822F47052C260BB
:103ED000C2684FF4705303EA81210A43C260002094
:103EE00070470000405327FF00350C00401E1BFFA9
:103EF00040420F0000DC0BFF804F1200808CF9FE67
:103F000020D6130060B6E5FE60E3160000D3CEFEB7
:103F100040771B00C05BB3FEC091210000CA91FE38
:103F200020753800E05459FEE09C410010B5029C19
:103F300064B9DB1C9C0800EB0230002300F58050C4
:103F400002E004C902605B1CA342FAD3002010BD4A
:103F5000FEE700000FB4084B10B504A902AA0398AD
:103F600000F0EEF8044602A9002000F080FC204694
:103F700010BC5DF814FB00006F4800080907090E2B
:103F8000002804DB00F1E02080F80014704700F006
:103F90000F0000F1E02080F8141D704702E008C80F
:103FA000121F08C1002AFAD170477047002001E0B3
:103FB00001C1121F002AFBD1704700002DE9FF5FED
:103FC00082B00021DDE90430020DDDF840B003438A
:103FD00018D044F61050A2F2FF3242431514119843
:103FE00001281FD0A5EB0B00401C5FEA000A4FF030
:103FF00000064E4FDFF83891B046504615D5CAF14D
:10400000000413E0119801244AA3012801D16FEAAA
:104010000B010298119AC0E90031C0E9024206B0D2
:10402000BDE8F09FCBF10000DFE704460021404AE5
:10403000491842EB0450CDE9001012E0E00707D028
:1040400032463B4640464946FCF705FA80468946DB
:1040500032463B4610461946FCF7FDF906460F4628
:104060006410002CEAD1DDE90401DDE90023BAF196
:10407000000F06DAFCF7EFF942464B46FCF7EBF986
:1040800005E0FCF75AFA42464B46FCF756FA04465E
:104090000E460022284BFCF7D7FA03D84FF0FF302A
:1040A000014607E00022254B20463146FCF72CF95B
:1040B000FCF7B2FA102409E0002C0ADB0A220023E4
:1040C000FCF77EF8039B30321A55641E50EA010259
:1040D000F2D1641C039AC4F111031444119A012A09
:1040E00003D0012208430DD10AE0084304D0002088
:1040F0004FF0110B119072E7A3EB0B056D1E0DE055
:104100005B4504DD4FF0000205F1010504E003DA30
:104110004FF00002A5F10105002AECD00298119998
:10412000C0E90231C0E9004579E700000000144011
:104130000000F03F300000000000F0430000E03FCE
:104140002DE9FF4F95B09B468946064600250FE2B4
:10415000252877D100242746F84A0121059400E05C
:10416000044316F8013F203B01FA03F01042F7D157
:1041700030782A2811D06FF02F033078A0F1300268
:10418000092A16D8059A44F0020402EB820203EBD6
:1041900042021044761C0590EFE759F8042B059273
:1041A000002A03DA504244F40054059044F002041B
:1041B000761C30782E2816D116F8010F44F004042E
:1041C0002A280DD06FF02F023078A0F13003092B90
:1041D00009D807EB870302EB4303C718761CF3E704
:1041E00059F8047B761C30786C280FD006DC4C28FC
:1041F00017D068280DD06A2814D104E0742810D094
:104200007A280FD10DE044F400140AE044F480143D
:1042100001E044F440147278824202D104F5801423
:10422000761C761C307866280BD013DC582877D0A3
:1042300009DC002875D04528F6D04628F4D0472858
:104240001AD19DE118E0632835D0642879D065281B
:1042500012D195E1702873D008DC6728F1D0692865
:104260006FD06E280DD06F2806D1B5E073282CD002
:10427000752875D0782874D05A46179990476D1CC8
:1042800075E1C4F30250022809D003280DD0D9F8F3
:10429000001004280DD00D6009F1040967E1D9F878
:1042A0000010EA17C1E90052F6E7D9F800100D80B6
:1042B000F2E70D70F0E719F8041B8DF800100020EC
:1042C0008DF80100EA46012003E059F804AB4FF0F5
:1042D000FF3061074FF0000102D40DE008F1010149
:1042E0008846B9420FDA8045F8DB1AF80810002931
:1042F000F4D108E008F1010188468142FADB1AF89E
:1043000008100029F6D105985B46A0EB0807214666
:104310003846179A00F094FA284400EB080507E0A5
:104320004DE029E10DE01AF8010B5A461799904724
:10433000B8F10108F7D25B4621463846179A13E1D7
:1043400042E00A220092C4F302524FF0000A022A0D
:1043500008D059F804CB032A4FEAEC710AD00DE0DB
:1043600029E02AE009F1070121F00702F2E802C181
:10437000914609E00FFA8CFC4FEAEC71042A03D154
:104380004FFA8CFC4FEAEC71002907DA0A4600214B
:10439000DCF1000C61EB02012D2202E0220504D5C4
:1043A0002B228DF80420012203E0E20701D0202215
:1043B000F7E7904659E00A2102E010220DE01021B3
:1043C0004FF0000A00910BE010224FF0000A44F079
:1043D00004040827009203E008224FF0000A00922C
:1043E000C4F30252022A05D059F804CB0021032A53
:1043F00008D009E009F1070121F00702F2E802C143
:10440000914605E01FFA8CFC042A01D10CF0FF0C48
:104410004FF00008220728D5702806D0009B83F0B3
:10442000100353EA0A0305D00EE040228DF8042061
:10443000012208E05CEA010206D030228DF8042057
:104440008DF8050002229046009B83F0080353EA92
:104450000A030AD15CEA010201D1620705D53022C4
:104460008DF804204FF001087F1E582804D034A096
:1044700003900EA802900DE036A0F9E7534660467F
:10448000009AFBF79DFE84460398825C0298401ECA
:10449000029002705CEA0100F0D1029806A9081AA5
:1044A00000F1200A600702D524F4803400E00127DF
:1044B000574502DDA7EB0A0000E0002000EB0A01EF
:1044C000009005984144401A0590E00306D45B46ED
:1044D0002146179A059800F0B3F90544002706E035
:1044E00001A85A46C05D179990476D1C7F1C47452F
:1044F000F6DBE0030CD55B462146179A059800F0E1
:104500009FF9054404E030205A46179990476D1CE6
:104510000099481E00900029F5DC08E002980299F5
:104520005A460078491C0291179990476D1CBAF1C0
:104530000001AAF1010AF1DC65E10000092801008F
:104540003031323334353637383961626364656609
:1045500000000000303132333435363738394142CB
:10456000434445460000000000F058F90544761C1D
:10457000307800287FF4ECAD19B02846BDE8F08F04
:10458000620700D4062709F1070222F0070CFCE8B5
:104590000223E14603F000485FEA080C02D00FF264
:1045A000702C0DE05FEA045C02D50FF2682C07E086
:1045B0005FEAC47C02D00FF2602C01E0AFF2700C15
:1045C0004FF0FF3823F00043CDF850C065280CD0E1
:1045D00006DC452809D046281DD047283DD13DE0BE
:1045E000662818D067287ED138E00021112F01DB22
:1045F000112000E0781CCDE9000106A90EA8FFF704
:10460000DDFCDDE90F010E9A03910021009207F114
:10461000010A04914DE04FF000400097CDE90110F0
:1046200006A90EA8FFF7CAFCDDE90F0203920E9B54
:1046300011990022DDF80CA00093049211B9791CA5
:1046400000EB010AB7EB0A0004D4C0F1FF3007F118
:10465000010A0490AAEB0700019044E0012F00DA60
:1046600001270021112F01DD112000E03846CDE99E
:10467000000106A90EA8FFF7A1FCDDE90F010E9AC3
:104680000391002104910092BA4621070CD40399AA
:10469000514500DA8A46BAF1010F05DD009AAAF108
:1046A0000101515C302908D0B84202DA10F1040F40
:1046B00006DA0121CDE9011015E0AAF10101E9E7CF
:1046C000002805DC049901440491AAEB000102E0F2
:1046D000411C514500DD8A460499401A401C019056
:1046E0004FF000400290200704D40198504501DBB0
:1046F000CDF8048000208DF84F0002980DF14F078F
:10470000B0F1004F25D02B200E9002984FF00208F8
:1047100000280CDA404202902D200E9007E00A217A
:104720000298FBF7BCFD3031029007F8011DB8F18B
:104730000001A8F10108F2DC02980028EFD1791EEF
:104740000E980870307800F0200040F0450007F81F
:10475000020D12A8C01B00F107081498007800B1E0
:10476000012000EB0A01019801EBE071059841443A
:10477000401A401E0590E00306D45B462146179A76
:10478000059800F05DF805441498007818B15A4671
:10479000179990476D1CE00324D55B462146179A74
:1047A000059800F04DF805441CE00498002807DB4C
:1047B000DDE90301884203DD0098405C179901E0C0
:1047C000179930205A469047049805F10105401C7E
:1047D00004900198401E019004D12E205A4617994A
:1047E00090476D1CBAF10001AAF1010ADDDC05E079
:1047F00017F8010B5A46179990476D1CB8F1000144
:10480000A8F10108F4DC5B462146179A0598ABE64F
:104810002D0000002B000000200000002DE9F041D9
:10482000044600251E461746880404D405E0394690
:104830002020B0476D1C641EF9D52846BDE8F081E4
:104840002DE9F041044600251E469046C80301D5D7
:10485000302700E02027880404D505E0414638468B
:10486000B0476D1C641EF9D52846BDE8F0810A6882
:10487000531C0B60107070472DED028B90B02421FB
:1048800004A8FBF7E7FCFCF70FF9FDF73DFFFDF788
:1048900029FDFDF76FFDFDF78FFD40208DF83400F9
:1048A00008208DF83500C0208DF8360007208DF8DF
:1048B000370001208DF838000DA92448FDF71AFCB7
:1048C000DFED230A9FED230AFDF7CAFC9FED228A44
:1048D0009FED220AF0EE480AFDF7D8FCF0EE480AF8
:1048E0009FED1F0AFDF7E8FCDFF87890FDF7CEFB9F
:1048F00089ED000AC9ED010A10EE108A10EE904A07
:1049000089ED021A11EE100AFBF7B6FC06460F46B7
:104910002046FBF7B1FC04460D464046FBF7ACFCD5
:1049200041EC100B8DE8F00053EC102B0EA104A805
:10493000FFF710FB04A8FBF798FC81B204A8FBF773
:104940006DFFC820FBF786FFD0E7000008020020BB
:104950000000754400007AC40000824400007FC457
:10496000000066C4FC0100204178203D202566201F
:104970002C4179203D2025662C20417A203D2025A0
:10498000660D0A00000000000000000001020304A0
:1049900006070809B449000800000020A40100002F
:1049A0007A070008804A0008A4010020B45B0000D8
:1049B000AC3F0008E58FC2753D6B803F04139D2B13
:1049C0001B08CD041AD90413012C1B082D041A7DD1
:1049D0000C1AA90417040309041201140202021696
:1049E0004083044057260201020301031A1A0313ED
:1049F000DD071B08D7041AD3041301081B08190488
:104A000019331182105324F4130A0632022A401C6F
:104A10001C0902435B1125C03209041B01020B1360
:104A200005241610010524011009010424020205C1
:104A30002406170107058203081C10090491320A95
:104A40001D07050102432C070581070938442A4048
:104A5000072A8107112B0907440A3B044413DD2868
:104A60001B08350413DD2942081A7D0C13A9271BE6
:104A7000080B08C11AC5101AB9041AD1041AAD04DA
:040000050800018965
:00000001FF
