:020000040800F2
:10000000580400209D010008B70E0008010E0008EA
:10001000B50E0008A9020008CD110008000000007C
:10002000000000000000000000000000BB0E0008FF
:10003000AB02000800000000B90E0008BD0E000869
:10004000B7010008B7010008B7010008B7010008B0
:10005000B7010008B7010008B7010008B7010008A0
:10006000B7010008B7010008B7010008B701000890
:10007000B7010008B7010008B7010008B701000880
:10008000B7010008B7010008B7010008B701000870
:10009000B7010008B7010008B7010008B701000860
:1000A000B7010008B7010008B7010008B701000850
:1000B000B7010008B7010008B7010008B701000840
:1000C000B7010008B7010008B7010008B701000830
:1000D000B7010008B7010008B7010008B701000820
:1000E000B7010008B7010008B7010008B701000810
:1000F000B7010008B7010008B7010008B701000800
:10010000B7010008B7010008B7010008B7010008EF
:10011000B7010008B7010008B7010008B7010008DF
:10012000B7010008B7010008B7010008B7010008CF
:10013000B7010008B7010008B7010008B7010008BF
:10014000B7010008B7010008B7010008B7010008AF
:10015000B7010008B7010008B7010008B70100089F
:10016000B7010008B7010008B7010008B70100088F
:10017000B7010008B7010008B7010008000000003F
:10018000B7010008B7010008DFF80CD000F07AF8DA
:10019000004800470D120008580400200648804718
:1001A00006480047FEE7FEE7FEE7FEE7FEE7FEE75C
:1001B000FEE7FEE7FEE7FEE7550F000889010008AD
:1001C0002DE9F05F0546002092469B46884606468C
:1001D000814640241BE0284641464746224600F01F
:1001E00041F853465A46C01A914110D31146184659
:1001F000224600F028F82D1A67EB01084F462246E8
:100200000120002100F01FF817EB00094E41201ECD
:10021000A4F10104DFDC484631462A464346BDE8E6
:10022000F09FD2B201E000F8012B491EFBD27047CB
:100230000022F6E710B513460A4604461946FFF7B2
:10024000F0FF204610BD202A04DB203A00FA02F11C
:10025000002070479140C2F1200320FA03F31943B4
:1002600090407047202A04DB203A21FA02F0002156
:10027000704721FA02F3D040C2F1200291400843B6
:1002800019467047064C074D06E0E06840F0010350
:1002900094E8070098471034AC42F6D3FFF778FF94
:1002A0007012000890120008FEE7704772B6FEE771
:1002B00070B5044600F004F90546601C02D00448FD
:1002C0000078044400F0FCF8401BA042FAD370BD53
:1002D000000000202DE9F84FDFF8B8A10022012529
:1002E0000AF1040B03264FF00F090BF1040E00BFB7
:1002F0000B6805FA02F42340A3426FD10F7907F08F
:100300000307012F01D0022F16D187684FEA420858
:1003100006FA08FC27EA0C07D1F80CC00CFA08FC16
:100320004CEA070CC0F808C04768A7430C79C4F32F
:10033000001494403C4344600C79E443A4070AD081
:10034000C4684FEA420C06FA0CF7BC438F6807FA00
:100350000CF72743C7600C7904F00304022C12D178
:10036000D40800EB840CDCF820405707FF0E09FA94
:1003700007F824EA0804D1F8108008FA07F848EAD8
:100380000408CCF8208004684FEA420C06FA0CF707
:10039000BC430F7907F0030707FA0CF72743076000
:1003A0004C68E40070D53C4C276847F480472760D0
:1003B000246822F0030704F480440094374C07EBD0
:1003C000040CDCF8084897074FEA177809FA08F791
:1003D000BC43334FB84202D1002724E054E0314FF0
:1003E000B84201D101271EE02F4FB84201D10227A8
:1003F00019E02E4FB84201D1032714E02C4FB84228
:1004000001D104270FE02B4FB84201D105270AE0A4
:10041000294FB84201D1062705E0284FB84201D143
:10042000072700E0082707FA08F72743CCF80878E1
:10043000DAF800405746D1F804C09C435FEACC3C50
:1004400000D51C433C60DBF800405F46D1F804C097
:100450009C435FEA8C3C00D51C433C60DEF80040C6
:100460007746D1F804C09C435FEACC2C00D51C43EE
:100470003C60084F0C373C68D1F804C09C435FEAED
:100480008C2C00D51C433C60521C102AFFF430AF6A
:10049000BDE8F88F003C0140443802400030014084
:1004A000000002400004024000080240000C02402C
:1004B000001002400014024000180240001C0240DC
:1004C00001488068704700000000002002488168F1
:1004D0000278114481607047000000200B4810B57D
:1004E000016841F400710160016841F480610160BC
:1004F000016841F480710160032000F061F8002080
:1005000000F006F800F024F8002010BD003C024086
:1005100070B50D4D04464FF47A712878B1FBF0F0B8
:100520000A490968B1FBF0F000F0DCFA48B9102C78
:1005300007D200222146501E00F022F800206C60F5
:1005400070BD012070BD0000000000200C000020E4
:100550000A4808B5016841F480410160006800F470
:10056000804000900548001F016841F08051016003
:10057000006800F08050009008BD00004438024040
:10058000F0B40E4B1B680C46C3F30223C3F10705FE
:10059000042D00D90425191D072901D2002300E0EC
:1005A000DB1E012606FA05F1491E214099409E40B6
:1005B000761E16403143F0BC00F009BE0CED00E0A1
:1005C000064900F0070208684FF6FF03184040EAAA
:1005D0000220034A10430860704700000CED00E061
:1005E0000000FA052DE9F0470E46050065D0DFF85A
:1005F0001481D8F80000F7B200F00700B04207D22B
:1006000088F80070D8F8000000F00700B04254D11C
:1006100028683D4C810712D5400703D5206840F477
:10062000E05020602878000703D5206840F460403F
:1006300020602068A96820F0F00008432060287836
:10064000C0072DD0304968680839012812D0022827
:1006500013D0032811D00968890700292DDA2168F1
:1006600021F0030101432160FFF72AFF814641F297
:10067000883A0EE009688903EFE709688901ECE729
:10068000FFF71EFFA0EB0901514502D90320BDE889
:10069000F0872068696800F00C00B0EB810FEFD1A3
:1006A000D8F80010404601F00701B14207D90770A1
:1006B000006800F00700B04201D00120E7E7287889
:1006C000400705D52068E96820F4E0500843206021
:1006D0002878000706D52068296920F4604040EAA0
:1006E000C100206000F018F82168084AC1F3031126
:1006F000515CC8400649086006480068FFF708FFDB
:100700000020C4E7003C02400838024060120008A4
:100710000C00002004000020154810B5006810F0FF
:100720000C02144813D04110042A0FD0082A0ED10D
:100730000F4C241F2268236802F03F025B0207D59A
:100740002068C0F38810A0FB010106E0084610BD38
:100750002168C1F38811A1FB00010023FFF730FDE0
:100760002168C1F30141491C4900B0FBF1F010BD03
:10077000083802400024F4002DE9F84F04006ED040
:100780002078DFF84C93C007A9F104054AD009F19D
:1007900004000168C1F38101012908D00068C0F399
:1007A000810002280AD1D9F80000400206D5286845
:1007B000800337D560680028E1D033E06068B0F589
:1007C000803F10D0B0F5A02F286810D020F48030E2
:1007D0002860286820F4802028606068A8B1FFF7AE
:1007E0006FFE06460DE0286840F48030F4E740F4E0
:1007F00080202860F7E700BFFFF762FE801B6428B7
:1008000073D828688003F7D50CE0FFF759FE064639
:1008100005E000BFFFF754FE801B6428F0D828686D
:100820008003F7D42078DFF8AC8280074FF0000A0D
:100830003ED5A748001D016811F00C0F08D00068D4
:10084000C0F3810002280BD1D9F80000400207D480
:100850002868800716D5E068012800D112E033E14E
:10086000E068B8B10120C8F80000FFF729FE06468D
:1008700005E000BFFFF724FE801B0228C0D82868CF
:100880008007F7D52868216920F0F80040EAC10008
:1008900028600DE0C8F800A0FFF712FE064604E04D
:1008A000FFF70EFE801B02281FD828688007F7D4A8
:1008B0002078000722D5864F87486169703771B16B
:1008C00001210160FFF7FCFD064604E0FFF7F8FD9B
:1008D000801B022809D838688007F7D50EE0C0F8D9
:1008E00000A0FFF7EDFD064605E082E0FFF7E8FD1A
:1008F000801B02287DD838688007F7D4207840070D
:1009000068D5DFF8CCB100270BF13C0BDBF8000019
:10091000C0000BD4DBF8001041F08051CBF8001080
:10092000DBF80000012700F0805000906B4E30682B
:10093000C00510D4306840F480703060FFF7C0FD0F
:10094000009005E0FFF7BCFD0099401A022850D83E
:100950003068C005F6D55E4EA0686C3601280FD011
:100960000528306810D020F001003060306820F099
:1009700004003060A068B8B1FFF7A2FD00900FE05E
:10098000306840F00100F4E740F004003060F7E721
:10099000FFF796FD0099411A41F28830814266D8EE
:1009A00030688007F4D50EE0FFF78AFD009007E07D
:1009B000FFF786FD0099411A41F28830814256D8EE
:1009C00030688007F4D42FB1DBF8001021F080519B
:1009D000CBF80010A069C8B33D49091D0968C1F3EF
:1009E000810102294AD00228504607D0C8F8600089
:1009F00000E03CE0FFF764FD04463BE04746C8F8F2
:100A00006000FFF75DFD064605E000BFFFF758FDFB
:100A1000801B02282BD828688001F7D4D4E907016D
:100A20000843A16A2E4A490802EB0141626A41EA81
:100A30008211084394F82C1040EA0161C9F80010B3
:100A400001203866FFF73CFD044606E03EE000BFAB
:100A5000FFF736FD001B022809D828688001F7D56A
:100A600034E000BFFFF72CFD001B022802D9032051
:100A7000BDE8F88F28688001F4D427E00128F7D07A
:100A8000D9F80000E26900F4800191421CD1226A89
:100A900000F03F01914217D147F6C071626A0140F0
:100AA000B1EB821F10D1A26A4FF0FF3300F4403146
:100AB00003EB5202B1EB024F06D194F82C1000F078
:100AC0007060B0EB016F01D00120D1E70020CFE7CB
:100AD0000438024000004742800E47420070004048
:100AE0000000FFFF10B5401EB0F1807F01D3012050
:100AF00010BD4FF0E02460610F21601700F067FB2C
:100B00000020A06107202061002010BD70B590F882
:100B10003C20012A32D0012480F83C40022280F897
:100B20003D2003685A689D6822F070060A683243C7
:100B30005A60134B02689A4214D0B2F1804F11D020
:100B4000104B9A420ED0104B9A420BD00F4B9A4248
:100B500008D00F4B9A4205D00E4B9A4202D00E4B52
:100B60009A4204D1496825F080031943916080F8C6
:100B70003D40002180F83C10084670BD022070BD49
:100B8000000001400004004000080040000C00404C
:100B900000040140004001400018004010B586B03C
:100BA000044614216846FFF743FB0E49206888423B
:100BB00015D10D480021026842F008020260006869
:100BC00000F0080005904FF4805000900220CDE91D
:100BD0000101CDE9031069460448FFF77BFB06B02D
:100BE00010BD00000008004030380240000C0240F8
:100BF00070B5044690F83C000D4601280AD001204B
:100C000084F83C0042B1042A18D0082A2AD00C2AC1
:100C10004DD139E0022070BD206800F015FA20683F
:100C2000816941F0080181612068816921F0040136
:100C30008161206881692A69114311E0206800F010
:100C400033FA2068816941F400618161206881691B
:100C500021F480618161206881692A6941EA022169
:100C6000816124E0206800F055FA2068C16941F0F4
:100C70000801C1612068C16921F00401C1612068D7
:100C8000C1692A69114311E0206800F077FA2068F1
:100C9000C16941F40061C1612068C16921F48061CA
:100CA000C1612068C1692A6941EA0221C16100204D
:100CB00084F83C0070BD10B5040003D094F83D00EA
:100CC00010B107E0012010BD002084F83C00204650
:100CD00000F01EF8022084F83D00211D206800F07D
:100CE00041F9012084F8460084F83E0084F83F0072
:100CF00084F8400084F8410084F8420084F84300FE
:100D000084F8440084F8450084F83D00002010BDBC
:100D100008B500680649884208D10648016841F0D4
:100D200004010160006800F00400009008BD0000AC
:100D3000000800404038024010B50446022249B184
:100D400004290ED0082913D094F84100012816D0A8
:100D5000012010BD94F83E000128F9D184F83E200E
:100D60000FE094F83F000128F2D184F83F2008E01A
:100D700094F840000128EBD184F8402001E084F889
:100D800041200122206800F051F916492068164AD6
:100D9000884201D0904203D1436C43F40043436442
:100DA0002068884213D0B0F1804F10D00F4988429C
:100DB0000DD00F4988420AD00E49884207D0904290
:100DC00005D00D49884202D00C49884204D181687F
:100DD00001F00701062903D0016841F0010101601B
:100DE000002010BD0000014000040140000400404C
:100DF00000080040000C0040004001400018004086
:100E0000FEE700000D4808B5016841F0800101606F
:100E1000016801F080010091016841F00801016062
:100E2000016801F008010091016841F001010160D1
:100E3000006800F00100009008BD0000303802405A
:100E400010B58AB0002407941C2168460894FFF767
:100E5000EFF9174815490160A721C0E9011440F2D4
:100E6000E731C0E9031480218161FFF724FF08B155
:100E7000FFF71CFA079407A90D480894FFF746FEF0
:100E800008B1FFF713FA6020CDE9000402940022B4
:100E9000694607480494FFF7ABFE08B1FFF706FA6E
:100EA0000348FFF77BFE0AB010BD000000080040B9
:100EB00010000020FEE7FEE770477047FFF706BB13
:100EC00030B593B030216846FFF7B2F914210CA871
:100ED000FFF7AEF91D480025016841F0805101601F
:100EE000006800F0805011901948016841F4804179
:100EF00001600068022400F48040119001200390FA
:100F000010200490009406940820CDE90750A820F2
:100F1000CDE9090404200B906846FFF72DFC08B1C9
:100F200072B6FEE70CA90F2081E831004FF4A05003
:100F30000F904FF48050109005210CA8FFF752FB42
:100F4000002801D072B6FEE713B030BD4038024031
:100F5000007000400248016841F470010160704770
:100F600088ED00E0F0B50268254C264D264E274F4F
:100F7000274B4FF0804CA04209D0604507D0A842D3
:100F800005D0B04203D0B84201D0984204D122F03B
:100F9000700E4A6842EA0E02A0421BD0604519D08A
:100FA000A84217D0B04215D0B84213D0984211D001
:100FB000184DA8420ED0184DA8420BD0174DA8428C
:100FC00008D0174DA84205D0164DA84202D0164DA4
:100FD000A84203D122F44075CA682A434D6922F021
:100FE00080022A4302608A68C2620A688262A04262
:100FF00001D0984201D10969016301214161F0BD2D
:10100000000001400004004000080040000C0040C7
:1010100000040140004001400044014000480140FC
:1010200000180040001C00400020004010B501F0F6
:101030001F030121046A99408C430462016A9A40AB
:101040001143016210BD0000F0B5026A22F00102F6
:101050000262036A42688469124E24F073050C68C8
:101060002C4323F002058B682B430D4DA84201D081
:10107000B04205D123F00807CB683B4323F00403BB
:10108000A84201D0B04205D14D6922F44072154307
:101090008A692A4342608461496841630362F0BD02
:1010A0000000014000040140F0B5026A22F0100285
:1010B0000262026A436884690D6824F4E64444EAE3
:1010C00005248D6822F0200242EA05120F4D104ED1
:1010D000A84201D0B04206D1CF6822F0800242EA95
:1010E000071222F04002A84201D0B04207D14D6958
:1010F00023F4406343EA85038D6943EA8503436033
:101100008461496881630262F0BD00000000014013
:1011100000040140F0B5026A22F480720262026AA1
:101120004368C46922F4007224F073050C68124EFF
:101130002C438D6842EA05220E4DA84201D0B042F0
:1011400006D1CF6822F4006242EA072222F48062CC
:10115000A84201D0B04207D14D6923F4405343EA7D
:1011600005138D6943EA05134360C4614968C1638F
:101170000262F0BD000001400004014030B5026A87
:1011800022F480520262046A4268C3690D6823F443
:10119000E64343EA05238D6824F4005444EA053409
:1011A000084DA84202D0084DA84204D14D6922F44E
:1011B000804242EA85124260C36149680164046268
:1011C00030BD00000000014000040140FEE70907B7
:1011D000090E002804DB00F1E02080F800147047BD
:1011E00000F00F0000F1E02080F8141D704702E0CD
:1011F00008C8121F08C1002AFAD1704770470020A2
:1012000001E001C1121F002AFBD170470024FFF743
:1012100065F9FFF755FEFFF7F5FDFFF711FE002119
:101220000E48FFF789FD0D4D4FF47A76641C28684F
:10123000A4B244630120FFF73BF8B442F6D306E0C2
:101240002868641EA4B244630120FFF731F8002C23
:10125000F6D1C820FFF72CF8E8E7000010000020C6
:101260000000000000000000010203040607080956
:10127000901200080000002010000000EE1100088D
:10128000A01200081000002048040000FE11000811
:101290000100000010000000000000000024F40025
:040000050800018965
:00000001FF
