:020000040800F2
:10000000D05D00209D010008F7290008F11F0008BD
:10001000F52900088B080008CD4300080000000007
:10002000000000000000000000000000752B000828
:100030000109000800000000732B0008812B000854
:10004000B7010008B7010008B7010008B7010008B0
:10005000B7010008B7010008B7010008B7010008A0
:10006000B7010008B7010008B7010008B701000890
:10007000B7010008B7010008B7010008B701000880
:10008000B7010008B7010008B7010008B701000870
:10009000B7010008B7010008B7010008B701000860
:1000A000B7010008B7010008B7010008B701000850
:1000B000B7010008B7010008B7010008B701000840
:1000C000B7010008B7010008B7010008B701000830
:1000D000B7010008B7010008B7010008B701000820
:1000E000B7010008B7010008B7010008B701000810
:1000F000B7010008B7010008B7010008B701000800
:10010000B7010008B7010008B7010008B7010008EF
:10011000B7010008B7010008B7010008B7010008DF
:10012000B7010008B7010008B7010008B7010008CF
:10013000B7010008B7010008B7010008B7010008BF
:10014000B7010008B7010008B7010008F929000845
:10015000B7010008B7010008B7010008B70100089F
:10016000B7010008B7010008B7010008B70100088F
:10017000B7010008B7010008B7010008000000003F
:10018000B7010008B7010008DFF80CD000F040FB11
:1001900000480047954C0008D05D00200648804785
:1001A00006480047FEE7FEE7FEE7FEE7FEE7FEE75C
:1001B000FEE7FEE7FEE7FEE7152C000889010008D0
:1001C0002DE9F05F0546002092469B46884606468C
:1001D000814640241BE0284641464746224600F01F
:1001E00046FA53465A46C01A914110D31146184652
:1001F000224600F02DFA2D1A67EB01084F462246E1
:100200000120002100F024FA17EB00094E41201EC6
:10021000A4F10104DFDC484631462A464346BDE8E6
:10022000F09F40EA01039B0703D009E008C9121FB1
:1002300008C0042AFAD203E011F8013B00F8013BA0
:10024000521EF9D27047D2B201E000F8012B491ECC
:10025000FBD270470022F6E710B513460A46044663
:100260001946FFF7F0FF204610BD421C10F8011B95
:100270000029FBD1801A70472DE9FE4F804681EAA4
:100280000300C00F0C46009021F0004123F0004510
:10029000B8EB0200A94105D24046214690461C46D3
:1002A0000B46024623F00040104347D0270DC7F30A
:1002B0000A00C3F30A510290401A019040286BDAF9
:1002C000C3F3130040F4801B0098924620B1002332
:1002D000D2EB030A63EB0B0B01985946C0F14002C5
:1002E000504600F0B5F906460D4650465946019A6B
:1002F00000F0CDF910EB08006141002487EA1152AB
:1003000084EAE7731A4340D0009A62B3019A012A43
:100310004FEA075215DC001B61EB02014FF000426F
:1003200002EA0752CDE90042001C41F58011324635
:100330002B4600F0CDF903B0BDE8F08F40462146D2
:10034000F9E7001B61EB0201001C41F58013001866
:100350005B412018A2F5001747EB030140EAD57076
:10036000B6196D4111E06D084FEA360645EAC075D1
:100370004FEA0752001B61EB0201001C41F580119E
:1003800049084FEA30000019514132462B4603B06C
:10039000BDE8F04F00F08DB9009801224000002325
:1003A000D0EB020263EBE073009821464FEAE07461
:1003B000B8EB000061EB0401E9E783F000435BE781
:1003C00081F0004158E72DE9FE4F81EA030404F073
:1003D000004421F0004100944FF0000B23F0004353
:1003E00050EA01045ED052EA03045BD0C3F30A541E
:1003F000C1F30A552C44A4F2F3340194A0FB025437
:10040000C1F3130141F48011C3F3130343F48013C8
:1004100001FB024400FB034E840A970A44EA81541C
:1004200047EA8357A4FB076802958D0A05FB0785F9
:100430004FEA932C04FB0C542705029D4FEA065803
:1004400047EA1637B5EB08056EEB070C870E920EE0
:1004500047EA811742EA8312A7FB0201B6EB0B01C0
:1004600064EB00042B0D43EA0C335E1844EB1C5084
:10047000DA465146E7FB0201C5F313044FEA0B339A
:1004800043EA14534FEA0432019C43EA0603A4F101
:100490000C040294009CCDE900B400F019F903B0FB
:1004A000BDE8F08F00200146F9E72DE9F04D81EA23
:1004B000030404F0004B21F0004514464FF0000AFD
:1004C00023F0004150EA050220D054EA01021DD079
:1004D000C5F30A570246C5F31303C1F31300C1F372
:1004E0000A5640F4801543F48013A7EB0608101B4E
:1004F000D64608F2FD3873EB050002D308F1010877
:1005000001E092185B41B8F1000F03DA00200146C8
:10051000BDE8F08D00204FF48011064684460EE0C1
:10052000171B73EB050705D3121B63EB050306438B
:100530004CEA010C49084FEA300092185B4150EA3E
:100540000107EDD152EA030012D082EA040083EAE7
:100550000501084305D0101BAB4106D20122002340
:1005600006E000224FF0004302E06FF0010253105A
:100570001AEB06004CEB085110EB0A0041EB0B01A3
:10058000BDE8F04D00F095B80EB5C10F80EAE070FF
:100590000844CA07002140F233438DE80E000A46A2
:1005A0000B4600F095F803B000BD0EB540F23341A4
:1005B00002910021CDE900110A460B4600F088F8AF
:1005C00003B000BD30B5041E71F1000404DB4FF030
:1005D0000044404264EB0101141E73F1000405DB8A
:1005E0001C464FF00043524263EB04038B4208BFAA
:1005F000824230BD30B5041E71F1000404DB4FF0BF
:100600000044404264EB0101141E73F1000405DB59
:100610001C464FF00043524263EB0403994208BF6B
:10062000904230BD30B50B46014600202022012407
:1006300009E021FA02F59D4205D303FA02F5491BB0
:1006400004FA02F52844151EA2F10102F1DC30BDC6
:10065000202A04DB203A00FA02F100207047914082
:10066000C2F1200320FA03F3194390407047202A77
:1006700004DB203A21FA02F00021704721FA02F34C
:10068000D040C2F120029140084319467047202A09
:1006900006DBCB17203A41FA02F043EAE07306E0AA
:1006A00041FA02F3D040C2F12002914008431946BA
:1006B000704710B5141E73F1000408DA401C41F1B4
:1006C000000192185B411A4301D120F0010010BDD6
:1006D0002DE9F04D92469B4611B1B1FA81F202E04C
:1006E000B0FA80F220329046FFF7B2FF04460F4680
:1006F00040EA0A0041EA0B0153465A46084313D028
:10070000114653EA010019D0C8F140025046FFF7E4
:10071000AEFF05460E46504659464246FFF798FF43
:10072000084305D0012004E020463946BDE8F08D9D
:100730000020054346EAE0762C4337430A986305D8
:10074000E40AA0EB08000022FD0A44EA47540A30FC
:1007500002D500200146E9E7010510196941DDE9EC
:10076000084500196941BDE8F04DA2E72DE9F04DBB
:1007700000231A461B1A8A4103DB00200146BDE80C
:10078000F08DC1F30A52C1F3130141F480154FF00B
:10079000000BD10702D100186D41521E00270446FC
:1007A00040F2FF11384601EB620A3E46804602469F
:1007B00000204FF48011FFF75AFFC2197141BB1896
:1007C00046EB0100B4EB030C75EB000C04D3E41A08
:1007D00065EB000517460E46241908F101006D412E
:1007E00080463428E3DDF91946EB0600091BA841D1
:1007F00003D24FF0FF32134601E0002213461BEBF9
:10080000070046EB0A51BDE8F04DFFF752BF00006C
:10081000064C074D06E0E06840F0010394E807004D
:1008200098471034AC42F6D3FFF7B2FC304E0008C4
:10083000504E000870B58C1810F8015B15F00703D6
:1008400001D110F8013B2A1106D110F8012B03E069
:1008500010F8016B01F8016B5B1EF9D12B0705D471
:100860000023521E0DD401F8013BFAE710F8013BBA
:10087000CB1A921C03E013F8015B01F8015B521ED6
:10088000F9D5A142D8D3002070BDFEE70020704703
:100890000020704710B500220449054802F0D1FA43
:1008A0000449034802F0C4FA002010BDA40F002040
:1008B000D4020020A407002010B50146034802F02E
:1008C000B7FA024802F099FA002010BDD4020020C5
:1008D00000207047094A10B5D2F8BC22D2F8142281
:1008E0000AB1012010BD0A460146044802F0A9FAE7
:1008F000BDE81040014802F00EBB0000D402002009
:10090000704772B6FEE7000070B5044600F004F9C7
:100910000546601C02D004480078044400F0FCF84E
:10092000401BA042FAD370BDFC0000202DE9F84F17
:10093000DFF8B8A1002201250AF1040B03264FF0CD
:100940000F090BF1040E00BF0B6805FA02F42340F7
:10095000A3426FD10F7907F00307012F01D0022FB7
:1009600016D187684FEA420806FA08FC27EA0C0706
:10097000D1F80CC00CFA08FC4CEA070CC0F808C00F
:100980004768A7430C79C4F3001494403C43446087
:100990000C79E443A4070AD0C4684FEA420C06FA73
:1009A0000CF7BC438F6807FA0CF72743C7600C7934
:1009B00004F00304022C12D1D40800EB840CDCF800
:1009C00020405707FF0E09FA07F824EA0804D1F877
:1009D000108008FA07F848EA0408CCF82080046878
:1009E0004FEA420C06FA0CF7BC430F7907F00307F5
:1009F00007FA0CF7274307604C68E40070D53C4CBD
:100A0000276847F480472760246822F0030704F42E
:100A100080440094374C07EB040CDCF80848970737
:100A20004FEA177809FA08F7BC43334FB84202D1AE
:100A3000002724E054E0314FB84201D101271EE0E5
:100A40002F4FB84201D1022719E02E4FB84201D1F1
:100A5000032714E02C4FB84201D104270FE02B4F9D
:100A6000B84201D105270AE0294FB84201D1062733
:100A700005E0284FB84201D1072700E0082707FA10
:100A800008F72743CCF80878DAF800405746D1F841
:100A900004C09C435FEACC3C00D51C433C60DBF8BF
:100AA00000405F46D1F804C09C435FEA8C3C00D50F
:100AB0001C433C60DEF800407746D1F804C09C43FC
:100AC0005FEACC2C00D51C433C60084F0C373C68D7
:100AD000D1F804C09C435FEA8C2C00D51C433C60D9
:100AE000521C102AFFF430AFBDE8F88F003C0140E3
:100AF000443802400030014000000240000402403F
:100B000000080240000C02400010024000140240A5
:100B100000180240001C0240014880687047000035
:100B2000FC00002070B5040025D094F83D0000259D
:100B300020B984F83C50204600F04CFA242084F878
:100B40003D002068016821F0010101602068016812
:100B500041F4004101602068016821F40041016016
:100B600001F03CF84D4A6168914201D84C4900E0DF
:100B70004C49884201D2012070BD4B492368B0FB2B
:100B8000F1F15E6826F03F060E435E6063689342B3
:100B900006D94FF4967359434FF47A73B1FBF3F1CE
:100BA0002368491C1E6A26F03F06314319626168BA
:100BB000914210D84900401EB0FBF1F2521CC2F322
:100BC0000B02042A01D2042022E0B0FBF1F0401C09
:100BD000C0F30B001CE0A268F2B301EBC10303EB0E
:100BE0000116431EB3FBF6F35B1C43F480431B0565
:100BF00049D092B301EBC10202EB0111401EB0FBE0
:100C0000F1F0401CC0F30B0040F4804040F4004081
:100C10002168CA694CF6FF739A431043C861D4E94E
:100C2000071001432068026822F0C00211430160EE
:100C3000D4E9030101432068826848F2FF339A43F4
:100C400011438160D4E9050108432168CA6822F094
:100C5000FF021043C86001E00EE016E02068016862
:100C600041F0010101602564202084F83D002563E6
:100C700084F83E50002070BD01EB4106431EB3FBDB
:100C8000F6F35B1CB3E70120C2E701EB4101401E14
:100C9000B0FBF1F0401CC0F30B00B7E7A0860100E9
:100CA00080841E0000093D0040420F002DE9FF4FE7
:100CB00083B09A46DDE9119793460446DDF84080FB
:100CC000FFF72AFF054694F83D00202870D119232C
:100CD000012271492046009501F09AFA0028F5D1C9
:100CE00094F83C00012863D0012084F83C0020687F
:100CF0000168C90703D1016841F001010160206862
:100D0000016821F400610160222084F83D00402048
:100D100084F83E0000262664C4F82480A4F82A90B3
:100D2000608D20855D48E062CDE9007553465A46E6
:100D30002046049901F074F900287CD1208DD0B1AF
:100D4000012821D00228206824D0416980690090C0
:100D5000208D032869D801282BD0514902283B4611
:100D60004FF00002009559D08846204601F050FA15
:100D7000002860D13CE020684169816900910168E8
:100D800041F40071016077E02068016821F480611E
:100D90000160F0E7016821F480610160206801686A
:100DA00041F400610160206841698069009063E05E
:100DB0006FE02A463946204601F0A9FA98BB206820
:100DC0000069616A08704EE02068016841F40071B2
:100DD000016020680069616A0870606A401C606296
:100DE000218D491E2185618D491E6185216838E06C
:100DF0002068016821F48061016020680069616AEF
:100E00000870606A401C6062208D401E2085608DE5
:100E1000401E60853B46002241460095204601F079
:100E2000F7F900B9D0E706E0FFE72A463946204641
:100E300001F06DFA18B1012007B0BDE8F08F20680D
:100E40000069616A0870606A401C6062218D491EF9
:100E50002185618D491E618521684A69D243520707
:100E60000AD409690170606A401C6062208D401ECE
:100E70002085608D401E6085208D00287FF468AF3E
:100E8000202084F83D0084F83E6084F83C60002017
:100E9000D2E70220D0E70000020010000000FFFFB0
:100EA000040001002DE9FF4F83B09A46DDE9119758
:100EB00093460446DDF84080FFF72EFE054694F881
:100EC0003D0020287FD1192301224049204600956A
:100ED00001F09EF9002876D194F83C00012872D0E8
:100EE000012084F83C0020680168C90703D101682B
:100EF00041F0010101602068016821F40061016096
:100F0000212084F83D00402084F83E00002626641D
:100F1000C4F82480A4F82A90608D20852C48E062D3
:100F2000CDE9007553465A462046049901F0F6F87B
:100F300070B930E02A463946204601F01BFA58B114
:100F4000206C042804D12068016841F4007101601C
:100F5000012007B0BDE8F08F606A21680078086161
:100F6000606A401C6062218D491E89B22185628DB4
:100F7000521E628522685369DB435B070BD469B15B
:100F800000781061606A401C6062208D401E2085E0
:100F9000608D401E6085208D0028CBD12A463946C1
:100FA000204601F00FF90028CAD154F83D0B016822
:100FB00041F400710160202004F81E09E67766778D
:100FC0000020C6E7FFE70220C3E700000200100090
:100FD0000000FFFF10B586B0044614216846FFF7F5
:100FE00039F913492068884220D11248016841F03C
:100FF000020101600068694600F002000590C0200F
:101000000090122001900120029003200390042000
:1010100004900948FFF78AFC06481030016841F443
:1010200000110160006800F40010059006B010BDCA
:1010300000540040303802400004024002488168F9
:101040000278114481607047FC0000200B4810B505
:10105000016841F400710160016841F48061016040
:10106000016841F480710160032000F06FF80020F6
:1010700000F006F800F024F8002010BD003C02400B
:1010800070B50D4D04464FF47A712878B1FBF0F03D
:101090000A490968B1FBF0F000F096FF48B9102C3E
:1010A00007D200222146501E00F030F800206C606C
:1010B00070BD012070BD0000FC0000200801002070
:1010C0000A4808B5016841F480410160006800F4F5
:1010D000804000900548001F016841F08051016088
:1010E000006800F08050009008BD000044380240C5
:1010F000002809DB00F01F02012191404009800017
:1011000000F1E020C0F8001170470000F0B40E4B71
:101110001B680C46C3F30223C3F10705042D00D955
:101120000425191D072901D2002300E0DB1E01263A
:1011300006FA05F1491E214099409E40761E164050
:101140003143F0BC03F070B90CED00E0064900F04B
:10115000070208684FF6FF03184040EA0220034ADE
:1011600010430860704700000CED00E00000FA0535
:1011700070470068416200207047F0B50368586A04
:1011800039B19C6A4FF4827600EB144400204D1E66
:101190000AE040EA024098620FE006EB8007DF5960
:1011A000401C04EB1744C0B2A842F6D344EA024004
:1011B0004FF4807202EB810158500020F0BDD0F84E
:1011C000040402F0DFB8C1EBC10200EB8202D0F8E8
:1011D0000404926C02F04CB8C1EBC10200EB820235
:1011E000D0F80404D2F8082202F096B8D0F804042B
:1011F00002F0CAB870B504460B0601F00F00C0EB50
:10120000C00104EB81014FF001024FF0000503D54E
:1012100081F83D203C3103E081F8FD5101F5FE717C
:10122000087094F8BC03012808D084F8BC23206817
:1012300002F064FC84F8BC53002070BD022070BD35
:1012400070B5044601F00F006268904201D9012098
:1012500070BD0B0601F00F01C1EBC10104EB810170
:101260004FF001024FF0000503D581F83D203C31DD
:1012700003E081F8FD5101F5FE718D70087094F85E
:10128000BC03012808D084F8BC23206802F030FE9B
:1012900084F8BC53002070BD022070BD01F00F0126
:1012A000C1EBC10100EB8100D0F8140270472DE9B9
:1012B000F04104460F0601F00F00C0EBC00104EB43
:1012C00081014FF001064FF0000503D581F83D6024
:1012D0003C3103E081F8FD5101F5FE7108708A6030
:1012E000CB704A7802B1C880022B00D10D7194F8FE
:1012F000BC03012809D084F8BC63206802F05AFBC3
:10130000284684F8BC53BDE8F0810220FBE770B5A5
:101310000C4601F00F05C5EBC50100EB8101C1F8DA
:101320001032C1F808220023C1F8143281F8FD31CF
:1013300081F8FC51036901F5FE71012B00D10A61AE
:101340002207027C006803D002F02AFE002070BD54
:1013500002F016FDFAE770B504460D4601F00F00E5
:101360006168884201D9012070BD29064FF000064E
:101370004FF0010207D5C0EBC00104EB810181F8F9
:101380003D203C3107E0C5EBC50104EB810181F84C
:10139000FD6101F5FE718A70087094F8BC030128A4
:1013A00007D084F8BC23206802F0CEFD280702D0C5
:1013B00007E0022070BD217C04F57172206802F004
:1013C0006BFD84F8BC63002070BD70B50C4601F065
:1013D0000F05C5EBC50100EB81010B658A64002395
:1013E0004B65012381F83D3001F83C5F0369012B17
:1013F00000D10A612207027C006803D002F0D0FD10
:10140000002070BD02F0BCFCFAE700002DE9FC5F93
:1014100005680446284602F0ECFE00287ED12068CC
:1014200002F013FF002879D0206802F00EFF800739
:1014300004D52168486900F002004861206802F084
:1014400004FFC10604F57170009034D520688169ED
:1014500021F0100181612F6A07F00F00C0EBC0007E
:1014600004EB8006C7F3434006F5FE76022802D05F
:10147000062811D01AE047F6F070074216D0C7F3DD
:101480000A1217462846F16802F0E3FEF068384475
:10149000F060B069384408E008222846009902F05C
:1014A000D8FEB069C7F30A110844B06120688169A9
:1014B00041F010018161206802F0C7FE00034FF087
:1014C000010A4FF0080B5BD50026206802F09CFE55
:1014D0000746DFF8689351E0F8074DD0F1B2206875
:1014E00002F0ABFE8046C00707D005EB4611C1F8FD
:1014F00008AB3146204601F085FA5FEA087022D534
:1015000005EB4611C1F808BB2068016C00EB4610E2
:101510000191D0F8082B494507D900E08BE111046F
:1015200003D54FF40041C0F8081B204600F076FABE
:101530000198484507D92069012804D12068012174
:10154000009A02F0A9FC5FEAC86004D505EB4611D9
:101550001020C1F8080B5FEA886004D505EB46113E
:101560002020C1F8080B5FEA884005D505EB46103E
:101570004FF40051C0F8081B7F08761C002FABD138
:10158000206802F062FE40034FF000095CD520683D
:1015900002F033FE0746002654E0F80750D0F1B2BF
:1015A000206802F038FE8046C00723D006F00F0204
:1015B0000AFA02F0D5F834288243C5F8342805EB3E
:1015C0004610C0F808A9206901280FD1C6EBC60053
:1015D00004EB8000D0E911211144816436B9206DFB
:1015E00020B920680121009A02F056FCF1B2204691
:1015F000FFF7E9FD5FEA087003D505EB4611C1F876
:1016000008B95FEAC86004D505EB46111020C1F89F
:1016100008095FEA486004D505EB46114020C1F88F
:1016200008095FEA887004D505EB46110220C1F86D
:1016300008095FEA086003D53146204601F048FA00
:101640007F08761C002FA8D1206802F0FEFD00283C
:1016500011DAD5F8040820F00100C5F8040894F860
:10166000F403012829D0204600F0BCF92068416924
:1016700001F000414161206802F0E7FD00050BD553
:10168000D5F80808C00702D0204600F0EFF920681E
:10169000416901F400614161206802F0D6FDC00497
:1016A00068D5D5F8040820F00100C5F80408102119
:1016B000206802F07FFD002127E084F8F4930021E8
:1016C0002046FFF755FDD1E705EB41104FF67F327D
:1016D000C0F80829D0F8003923F40013C0F8003905
:1016E000D0F8003943F00063C0F80039C0F8082B87
:1016F000D0F8002B22F40012C0F8002BD0F8002BF9
:1017000042F00062C0F8002B491C60688842DBD8B8
:10171000D5F81C0840F00110C5F81C08206B60B11A
:10172000D5F8840840F00B00C5F88408D5F84408C3
:1017300040F00B00C5F844080CE0D5F8141842F24C
:101740002B000143C5F81418D5F8100840F00B0021
:10175000C5F81008D5F8000820F4FE60C5F80008A8
:10176000217C2068009A02F097FB2068416901F40F
:1017700080514161206802F068FD800415D5206821
:1017800002F058F9206802F027FDE06000F020FA2E
:101790000146227B206802F093FD204600F00CF900
:1017A0002068416901F400514161206802F04DFD5B
:1017B000000707D5204600F019F92068416901F0BB
:1017C00008014161206802F040FDC00208D50021F7
:1017D000204600F035F82068416901F4801141612C
:1017E000206802F032FD800208D50021204600F07A
:1017F0002BF82068416901F400114161206802F072
:1018000024FD400007D52046FFF7D9FC2068416938
:1018100001F080414161206802F017FD40070AD5C0
:1018200020684568680702D52046FFF7DFFC20687E
:10183000416829434160BDE8FC9F00000A30544FD5
:10184000D0F8040401F0F0BDD0F8040401F0FCBDB0
:101850002DE9F0418AB0040005D094F8BD03266854
:10186000002520B108E001200AB0BDE8F08184F82D
:10187000BC53204600F05EF8032084F8BD03F06BF3
:10188000C00500D42561206802F074FA04F110014B
:10189000282288466846FEF7C4FC94E80F0002F050
:1018A000D7F80226C8BB0021206802F0E0FC002027
:1018B00001270EE0C0EBC00104EB810181F83D700F
:1018C00001F83C0FC880CD708D60CD60401CC0B267
:1018D0004D6161688142EDD8002011E0C0EBC0018C
:1018E00004EB810181F8FD5181F8FC0181F8FF5181
:1018F000C1F80452C1F80852401CC0B2C1F81052DD
:1019000061688142EAD8282241466846FEF789FC90
:1019100094E80F0002F074F910B184F8BD63A2E7F7
:1019200084F8385084F8BD73206802F05BF9002019
:101930009AE7000010B586B0044614216846FEF709
:1019400089FC2068B0F1A04F2FD11948002102680E
:1019500042F001020260006800F0010005904FF4BF
:10196000C05000900220CDE90101032003900A201D
:10197000049069460F48FEF7D9FF0D48001D016825
:1019800041F0800101600A481430016841F480414F
:1019900001600068002200F4804005901146432059
:1019A000FFF7B4FB4320FFF7A3FB06B010BD000018
:1019B000303802400000024070B50446C06801257E
:1019C00070B1022801D0FEF79CFF2946D4F8040428
:1019D00001F0A6FDD4F80404BDE8704001F059BD43
:1019E0000025F2E7D0F8040401F080BDD0F804042B
:1019F00001F086BD10B5044690F8BC0301280BD059
:101A0000012084F8BC0384F83810206802F046FCFA
:101A1000002084F8BC0310BD022010BDD0F80424BF
:101A200000F57171104601F087BD10B504460068DD
:101A300094F8BC13012906D0012184F8BC13A16AD3
:101A4000012902D008E0022010BDA169012903D0BC
:101A5000816B41F480318163206802F095FB20683E
:101A600002F0B2F8002084F8BC0310BD10B50446A3
:101A7000D0F8040401F0A2FD2068D0F8001E41F067
:101A80000101C0F8001E206A002804D00248016845
:101A900041F00601016010BD10ED00E02DE9F047B6
:101AA0000E46050065D0DFF81481D8F80000F7B2C3
:101AB00000F00700B04207D288F80070D8F80000A4
:101AC00000F00700B04254D128683D4C810712D580
:101AD000400703D5206840F4E050206028780007D4
:101AE00003D5206840F4604020602068A96820F099
:101AF000F000084320602878C0072DD0304968687E
:101B00000839012812D0022813D0032811D00968FF
:101B1000890700292DDA216821F0030101432160A2
:101B2000FEF7FAFF814641F2883A0EE00968890320
:101B3000EFE709688901ECE7FEF7EEFFA0EB09018A
:101B4000514502D90320BDE8F0872068696800F09C
:101B50000C00B0EB810FEFD1D8F80010404601F037
:101B60000701B14207D90770006800F00700B042D2
:101B700001D00120E7E72878400705D52068E9680B
:101B800020F4E050084320602878000706D520683C
:101B9000296920F4604040EAC100206000F02EF87E
:101BA0002168084AC1F30311515CC8400649086026
:101BB00006480068FFF764FA0020C4E7003C0240D2
:101BC00008380240784D000808010020000100207C
:101BD00001480068704700000801002004480549DA
:101BE00000680968044AC1F38221515CC84070470B
:101BF0000801002008380240884D0008154810B53B
:101C0000006810F00C02144813D04110042A0FD0C1
:101C1000082A0ED10F4C241F2268236802F03F02CD
:101C20005B0207D52068C0F38810A0FB010106E025
:101C3000084610BD2168C1F38811A1FB00010023F3
:101C4000FEF7BEFA2168C1F30141491C4900B0FB0F
:101C5000F1F010BD083802400024F4002DE9F84FDF
:101C600004006ED02078DFF84C93C007A9F104057A
:101C70004AD009F104000168C1F38101012908D0AB
:101C80000068C0F3810002280AD1D9F800004002A0
:101C900006D52868800337D560680028E1D033E096
:101CA0006068B0F5803F10D0B0F5A02F286810D044
:101CB00020F480302860286820F480202860606844
:101CC000A8B1FEF729FF06460DE0286840F48030F1
:101CD000F4E740F480202860F7E700BFFEF71CFF20
:101CE000801B642873D828688003F7D50CE0FEF7C2
:101CF00013FF064605E000BFFEF70EFF801B6428B9
:101D0000F0D828688003F7D42078DFF8AC82800709
:101D10004FF0000A3ED5A748001D016811F00C0FD6
:101D200008D00068C0F3810002280BD1D9F8000068
:101D3000400207D42868800716D5E068012800D142
:101D400012E033E1E068B8B10120C8F80000FEF706
:101D5000E3FE064605E000BFFEF7DEFE801B02281C
:101D6000C0D828688007F7D52868216920F0F800D6
:101D700040EAC10028600DE0C8F800A0FEF7CCFEE4
:101D8000064604E0FEF7C8FE801B02281FD828681C
:101D90008007F7D42078000722D5864F87486169ED
:101DA000703771B101210160FEF7B6FE064604E00E
:101DB000FEF7B2FE801B022809D838688007F7D5E5
:101DC0000EE0C0F800A0FEF7A7FE064605E082E0A0
:101DD000FEF7A2FE801B02287DD838688007F7D462
:101DE0002078400768D5DFF8CCB100270BF13C0B19
:101DF000DBF80000C0000BD4DBF8001041F080518C
:101E0000CBF80010DBF80000012700F080500090B4
:101E10006B4E3068C00510D4306840F4807030607C
:101E2000FEF77AFE009005E0FEF776FE0099401A74
:101E3000022850D83068C005F6D55E4EA0686C36D2
:101E400001280FD00528306810D020F00100306044
:101E5000306820F004003060A068B8B1FEF75CFE86
:101E600000900FE0306840F00100F4E740F004001B
:101E70003060F7E7FEF750FE0099411A41F28830D2
:101E8000814266D830688007F4D50EE0FEF744FE44
:101E9000009007E0FEF740FE0099411A41F28830B9
:101EA000814256D830688007F4D42FB1DBF8001097
:101EB00021F08051CBF80010A069C8B33D49091D3D
:101EC0000968C1F3810102294AD00228504607D08F
:101ED000C8F8600000E03CE0FEF71EFE04463BE070
:101EE0004746C8F86000FEF717FE064605E000BF4B
:101EF000FEF712FE801B02282BD828688001F7D439
:101F0000D4E907010843A16A2E4A490802EB0141BE
:101F1000626A41EA8211084394F82C1040EA016198
:101F2000C9F8001001203866FEF7F6FD044606E009
:101F30003EE000BFFEF7F0FD001B022809D828682C
:101F40008001F7D534E000BFFEF7E6FD001B022854
:101F500002D90320BDE8F88F28688001F4D427E077
:101F60000128F7D0D9F80000E26900F4800191421D
:101F70001CD1226A00F03F01914217D147F6C0718F
:101F8000626A0140B1EB821F10D1A26A4FF0FF33A9
:101F900000F4403103EB5202B1EB024F06D194F84A
:101FA0002C1000F07060B0EB016F01D00120D1E780
:101FB0000020CFE70438024000004742800E47422D
:101FC000007000400000FFFF10B5401EB0F1807FA0
:101FD00001D3012010BD4FF0E02460610F21601794
:101FE00002F022FA0020A06107202061002010BD2D
:101FF000FEE701684A69D24352050FD46FF480624C
:102000004A61002140F8301F202242738173026927
:1020100042F0040202610173012070470020704702
:102020002DE9F84F0446006889460B9D01689846E3
:10203000174641F4806101602068016841F48071B5
:10204000016000954FF0011B0022594620460A9B73
:1020500000F0DEF84FF4007A40B120680068C00557
:1020600001D5C4F840A00320BDE8F88F216809F02D
:10207000FE0008612B46284920460A9A00F0FCF829
:10208000F0BB20684169806900902A4620460A9981
:1020900000F070F940B1206C04283AD12068016842
:1020A00041F40071016034E0FEB2B8F1010F09D0D3
:1020B0002168380A08612A4620460A9900F05AF930
:1020C0000028E8D1206806612A4620460A9900F0D7
:1020D00051F90028DFD12068016841F48071016066
:1020E00000950022594620460A9B00F091F80028EE
:1020F000B3D1216809F0FF0040F00100086100E061
:1021000007E02B46044920460A9A00F0B5F800285B
:10211000AAD00120A8E70000020001002DE9F84341
:10212000044600680D46DDE90897016898461646A2
:1021300041F4807101604B4600224FF001112046AE
:10214000009700F065F848B120680068C00502D526
:102150004FF4007020640320BDE8F883216805F087
:10216000FE0008613B464A461549204600F084F8C7
:1021700088B920684169806900903A4649462046FE
:1021800000F0F8F848B1206C042804D120680168F8
:1021900041F4007101600120DEE7F5B2B8F1010FF2
:1021A00009D02168300A08613A464946204600F0C5
:1021B000E1F80028E7D1206805610020CCE70000A5
:1021C0000200010070B516460D4604460DE020469B
:1021D000FFF70FFF08B1012070BD681C05D0FEF7A6
:1021E0009BFC801BA84207D835B120684069C043DA
:1021F0004007ECD4002070BD002044F8300F2021AF
:102200006173A073216941F0200121612073E2E72D
:102210002DE9F0471E4690460D460446C1F3074798
:10222000DDF8209008E0701C06D0FEF775FCA0EBEE
:102230000900B0420FD876B12068012F18D080690C
:1022400025EA00000004000C14D000214145EAD02A
:102250000020BDE8F087002044F8300F2021617392
:10226000A073216941F02001216120730120F0E772
:102270004069E5E70121E9E72DE9F0479A469146F3
:102280000E46044600254FF02008C1F3074725E01D
:1022900020684069C043400514D42068016841F4B7
:1022A0000071016021686FF480604861256384F8E3
:1022B0003D8084F83E50206C40F00400206484F897
:1022C0003C501FE0B9F1FF3F08D0FEF725FCA0EB22
:1022D0000A0149450CD8B9F1000F09D02068012F37
:1022E00013D0806926EA00000004000C0BD0CFE771
:1022F00044F8305F84F80D80A573206940F0200019
:10230000206125730120BDE8F0874069EAE72DE9E7
:10231000F041002590460E460446202717E040690C
:10232000C043C0060CD454F8301B6FF01000486155
:1023300044F810596777A577206A2062257717E05F
:10234000FEF7EAFBA0EB0800B04208D83EB12068D7
:102350004169C9434906E2D40020BDE8F08144F850
:10236000305F6773A573206940F0200020612573FA
:102370000120F2E770B516460D4604460DE02046F2
:10238000FFF737FE08B1012070BD681C05D0FEF7CD
:10239000C3FB801BA84207D835B120684069C04301
:1023A0000006ECD4002070BD002044F8300F20213E
:1023B0006173A073216941F0200121612073E2E77C
:1023C000F0B500230A24302537261F4611E000BF50
:1023D000B4EB107F02D905EB107C01E006EB107C1A
:1023E00001F813C001EB430C00015B1C8CF8017079
:1023F000DBB29342ECD3F0BD70B504462DED108BEB
:1024000082B0B0EE429AF0EE629AB0EE40FAF0EE90
:1024100060FA90ED08EB51EC110B53EC1E2BFDF71D
:10242000CCFF41EC100B51EC190B53EC102BFDF7CA
:10243000CAFF94ED061B53EC112BFDF71DFF94ED25
:1024400010DB41EC1A0B53EC1D2B51EC190BFDF773
:10245000BAFF0E4646EC100B94ED0CCB054653EC40
:102460001C2B51EC100BFDF7A8FF94ED0EBB53ECA9
:102470001B2BFDF7A2FF94ED001B53EC112BFDF776
:10248000FBFE53EC192BFDF79EFF94ED0A1B53EC5A
:10249000112BFDF7F1FE46EC105B41EC180B53ECF1
:1024A0001C2B51EC100BFDF78BFF46EC105B41EC45
:1024B0001C0B53EC1B2B51EC100BFDF781FF94ED23
:1024C000020B41EC1B0B53EC192B51EC100BFDF7DD
:1024D0007AFF53EC1D2BFDF7CFFE41EC100B51ECB6
:1024E000180B8DED000B94ED040B53EC102BFDF746
:1024F000C3FE41EC190B51EC180B53EC192BFDF7F3
:10250000D4FF41EC1D0B53EC192B51EC1B0BFDF7C9
:10251000CCFF41EC190B53EC1A2B51EC1F0BFDF7C0
:102520004CFF41EC1F0B51EC1D0B53EC1F2BFDF727
:102530004AFF53EC1A2BFDF79FFE41EC1A0B53ECAC
:102540001F2B84ED06AB51EC190BFDF73CFF53EC50
:102550001E2BFDF791FEC4E9080153EC182B51EC3A
:102560001D0BFDF730FF53EC182BFDF729FFC4E9D5
:102570000A0153EC1C2B51EC1D0BFDF724FF53EC0F
:102580001C2BFDF71DFFC4E90C0153EC182B51EC7B
:10259000190BFDF718FF53EC1B2BFDF711FFC4E9D6
:1025A0000E0153EC1C2B51EC190BFDF70CFF9DEDAC
:1025B000000B53EC102BFDF703FFC4E9100102B030
:1025C000B0EE4A0AF0EE6A0ABDEC108B70BD2DE940
:1025D000F04186B08046012504A8CDE900056424B9
:1025E0002B467522682102944046FEF75FFB9DF85A
:1025F0001000682803D0012006B0BDE8F081002754
:1026000003AE8DF80C700096CDE9015401236B22C6
:1026100068214046FEF746FC07208DF80C00009626
:10262000CDE901540123192268214046FEF73AFC06
:102630008DF80C700096CDE9015401231C2268210D
:102640004046FEF72FFC8DF80C700096CDE9015442
:1026500001231B2268214046FEF724FC0020CBE723
:102660002DE9F0470C462DED0C8B88B09FED9A9B21
:102670009FED9BDB9FED9CBB9FED9DAB64230E22EA
:1026800003A98DE80E0001233B226821FEF70EFB13
:10269000BDF80C0040BA00B22080BDF80E1049BA57
:1026A0000EB26680BDF8101049BA0DB2A580BDF813
:1026B000121049BA0FFA81FABDF8141049BA0FB2D4
:1026C0002784BDF8161049BA09B261848946BDF85D
:1026D000181049BA09B2A1848846FDF755FF9FED4D
:1026E000868B53EC182BFDF76EFEC4E902013046D1
:1026F000FDF74AFF53EC182BFDF765FEC4E9040112
:102700002846FDF741FF9FED7E1B53EC112BFDF793
:10271000CCFE00EE10AAB8EEC00A9FED7B1AC0EE08
:10272000010A9FED7A0AC4E90601384630EE800AB4
:1027300084ED100AFDF728FF9FED758B53EC182BE5
:10274000FDF7B3FEC4E90A014846FDF71DFF53EC4F
:10275000182BFDF7AAFEC4E90C014046FDF714FF53
:1027600053EC182BFDF7A1FEC4E90E01FEF7D4F9D6
:10277000694D2968401AFDF718FF9FED681B53EC5F
:10278000112BFDF792FE41EC1C0BFEF7C5F92860FA
:10279000208810FB00F1A08810FB0010FDF7F4FE6C
:1027A00041EC100B02F0BEF8B0EE408AF0EE608A09
:1027B00053EC192B51EC180BFDF704FF13D0B4F9AF
:1027C0000200FDF7E1FE53EC182BFDF76EFE41EC25
:1027D000100B01F039FE53EC1D2B51EC100BFDF7E3
:1027E000F2FD41EC190BB4F90400FDF7CDFE41EC0C
:1027F000180BB4F900004042FDF7C6FE41EC100B87
:10280000B0EE481AF0EE681A01F08AFF53EC1D2B67
:1028100051EC100BFDF7D7FD41EC180B53EC1B2BC3
:10282000FDF7D0FE08D294ED140B53EC1A2B51ECAB
:10283000100BFDF7DFFE0FD353EC1A2B51EC180BE6
:10284000FDF7D8FE11D294ED140B53EC1B2B51EC79
:10285000100BFDF7B7FE08D22F48503080ED068BE5
:1028600084ED148B94ED140B0FE02B4894ED0C1BAE
:10287000B0EE4C2AF0EE6C2AB0EE480AF0EE680A90
:102880005030FFF7B9FD84ED140B02F041F853EC22
:102890001A2B51EC100BFDF7ADFE07D294ED0A0B8D
:1028A00051EC100B81F00041C4E90A011A4894ED83
:1028B0000C1BB0EE4C2AF0EE6C2AB0EE490AF0EE9A
:1028C000690A0830FFF798FD84ED120B08B0BDECE3
:1028D0000C8BBDE8F0870000000000000000000045
:1028E000F8C1631ADCA54C4000000000008056C00F
:1028F0000000000000805640000000000000103F73
:10290000000000000029CC400000AA43B81E12427B
:102910000000000000606040000000200000000097
:1029200000408F400D4808B5016841F0800101600A
:10293000016801F080010091016841F0010101602E
:10294000016801F001010091016841F0020101609C
:10295000006800F00200009008BD0000303802401E
:102960000D4810B50B4901600C49416000214FF43E
:1029700080428160C0E9031241618161C1610162ED
:10298000FEF7D0F8002803D0BDE81040FDF7B9BF2E
:1029900010BD00000054004080020020A08601000D
:1029A00010B500220F49104800F03DFC08B1FDF7BA
:1029B000A8FF0E490C4800F029FE08B1FDF7A1FF61
:1029C0000B49094800F02DFA08B1FDF79AFF0648B7
:1029D00000F096FE002803D0BDE81040FDF791BF3F
:1029E00010BD000098000020D4020020E801002063
:1029F000E8000020FEE7FEE70148FEF707BD000003
:102A0000C41900202DE9F04103680D4604461E6CF0
:102A100003EB4511D1F8080BD4F810E04FF4004750
:102A20004FF0200C04F57172BEF1010F09D0DFF8F0
:102A300098E0764539D1020432D500BFC1F8087B51
:102A40003FE0224B5FEA007E04D59E4239D9000464
:102A5000F4D436E05FEA806E02D5C1F808CB30E0EE
:102A600010F0280F2DD19E4201D90004E6D4C5EB09
:102A7000C50004EB8000D1F8101BD0F80432C1F37C
:102A80001201591AC0F81412D0F808121944C0F8EB
:102A9000081295B9D4F8100278B9012120680AE02B
:102AA00080060AD5C1F808CB07E035B9D4F8100282
:102AB00018B90021184601F0EFF9E9B22046FEF7F7
:102AC0008BFB0020BDE8F0810A31544F0A30544F8F
:102AD0002DE9F84F0E46C1EBC60100EB810481469B
:102AE0000568D4E914103C34884202D90120BDE8BD
:102AF000F88F081AA168814200D20846C01C8708D6
:102B000005EB46181BE000BFA0EB010AA06850458A
:102B100000D282460AF10300870899F8100000905D
:102B20001FFA8AF3F2B22846E16801F03DFCE16841
:102B300001EB0A00E060A16901EB0A00A061D8F88E
:102B4000180980B2B84205D3D4E90501814201D207
:102B50000028D9D1D4E90501884208D806F00F0130
:102B600001208840D5F834188143C5F83418002076
:102B7000BDE7704770470178407841EA0020704710
:102B8000FEF75CBA30B593B030216846FDF762FBC2
:102B900014210CA8FDF75EFB1C480025016841F0DC
:102BA00080510160006800F0805011901848016861
:102BB00041F4804101600068022400F480401190DB
:102BC00001200090000401908001CDE9064004201E
:102BD0000890A820CDE9090407200B906846FFF76C
:102BE0003DF808B172B6FEE70F20CDE90C04802055
:102BF0000E904001CDE90F0502210CA8FEF74EFF13
:102C0000002801D072B6FEE713B030BD4038024054
:102C1000007000400248016841F470010160704793
:102C200088ED00E02DE9F0410C46D0F8C422D0F840
:102C3000BC12F9B104EB840300EB83050026AB69F9
:102C40004BB1C4EBC40702EB8702526CB3FBF2F743
:102C500002FB173282B1C1F81462D0F8C0020369D6
:102C60002BB1D1F80802224601F5047198470020E3
:102C7000BDE8F0810320FBE700231A462146AE6140
:102C800000F0A5FCF3E770B5D0F8BC4205466CB186
:102C900000F086FBC4F80C02D5F8C012D4F8040288
:102CA000CA6804F503719047002070BD032070BD11
:102CB00070B50446812100F0D2FA00252587012154
:102CC000204600F0CCFAA4F878518221204600F08A
:102CD000C6FAA4F84C50A4F84E50D4F8BC0248B13F
:102CE000D4F8C00204F52F7440688047206800F0D3
:102CF0005CFE2560002070BD10B5D0F8BC4284B1E8
:102D0000D0F8C01259B194F80002FF2807D08B68A0
:102D100094F8012221469847FF2084F80002002001
:102D200010BD032010BD00000A210180004870473B
:102D300010010020432101800048704760010020FD
:102D400043210180004870471C010020432101807D
:102D500000487047A40100202DE9F04704464FF4D5
:102D6000077000F023FE05004FF0000735D0C4F8CF
:102D7000BC52207C4FF010084FF40079012680B33C
:102D8000402302228121204600F06EFB268740234B
:102D900002220121204600F067FBA4F87861A4F824
:102DA0004E80082303228221204600F05DFBA4F818
:102DB0004C60D4F8C00200688047C5F81472C5F8AA
:102DC0001872207CD5F80422A8B1402301212046A6
:102DD00000F056FB0020BDE8F0870220C4F8BC726A
:102DE000F9E7FFE74B4602228121204600F03CFB39
:102DF00026874B46CCE74B46E8E710B5D0F8BC1227
:102E000051B1027C002AD1F8042207D040230121CD
:102E100000F036FB002010BD032010BD4FF40073FE
:102E2000F5E719B1C0F8C0120020704703207047C1
:102E3000D0F8BC0218B1C0F804120020704703207B
:102E40007047D0F8BC0228B1C0F81022C0F80812B0
:102E500000207047032070472DE9FC410646D0F85A
:102E6000BC7200200C468DF80000ADF80400054649
:102E700037B1207810F0600128D0202944D102E039
:102E80000320BDE8FC81E288C2B1000660780AD563
:102E9000D6F8C0128B6839469847E288072A00D9CD
:102EA0000722394628E087F80002A07987F8010256
:102EB000E2883946304600F06CF82AE0D6F8C012B5
:102EC000607800228B682146984722E0607830B114
:102ED00001281ED00A2809D00B2815D110E096F839
:102EE0009C02032810D1022201A905E096F89C0259
:102EF000032809D101226946304600F064F808E051
:102F000096F89C02032804D02146304600F036F89B
:102F100003252846B5E710B5D0F8BC12012219B137
:102F2000D1F8143213B10FE0032010BD0122C1F813
:102F30001422D1F81022C262D1F81032D1F808223E
:102F4000812100F044FB0022104610BD10B5D0F8DE
:102F5000B8220AB152689047002010BD134610B540
:102F60000A46002100F08CFA002010BD134610B56F
:102F70000A46002100F02BFB002010BD10B50446CE
:102F8000802100F009FB2046BDE81040002100F040
:102F900003BB10B50323C0F89432C0F85821134680
:102FA000C0F85C210A46002100F06AFA002010BD3A
:102FB00010B50521C0F8941200231A46194600F0F6
:102FC0005FFA002010BD10B50223C0F89432826170
:102FD0001346C2610A46002100F0F9FA002010BD34
:102FE00010B50421C0F8941200231A46194600F0C7
:102FF000EEFA002010BD000010B50A46024903A0F9
:1030000000F0E1F8004810BDA4050020434443202F
:10301000436F6E66696700001220088000487047A1
:10302000B800002010B50A46024903A000F0CBF812
:10303000004810BDA405002043444320496E746538
:1030400072666163650000000420088000487047D4
:10305000B400002010B50A46024903A000F0B3F8FE
:10306000004810BDA405002053544D6963726F657C
:103070006C656374726F6E696373000010B50A4605
:10308000024903A000F09FF8004810BDA4050020ED
:1030900053544D3332205669727475616C20436FFE
:1030A0006D506F727400000010B51A2008800A4835
:1030B0000168001D0468001D0068081809D0082276
:1030C0000649FFF77DF90549042210312046FFF734
:1030D00077F90248801E10BD107AFF1FCE00002035
:1030E000F8B504460020ADF8000048880D46010AF6
:1030F00008295FD2DFE801F05E0409175E5E3C45F7
:10310000D4F8B412207C0A6819E0207C022600283A
:10311000D4F8B80205D0C16A6846884701464670AF
:1031200039E0816AF8E7C0B2062843D2DFE800F050
:10313000030A1014181CD4F8B402426805E069466A
:1031400090471CE0D4F8B402826892B3207CF6E782
:10315000D4F8B402C268F8E7D4F8B4020269F4E71C
:10316000D4F8B4024269F0E7D4F8B4028269ECE71B
:10317000207CF0B9D4F8B802416B68468847014614
:1031800009E0207CA8B9D4F8B802016B68468847EA
:10319000014607204870EA888AB1BDF8000040B1B6
:1031A000824200D90246ADF800202046FFF70BFF0F
:1031B000F8BDFFE729462046FFF7E0FEF8E7204686
:1031C000FFF70EFFF4E770B5002300281ED000259E
:1031D000044602E06D1CEDB2641C2678002EF9D185
:1031E000022404EB450414801278CA545B1C0322A9
:1031F000CA5400245B1C06E0CA545B1CDAB28C542F
:10320000521CD3B2401C0278002AF5D170BD0100D7
:103210004FF0000004D0012901D0022901D0032081
:1032200070470120704778B10023C0F8B832C0F869
:10323000C032C0F8CC3209B1C0F8B412012180F814
:103240009C12027000F0B0B80320704710B5D0F89F
:10325000C402FDF7F5FFBDE81040FFF7D8BF10B579
:10326000D0F8C402FDF7C6FFBDE81040FFF7CFBF9E
:1032700070B51646044621B194F89C02032841D04B
:1032800048E0D4F8941204F114000025022932D148
:10329000D0E902318B4206D95A1A82603146204663
:1032A000FFF764FE0FE0994214D14068884211D3C1
:1032B000D4F8981288420DD2002211462046FFF71A
:1032C00055FEC4F8985200231A461946204600F0CD
:1032D000D7F810E094F89C02032805D1D4F8B8027E
:1032E000C16809B1204688478021204600F054F982
:1032F0002046FFF75DFE94F8A00201280AD184F869
:10330000A05207E0D4F8B80242691AB120469047AB
:10331000002800D1002070BD10B51346044621B12D
:1033200094F89C02032823D02AE0D4F8941204F5E0
:10333000AA70032924D1D0E9021291420AD98A1A2B
:103340008260C068824200D3024619462046FFF7D9
:1033500005FE15E094F89C02032805D1D4F8B802C4
:10336000016909B1204688472046FFF739FE07E08A
:10337000D4F8B80282691AB120469047002800D1DB
:10338000002010BD0020704710B5012180F89C126C
:10339000D0F8B82212B1526801799047002010BDD0
:1033A000D0F8C402FDF77ABF10B5017839BB1549D2
:1033B0000222C1F80404C0F8C4124FF0A040086013
:1033C000042048600020C1E90320C1E9062008620A
:1033D0004862C86208630846FEF73AFA08B1FDF78A
:1033E00090FA80210748FDF7C4FE402200210548DD
:1033F000FDF7C3FE802201210248FDF7BEFE00203A
:1034000010BD0000C41900200A0601F07F01D0F8A9
:10341000C402C1EBC10100EB810002D590F83E006F
:10342000704790F8FE01704710B5D0F8B82222B16D
:1034300090F89C32032B02D004E0032010BD126AE6
:1034400002B19047002010BD10B5D0F8B82222B1CB
:1034500090F89C32032B02D004E0032010BD526A86
:1034600002B19047002010BD10B51C461346D0F89D
:10347000C4022246FDF71BFFBDE81040FFF7C7BEA0
:1034800010B5D0F8C402FDF742FFBDE81040FFF7C9
:10349000BEBE70B50125044680F89C520020C4F8D9
:1034A00094026060C4F8A402D4F8B802E0B1D4F881
:1034B000BC1221B1426812B100212046904700227F
:1034C000402311462046FFF7CFFF4026A4F8645161
:1034D0003346002280212046C4F86061FFF7C4FF14
:1034E000A5840020266270BD032070BD90F89C1258
:1034F000042903D190F89D1280F89C120020704797
:1035000010B5D0F8B81221B190F89C22032A02D04D
:1035100004E0032010BDC96901B18847002010BD37
:1035200001740020704710B5D0F8C402FEF762FAAB
:10353000BDE81040FFF76BBE70B5044600F2AA204C
:10354000054600F04DF80120C4F89402B4F8B0022A
:10355000C4F8980294F8AA0210F01F010AD00129B9
:103560000ED0022912D000F080012046BDE8704044
:1035700000F012B829462046BDE8704000F0C2B8FD
:1035800029462046BDE8704000F0E6B929462046AD
:10359000BDE8704000F040B910B5D0F8C402FDF7A6
:1035A000DAFEBDE81040FFF732BE10B5D0F8C40215
:1035B000FEF73BFABDE81040FFF729BE90F89C12D9
:1035C00080F89D12042180F89C120020704710B5ED
:1035D000D0F8C402FDF7F9FEBDE81040FFF717BEB2
:1035E00070B5054611F8010B2870087868704C1CFE
:1035F0002046FFF7C0FA6880A41C2046FFF7BBFAFC
:10360000A880A01CFFF7B7FAE88070BD38B5044663
:103610000020ADF8000049B1C4F8B812C96A19B168
:1036200068468847C4F8CC02002038BD032038BD66
:1036300002460320D2F8B832002B02D01B68104695
:10364000184770472DE9F0410F462C4E8978002528
:1036500004463170012906D939462046FFF78EFC11
:103660000320BDE8F08194F89C0202280CD00328C6
:103670001DD039462046FFF781FC31782046FFF700
:1036800065FC03252846ECE799B320466160FFF707
:10369000CFFF050004D039462046FFF76FFCF1E765
:1036A0002046FFF79DFC032084F89C02EAE74FF0D8
:1036B0000208C1B1606888421BD0C1B22046FFF742
:1036C00045FC317820466160FFF7B2FF050010D05D
:1036D00039462046FFF752FC21792046FFF736FC99
:1036E00084F89C82CEE784F89C8220466160FFF7D4
:1036F0002DFC2046FFF774FCC4E700000C010020FD
:10370000FFF753BF2DE9F0410A78002512F060025F
:1037100008D0202A01D0402A71D1D0F8B82292686E
:10372000904731E04B78002201260A2B67D2DFE870
:1037300003F0415E6658660805662D29FFF7D0FC48
:103740005FE004468888D8B9C888C8B94888802806
:1037500016D200F07F0794F89C02032810D084F85A
:103760009E7239462046FFF7DEFE2046FFF738FC02
:103770001FB1022084F89C0243E084F89C6240E080
:1037800020463CE0FFF75EFF05463AE0CB88012B80
:1037900035D190F89C32012B04D0022B02D0032BA0
:1037A0002DD104E08260012200F1080116E001221F
:1037B000011D13E090F89C22012A03D0022A01D0B7
:1037C000032A1CD1CA88022A19D1C660D0F8A412D3
:1037D00009B10321C160022200F10C01FFF7F3FBE4
:1037E0000FE0498801290CD1C0F8A46211E090F8DB
:1037F0009C32012B08D0022B06D0032B04D0FFF7FC
:10380000BDFB2846BDE8F08149880129F9D1C0F8FF
:10381000A422FFF7E5FBF4E72DE9F0410D4604464D
:1038200028780026097910F060000BD0202801D0FC
:1038300040286DD1D4F8B8022946826820469047C6
:10384000064686E06878A8B3012822D003287CD1F8
:1038500094F89C02022802D0032876D10BE00029BC
:1038600073D0802971D02046FFF796FE8021204634
:10387000FFF792FE6DE0688838B931B1802904D035
:10388000E88810B92046FFF787FE2046FFF7A8FB1F
:103890005FE094F89C020228E1D0032855D16888A3
:1038A000A8BB480602D02046FFF7D0FC2046FFF711
:1038B00097FBBFE7FFE794F89C020027022802D09D
:1038C000032842D111E009B180293ED1080601F058
:1038D0007F0000EB800004EB800101D5143101E092
:1038E00001F5AA7102220F602BE0080601F00F001B
:1038F00000EB800004EB80000BD5808C40B101F020
:103900007F0000EB800004EB800514350CE020E024
:103910001BE0B0F86401C0B101F07F0000EB800053
:1039200004EB800505F5AA7541B1802906D0204633
:10393000FFF76AFD10B10120286000E02F6002222D
:1039400029462046FFF73FFB03E029462046FFF7C4
:1039500015FB3046BDE8F08170B5064608780024B6
:103960000D4610F0600003D0202801D0402817D168
:1039700096F89C02012803D0022801D003280FD119
:10398000287901280CD8D6F8B802826830469047CA
:103990000446E888204306D13046FFF721FB02E0C9
:1039A0003046FFF7EBFA204670BD7047004870477D
:1039B000A417002070B50A78012302F00F054E7895
:1039C000AB401B4CD0F81C58012E17D045EA0343DE
:1039D000C0F81C3800EB4210D0F8002B12040BD4B6
:1039E000D0F8002B0B89C978C3F30A031A4344EAC1
:1039F00081410A43C0F8002B002070BD9BB21D43DB
:103A0000C0F81C5800EB4210D0F800391B04F3D466
:103A1000D0F800390D89C978C5F30A0589042B430C
:103A200041EA82510B432343C0F80039E4E7000028
:103A300000800010D0F800196FF30A01C0F80019D7
:103A4000D0F8041841F48071C0F8041800207047C1
:103A500070B5044606990A9E049D0D98012916D05A
:103A6000E06840F04000E060204600F02BF8A16BD9
:103A70001EB321F48031A163012D07D1A16841F06B
:103A80000601A160A16841F02001A16070BDA16B99
:103A900021F48031A163E168094A1140E160E168E5
:103AA00021F44011E160012803D1E06840F4801066
:103AB000E060204600F006F8DEE741F48031DAE706
:103AC000BFFFBDFF01220C4902E0521C8A420BD805
:103AD0000369002BF9DA026942F001020261012256
:103AE00004E0521C8A4201D9032070470369DB07B6
:103AF000F7D1002070470000400D030030B54C782E
:103B00000A78012300EB4212012C2CD0D2F8004B92
:103B1000002C0BDAD2F8004B44F00064C2F8004BE2
:103B2000D2F8004B44F08044C2F8004BD0F83C5827
:103B30000C7804F00F0403FA04F425EA0444C0F8F6
:103B40003C48D0F81C48097801F00F018B4024EA6A
:103B50000341C0F81C18D2F8000B19490840C2F8FC
:103B6000000B002030BDD2F80049002C0BDAD2F84F
:103B7000004944F00064C2F80049D2F8004944F01A
:103B80008044C2F80049D0F83C480D7805F00F0594
:103B900003FA05F5ADB2AC43C0F83C48D0F81C4878
:103BA000097801F00F018B4099B28C43C0F81C4892
:103BB000D2F8000903490840C2F80009D1E7000023
:103BC0000078F3EF007833ECD0F8001E21F0030109
:103BD000C0F8001ED0F8041821F00201C0F8041843
:103BE00000207047D0F8001E21F00301C0F8001E2D
:103BF000D0F8041841F00201C0F804180020704702
:103C00002DE9F04F00250E460446DDF82CC0DDF806
:103C100024B0109F2846294604EB8002C2F8041104
:103C2000401C0F28F8D32046C7B1806B20F4001247
:103C3000A263A06B40F40022A26308468846C4F841
:103C4000000ED4F800182046C4F80018BCF1010F8B
:103C500016D0D0F8001841F0030116E0D0F804089F
:103C600040F00202C4F80428A06B40F40012A263E2
:103C7000A06B20F40022A263A06B20F48022DBE77B
:103C8000D0F800180BB141F00101C0F80018102164
:103C900000F090FA00B10125204600F07BFA00B157
:103CA00001254046C4F81088C4F81488C4F81C885C
:103CB00000214FF000694FF0904A4FF67F3314E037
:103CC00004EB4112D2F800C9BCF1000F06DA11B1C1
:103CD000C2F800A904E0C4F8009901E0C2F80009A4
:103CE000C2F81009C2F80839491C8E42E8D80021F0
:103CF00015E000BF04EB4112D2F800CBBCF1000F7D
:103D000006DA11B1C2F800AB04E0C4F8009B01E090
:103D1000C2F8000BC2F8100BC2F8083B491C8E42D7
:103D2000E8D8D4F8101821F48072C4F81028A061E3
:103D30006FF080406061BBF1000F03D1A06940F0DB
:103D40001000A061A06909490843A0610C9818B14E
:103D5000A06940F00800A061012F03D1A0690449C7
:103D60000843A0612846BDE8F08F000000383C8081
:103D700004000040816821F001018160002070474B
:103D800070B50D784E78434CEBB200EB4313012E27
:103D90001FD0D3F8100B6FF31200C3F8100BD3F839
:103DA000100B2040C3F8100B486908B188684861BF
:103DB000D3F8100B40F40020C3F8100BD3F8100B0D
:103DC0008C68C4F312042043C3F8100B012A55D0A9
:103DD00058E04E69002ED3F8106932D06FF3120606
:103DE000C3F81069D3F810692640C3F810694E690A
:103DF0008C68A64200D94C61D3F8104944F40024E1
:103E0000C3F81049D3F810494E69C6F3120634437B
:103E1000C3F81049012A22D000EB4512D2F800392C
:103E200043F00443C2F800394A6932B3D0F8342869
:103E3000097801F00F03012199400A43C0F83428A2
:103E400026E02640C3F81069D3F8104944F4002452
:103E5000C3F81049D3F810496FF31204D8E7096981
:103E600019B100EB4512C2F8141900EB4510D0F857
:103E7000001941F00441C0F8001909E0C86808B110
:103E8000C3F8140BD3F8000B40F00440C3F8000B48
:103E9000002070BDFFFF07E010B5036C134CA34278
:103EA00003D9D0F8003B002B1EDB0023C0F8103BE9
:103EB000D0F8103B43F40023C0F8103BD0F8103B7F
:103EC00043F01803C0F8103BD0F8103B43F0C04358
:103ED000C0F8103B012907D1C0F8142BD0F8001B03
:103EE00041F08021C0F8001B002010BD0A30544F63
:103EF0004A780B78012A00EB43100BD0D0F8002B46
:103F000022F40012C0F8002BC978032914D002292A
:103F100012D017E0D0F8002922F40012C0F80029CE
:103F2000C978032901D002290CD1D0F8001941F039
:103F30008051C0F8001905E0D0F8001B41F0805115
:103F4000C0F8001B002070470A784B78D1B200EB14
:103F50004110012B12D0D0F8001B002906DB2AB13A
:103F6000D0F8001B21F08041C0F8001BD0F8001BE6
:103F700041F40011C0F8001B00207047D0F8001970
:103F8000002906DB2AB1D0F8001921F08041C0F8E1
:103F90000019D0F8001941F40011C0F80019EBE73E
:103FA000F8B50C784F78774DE3B26FF0604600EBD0
:103FB0004313012F26D0D3F8104B6FF31204C3F82C
:103FC000104BD3F8104B2C40C3F8104B4C69002C0D
:103FD00074D08D682C44641EB4FBF5F4D3F8105BE8
:103FE000A4B206EAC4463543C3F8105BD3F8105BAD
:103FF0008E686643C6F312042543C3F8105B012A9A
:1040000071D0A6E04F691FB3D3F810796FF3120790
:10401000C3F81079D3F810792F40C3F810794F699D
:104020008D682F447F1EB7FBF5F506EAC545D3F82A
:1040300010693543C3F81059D3F810594E69C6F3C7
:1040400012063543C3F81059CD78012D10D01BE06E
:10405000D3F810692E40C3F81069D3F8105945F40D
:104060000025C3F81059D3F810596FF3120509E071
:10407000D3F8105925F0C045C3F81059D3F810599A
:1040800045F00055C3F81059012A18D000EB44132D
:10409000D3F8004944F00444C3F80049CC78012C1B
:1040A0002FD04A6962B3D0F83428097801F00F03A1
:1040B000012199400A43C0F8342860E036E00A69DB
:1040C0001AB100EB4413C3F81429C97801290FD1A0
:1040D000D0F80818C90500EB4411D1F8002903D421
:1040E00042F0005202E030E042F08052C1F8002974
:1040F00000EB4410D0F8001941F00441C0F8001959
:104100003DE0D0F80848E405D3F8004902D444F073
:10411000005401E044F08054C3F8004900928A8AB8
:1041200093B20A78C96800F03FF928E0D3F8104B41
:104130008D68C5F312052C43C3F8104BD3F8104B10
:1041400044F40024C3F8104B59E7CA680AB1C3F815
:10415000142BC97801290CD1D0F80808C005D3F870
:10416000000B02D440F0005001E040F08050C3F852
:10417000000BD3F8000B40F00440C3F8000B002004
:10418000F8BD0000FFFF07E0816841F00101816098
:1041900000207047002110220261054A491C91420B
:1041A00001D9032070470369DB06F7D4002070476C
:1041B000400D03000022202343EA811101610549DB
:1041C000521C8A4201D90320704703699B06F7D429
:1041D00000207047400D0300D0F8080810F00600DA
:1041E00004D0022803D0062801D00F2070470220F7
:1041F0007047406900F001007047D0F81818D0F8F7
:104200001C08084080B27047D0F81818D0F81C0875
:104210000840000C704710B5D0F81038D0F834289A
:1042200001F00F0400EB4110E24002F00102D0F86F
:10423000080943EAC212104010BD00EB4111D1F849
:10424000081BD0F81408084070474169806908408D
:104250007047D21C10B59308002200F5805002E090
:104260000468521C10C19A42FAD3084610BD10B51A
:10427000C26822F0C042C260012902D029B10120E7
:1042800010BDC16841F0005102E0C16841F08041B9
:10429000C1603220FCF738FB002010BDD0F80028A8
:1042A00022F4FE62C0F80028D0F800284FF4FE6324
:1042B00003EA01110A43C0F80028002070470000FB
:1042C000022A3ED1264A274B0A449A4201D20F21A4
:1042D00038E0254A254B0A449A4201D20E2131E0AA
:1042E000234A244B0A449A4201D20D212AE0224A51
:1042F000224B0A449A4201D20C2123E0204A214B4E
:104300000A449A4201D20B211CE01F4A1F4B0A4467
:104310009A4201D20A2115E01D4A1E4B0A449A42D4
:104320000FD31D4A1D4B0A449A4201D2082109E0CD
:104330001B4A11441B4A914201D2072102E0062187
:1043400000E00921C26822F47052C260C2684FF4D2
:10435000705303EA81210A43C260002070470000C5
:10436000405327FF00350C00401E1BFF40420F004A
:1043700000DC0BFF804F1200808CF9FE20D613006A
:1043800060B6E5FE60E3160000D3CEFE40771B006A
:10439000C05BB3FEC091210000CA91FE20753800B9
:1043A000E05459FEE09C410010B5029C64B9DB1C4E
:1043B0009C0800EB0230002300F5805002E004C9A5
:1043C00002605B1CA342FAD3002010BDFEE7000090
:1043D0000FB4084B10B504A902AA039800F096FB8D
:1043E000044602A9002000F03BFC204610BC5DF80A
:1043F00014FB0000614C000803B4019841000098D0
:1044000050EAC12018BF04204A0D18BF40F0010037
:1044100040F2FF72B2EB515F08BF40F0020001288A
:1044200008BF052002B070470907090E002804DB09
:1044300000F1E02080F80014704700F00F0000F158
:10444000E02080F8141D704770B59B482DED020BDD
:104450002DED068B079D25F00044A04218DC9748FF
:10446000844202DC0AD1069840B19DED060BBDECFA
:10447000068B02B0BDE8704000F00DBB002DCCBF34
:104480009FED8F0B9FED900BBDEC068B02B070BDC6
:104490008F48A04215DD8F48A042D8BF4FF0FF34AF
:1044A00058DD9DED060B51EC100BFFF7A5FF04281E
:1044B00008BF00F005FB9DED060BBDEC068B02B0BE
:1044C00070BD9DED060B51EC100B00F0D6FBCDE955
:1044D000060181489FED828BA0423CDD8248A042CC
:1044E0001FDD00249FED82AB9DED060B53EC1A2BD4
:1044F00051EC100BFBF7C0FE9DED060B41EC190BC8
:1045000053EC1A2B51EC100BFBF75DFF53EC182BFF
:10451000FBF753FF53EC192BFBF7C7FFCDE906015F
:1045200049E09DED060B012453EC182B51EC100BC8
:10453000FBF7A2FE9DED060B41EC190B53EC182B7B
:1045400051EC100BFBF739FF53EC192BFBF7ADFFC8
:10455000CDE906012FE06848A0421FDD02249FED4F
:10456000689B9DED060B53EC192B51EC100BFBF7E0
:104570002AFF53EC182BFBF77FFE9DED060B41EC59
:10458000180B53EC192B51EC100BFBF716FF53ECE7
:10459000182BFBF78AFFCDE906010CE09DED060B19
:1045A000032453EC102B9FED580B51EC100BFBF731
:1045B0007CFFCDE906019DED060B53EC102B51EC71
:1045C000100BFBF700FF41EC180B53EC182BFBF71B
:1045D000FAFE41EC190B4E480621B0EE490AF0EE06
:1045E000690A784400F0DBF953EC182B51EC100BFE
:1045F000FBF7E9FE41EC180B4648B0EE490AF0EE35
:10460000690A0521784400F0CAF953EC192B51ECE2
:10461000100BFBF7D8FE41EC100B51EC180B53ECD0
:10462000102B002C0EDAFBF727FE9DED061B53EC3A
:10463000112BFBF7C8FE9DED061B53EC112BFBF76E
:10464000BFFE35E0FBF718FE9DED061B53EC112B6A
:10465000FBF7B9FE41EC100B2F48784400EBC40087
:1046600090ED001B51EC100B53EC112BFBF7A5FE4A
:104670009DED061B53EC112BFBF79FFE41EC100B3D
:104680002648784400EBC40090ED001B51EC100B61
:1046900053EC112BFBF794FE41EC100B002DA2BF45
:1046A000BDEC068B02B070BD51EC100B81F00041E7
:1046B00041EC100B01E70000000010440000F07F07
:1046C000182D4454FB21F93F182D4454FB21F9BF08
:1046D0000000DC3F0000203E0000F33F000000002F
:1046E000000000000000F03F0000E63F0000000076
:1046F00000000000000000400080034000000000B7
:10470000000000000000F83F000000000000F0BFC3
:1047100012080000C8070000520700000A07000046
:1047200070B56B4E2DED040B2DED028B82B0DDF8D4
:104730001CC0DDE905235C422CF000411C4341EA2A
:10474000D474049D22F00040B44205D86C422C433E
:1047500040EAD474B4420BD99DED061B9DED040BC9
:1047600002B0BDEC028B04B0BDE8704000F09DB912
:10477000ACF14054A4F17F641C430BD0022404EA42
:10478000AC7444EAD27405439FED538B9FED542BD8
:1047900007D015E09DED040B51EC100B00F065FA0D
:1047A00042E0002C11BF012C9DED040B02B0BDECCA
:1047B000028B04BF04B070BD022C38D0032C3BD058
:1047C0000B439FED491B9FED4A0B0AD0B14218D114
:1047D000B04209D121F0804120F08040079105903E
:1047E0000FE0002A15DA10E0434B7B44002C08BF91
:1047F00093ED000B0DD0012C10D0022C17D0032C00
:104800001AD0B0421DD1002A03DAB0EE410AF0EE10
:10481000610A02B0BDEC028B04B070BD93ED000BD9
:1048200051EC100B81F0004141EC100BF1E7B0EEC0
:10483000480AF0EE680AECE7B0EE420AF0EE620ACF
:10484000E7E7401A00153C28C8BF8DED000B19DCC6
:10485000BCF1000FBEBF10F13C0F9FED290B8DED99
:10486000000B0FDB9DED060B53EC102B9DED040BA5
:1048700051EC100BFBF719FE00F0FFF900F0F5F911
:10488000CDE90001002C08BF9DED000BC1D0012C2B
:1048900010D0022C9FED1C0B53EC102B9DED000B48
:1048A00051EC100B0DD0FBF788FD53EC182BFBF7E8
:1048B00084FDB9E7019880F0004001909DED000B68
:1048C000A7E7FBF77AFD53EC182BFBF779FDABE775
:1048D0000000F07F00000000182D4454FB21094027
:1048E000182D4454FB2109C0182D4454FB21F9BF55
:1048F000182D4454FB21F93F3A0600000000000047
:104900000000000000000000075C143326A6A13C54
:104910002DED020B019820F0004001909DED000B61
:1049200002B0704700B52DED048BB0EE409AF0EE6A
:10493000609A83B051EC190BFBF718FF41EC180B90
:1049400018EE100A18EE901A8DED008B002818BF93
:104950000120084320F00040C0F17F6000F1E040FA
:10496000C00F14D019EE101A19EE900A8DED009BAD
:10497000002918BF0121084320F00040C0F17F60EA
:1049800000F1E040C00F04BF012000F0B9F8B0EE24
:10499000480A03B0F0EE680ABDEC048B00BD70B5A8
:1049A00004462DED028B4D1E00EBC500B0EE408A93
:1049B000F0EE608A90ED000B35F0060017D053EC56
:1049C000182B51EC100BFBF7FEFC41EC100B6D1E8D
:1049D00004EBC50090ED001B51EC100B53EC112BB8
:1049E000FBF74AFC41EC100B35F00600E7D1022D35
:1049F00036D0042D1CD0062D1CBFBDEC028B70BD23
:104A000053EC182B51EC100BFBF7DDFC94ED0A1B5B
:104A100053EC112BFBF730FC53EC182BFBF7D3FCBA
:104A200094ED081B53EC112BFBF726FC41EC100B0B
:104A300053EC182B51EC100BFBF7C5FC94ED061B47
:104A400053EC112BFBF718FC53EC182BFBF7BBFCBA
:104A500094ED040B53EC102BFBF70EFC41EC100B08
:104A600053EC182B51EC100BFBF7ADFC94ED021B33
:104A700053EC112BFBF700FC53EC182BFBF7A3FCBA
:104A800094ED001B53EC112BFBF7F6FBBDEC028BF6
:104A900041EC100B70BD10B553EC102B51EC100B0A
:104AA000FBF7EAFB41EC100B10BD10B553EC112BDA
:104AB00051EC100BFBF7E0FB41EC100B10BD0000BC
:104AC0009FED050B10B553EC102B51EC100BFBF7C1
:104AD0007AFC41EC100B10BD00000000000000103B
:104AE00002E008C8121F08C1002AFAD170477047B7
:104AF000002001E001C1121F002AFBD17047000015
:104B00000149086070470000200200202DE9FF4F96
:104B100089B09B460446002506E025280BD05A465E
:104B20000B999047641C6D1C20780028F5D10DB0BE
:104B30002846BDE8F08F0027B8460122474900E02B
:104B4000074314F8013F203B02FA03F00842F7D173
:104B500020782E2819D114F8010F47F004072A28CD
:104B60000ED06FF02F022078A0F1300109290CD867
:104B700008EB880102EB410100EB0108641CF2E73D
:104B80000A98641C50F8048B0A9020780028CED034
:104B9000642808D0692806D075281ED05A460B997B
:104BA00090476D1C58E00A994FF00A0901C90A9113
:104BB000002802DA40422D2102E0390504D52B21DC
:104BC0008DF82010012103E0F90704D02021F7E738
:104BD0008A4608AE0DE00021FAE70A994FF00A096B
:104BE00001C90A91F7E74946FBF71CFD303106F889
:104BF000011D0028F7D1ADEB060000F12009780770
:104C000001D44FF00108C84502DDA8EB090000E01F
:104C100000208046002706E008A85A46C05D0B9990
:104C200090476D1C7F1C5745F6DB04E030205A4648
:104C30000B9990476D1CB8F10001A8F10108F5DC53
:104C400005E016F8010B5A460B9990476D1CB9F117
:104C50000001A9F10109F4DC641C65E709280100E1
:104C60000A68531C0B601070704710B541EC100BB4
:104C7000FFF7EAFB51EC100B10BD82B0CDE900014B
:104C800021F0004001909DED000B02B051EC100BA3
:104C9000704700008AB0242101A8FBF7DBFAFCF77B
:104CA000D5F9FDF76FFFFDF73DFEFDF759FEFDF766
:104CB00077FE1C48FDF78BFC1B491A48FDF7D0FC1A
:104CC00033461A4619A101A80095FFF781FB01A8F8
:104CD000FBF7CBFA81B201A8FBF7FCFD6420FBF7E0
:104CE00013FE33461A4618A101A80094FFF770FB83
:104CF00001A8FBF7BAFA81B201A8FBF7EBFD64202B
:104D0000FBF702FE324617A101A8FFF761FB01A8DD
:104D1000FBF7ABFA81B201A8FBF7DCFD6420FBF7DF
:104D2000F3FDC9E780020020280200204178203DE1
:104D3000202564202C4179203D2025642C20417AB7
:104D4000203D2025640D0A004778203D2025642061
:104D50002C4779203D2025642C20477A203D2025B2
:104D6000640D0A0054656D7065726174757265201A
:104D70003D202564200D0A00000000000000000016
:104D800001020304060708090000000001020304F1
:104D90004FBB610567ACDD3F182D4454FB21E93F53
:104DA0009BF681D20B73EF3F182D4454FB21F93F42
:104DB000E2652F227F2B7A3C075C143326A6813CC8
:104DC000BDCBF07A8807703C075C143326A6913C73
:104DD000C4EB98999999C9BF711623FEC671BCBFDF
:104DE0006D9A74AFF2B0B3BF9AFDDE522DDEADBF47
:104DF0002F6C6A2C44B4A2BF0D5555555555D53F5F
:104E0000FF8300922449C23F6E204CC5CD45B73F79
:104E1000513DD0A0660DB13FEB0D76244B7BA93FF1
:104E200011DA22E33AAD903F0000000000000000DC
:104E3000504E000800000020240200003408000842
:104E40002C4F000824020020AC5B0000F04A000850
:104E5000B136E04D62503F2DC0749368082DE0518B
:104E6000B89E0801300943481319301B0849041A39
:104E700055041A7D041AA90413F92F1B08250817D5
:104E8000040309041201140202021640830440576D
:104E9000260201020301031A1A031395081B089145
:104EA000041A8D041AB9041AD1041933118210534B
:104EB00024F4130A0632022A401C1C0902435B1127
:104EC00025C03209041B01020B130524161001052D
:104ED0002401100901042402020524061701070514
:104EE0008203081C10090491320A1D0705010243C0
:104EF0002C070581070938442A40072A8107112B0E
:104F00000907440A3B044413592D1408B12C140812
:104F1000592E42081AF90C1A25041A8704C11A419D
:0C4F2000281A35041A4D041A2904410017
:040000050800018965
:00000001FF
