:020000040800F2
:10000000C85C00209D010008D71E0008B91D00082B
:10001000D51E00087D060008AD380008000000006D
:100020000000000000000000000000005520000853
:1000300001070008000000005320000861200008AC
:10004000B7010008B7010008B7010008B7010008B0
:10005000B7010008B7010008B7010008B7010008A0
:10006000B7010008B7010008B7010008B701000890
:10007000B7010008B7010008B7010008B701000880
:10008000B7010008B701000849050008B7010008DA
:10009000B7010008B7010008B7010008B701000860
:1000A000B7010008B7010008B7010008B701000850
:1000B000B7010008B7010008B7010008B701000840
:1000C000B7010008B7010008B7010008B701000830
:1000D000B7010008B7010008B7010008B701000820
:1000E000B7010008B7010008B7010008B701000810
:1000F000B7010008B7010008B7010008B701000800
:10010000B7010008B7010008B7010008B7010008EF
:10011000B7010008B7010008B7010008B7010008DF
:10012000B7010008B7010008B7010008B7010008CF
:10013000B7010008B7010008B7010008B7010008BF
:10014000B7010008B7010008B7010008D91E000870
:10015000B7010008B7010008B7010008B70100089F
:10016000B7010008B7010008B7010008B70100088F
:10017000B7010008B7010008B7010008000000003F
:10018000B7010008B7010008DFF80CD000F09EF9B5
:1001900000480047793A0008C85C002006488047BC
:1001A00006480047FEE7FEE7FEE7FEE7FEE7FEE75C
:1001B000FEE7FEE7FEE7FEE7F520000889010008FC
:1001C0002DE9F05F0546002092469B46884606468C
:1001D000814640241BE0284641464746224600F01F
:1001E00008F953465A46C01A914110D31146184691
:1001F000224600F0EFF82D1A67EB01084F46224621
:100200000120002100F0E6F817EB00094E41201E06
:10021000A4F10104DFDC484631462A464346BDE8E6
:10022000F09F40EA01039B0703D009E008C9121FB1
:1002300008C0042AFAD203E011F8013B00F8013BA0
:10024000521EF9D27047D2B201E000F8012B491ECC
:10025000FBD270470022F6E710B513460A46044663
:100260001946FFF7F0FF204610BD421C10F8011B95
:100270000029FBD1801A70472DE9FE4F81EA030463
:1002800004F0004421F0004100944FF0000B23F0F3
:10029000004350EA01045ED052EA03045BD0C3F38A
:1002A0000A54C1F30A552C44A4F2F3340194A0FB80
:1002B0000254C1F3130141F48011C3F3130343F457
:1002C000801301FB024400FB034E840A970A44EAB0
:1002D000815447EA8357A4FB076802958D0A05FB02
:1002E00007854FEA932C04FB0C542705029D4FEA27
:1002F000065847EA1637B5EB08056EEB070C870E74
:10030000920E47EA811742EA8312A7FB0201B6EB7D
:100310000B0164EB00042B0D43EA0C335E1844EB35
:100320001C50DA465146E7FB0201C5F313044FEABD
:100330000B3343EA14534FEA0432019C43EA0603A9
:10034000A4F10C040294009CCDE900B400F070F814
:1003500003B0BDE8F08F00200146F9E70EB540F28A
:10036000334102910021CDE900110A460B4600F00D
:100370005FF803B000BDC1F30A5210B5C1F3130119
:1003800040F2FF3341F480119A4201DA002010BD9F
:1003900040F233439A42A2F2334203DC524200F06D
:1003A00028F810BD904010BD30B50B460146002026
:1003B0002022012409E021FA02F59D4205D303FA27
:1003C00002F5491B04FA02F52844151EA2F10102A8
:1003D000F1DC30BD202A04DB203A00FA02F10020D3
:1003E00070479140C2F1200320FA03F31943904073
:1003F0007047202A04DB203A21FA02F000217047DE
:1004000021FA02F3D040C2F120029140084319467C
:10041000704710B5141E73F1000408DA401C41F156
:10042000000192185B411A4301D120F0010010BD78
:100430002DE9F04D92469B4611B1B1FA81F202E0EE
:10044000B0FA80F220329046FFF7C4FF04460F4610
:1004500040EA0A0041EA0B0153465A46084313D0CA
:10046000114653EA010019D0C8F140025046FFF787
:10047000C0FF05460E46504659464246FFF7AAFFC2
:10048000084305D0012004E020463946BDE8F08D40
:100490000020054346EAE0762C4337430A9863057B
:1004A000E40AA0EB08000022FD0A44EA47540A309F
:1004B00002D500200146E9E7010510196941DDE98F
:1004C000084500196941BDE8F04DA2E7064C074D0B
:1004D00006E0E06840F0010394E807009847103414
:1004E000AC42F6D3FFF754FE1C3B00083C3B00082F
:1004F00070B58C1810F8015B15F0070301D110F8E6
:10050000013B2A1106D110F8012B03E010F8016B12
:1005100001F8016B5B1EF9D12B0705D40023521E95
:100520000DD401F8013BFAE710F8013BCB1A921CFD
:1005300003E013F8015B01F8015B521EF9D5A142FB
:10054000D8D3002070BD0000014800F088B9000039
:1005500088010020464910B54A6822F440324A60BA
:100560004A6843681A434A6001684A6822F4807204
:100570004A6001684A68036942EA03224A600168E6
:100580004A6822F040724A6001684A6883681A43E8
:100590004A6001688A6822F400628A6001688A6899
:1005A000C3681A438A60816A6FF07062D142016841
:1005B0008A6822F070628A6001688A680CD0836A57
:1005C0001A438A6001688A6822F040528A60016892
:1005D0008A68C36A1A4301E022F040528A600168C7
:1005E0008A6822F002028A6001688A68037E42EA11
:1005F00043028A6090F82010002901684A680FD0F1
:1006000042F400624A6001684A6822F460424A602B
:1006100001684A68174C436A04EB43331A4301E00C
:1006200022F400624A600168CA6A22F47002CA6257
:100630000168CA6A838B104C04EB03531A43CA62E5
:1006400001688A6822F400728A6001688A6890F8FA
:10065000303042EA43228A6001688A6822F480626C
:100660008A6001688A68406942EA8020886010BD1B
:100670000023014000E0FFFF0000F0FFFEE7002044
:10068000704700207047000010B50022044905485B
:1006900001F047FE0449034801F03AFE002010BD76
:1006A000A00E0020D0010020A006002070B50D464D
:1006B00004460146054801F02BFE044801F00DFEFA
:1006C00020462968AFF30080002070BDD0010020D3
:1006D00000207047094A10B5D2F8BC22D2F8142283
:1006E0000AB1012010BD0A460146044801F019FE76
:1006F000BDE81040014801F07EBE0000D00100209E
:10070000704772B6FEE7704778B50024009490F801
:100710003C20012A19D0012280F83C200A680723D6
:100720000568092A13D9EE680A3A02EB420293409F
:100730009E43EE600B788A680A3B03EB43039A40C2
:100740000368DD682A43DA6010E0022078BD2E6974
:1007500002EB420293409E432E610B788A6803EBC2
:1007600043039A4003681D692A431A614A681F239C
:10077000072A13D205686E6B521E02EB8202934069
:100780009E436E630B790A885B1E92B203EB830370
:100790009A4003685D6B2A435A6327E005680D2A77
:1007A00012D22E6BD21F02EB820293409E432E6325
:1007B0000B790A88DB1F92B203EB83039A4003682C
:1007C0001D6B2A431A6311E0EE6A0D3A02EB8202B6
:1007D00093409E43EE620B790A880D3B92B203EB85
:1007E00083039A400368DD6A2A43DA62164B056880
:1007F000144A9D4206D10D68122D03D1556845F467
:100800008005556005689D4218D10B68102B01D0FA
:10081000112B13D1536843F4000353600968102966
:100820000CD10A490A4A0968B1FBF2F101EB8101D6
:10083000490000E0491E00910029FBD180F83C40AE
:10084000002078BD00230140002001400C00002062
:1008500040420F00704770470068C06C704770B529
:100860000446006801684268C1F34001C2F34012C7
:1008700051B34AB3216CC90603D4216C41F4007111
:100880002164816811F0405F17D1217EA9B9C16A46
:1008900011F4700F02D0816849050ED4416821F02F
:1008A00020014160206C20F480702064206CC00422
:1008B00003D4206C40F0010020642046FFF7CAFFFB
:1008C00021686FF012000860206801684268C1F377
:1008D0008001C2F3C01289B382B3216CC90603D46C
:1008E000216C41F400512164816811F4401F1ED134
:1008F000816B11F4401F02D08168490517D441680B
:10090000490514D4816811F0405F10D1217E71B97E
:10091000416821F080014160206C20F48050206407
:10092000206CC00503D4206C40F0010020642046F8
:10093000FFF7E9FE21686FF00C000860206801688D
:10094000426811F0010FC2F380120ED06AB1006844
:10095000C0070AD0206C40F480302064204600F0AC
:1009600046F821686FF0010008602068016842685D
:10097000C1F34011C2F3806200290DD0002A0BD0D0
:10098000616C41F0020161646FF020050560204652
:10099000FFF761FF2068056070BD70B504004FF07F
:1009A000000503D0206C002610B107E0012070BDC7
:1009B000204600F01DF8666484F83C60206CC00698
:1009C00010D4206C20F4885040F0020020642046AF
:1009D000FFF7C0FD6664206C20F0020040F00100CB
:1009E000206400E0012584F83C60284670BD704713
:1009F00010B586B0044614216846FFF72BFC154954
:100A00002068884224D114480021026842F4807290
:100A10000260006800F4807005900F481438026886
:100A200042F001020260006800F0010005904020E1
:100A300000900320CDE901016946084800F0F6F86E
:100A400000221146122000F055FA122000F044FA5C
:100A500006B010BD002001404438024000000240B2
:100A60002DE9F041044600680D4681684FF000070B
:100A700049050BD58068C00508D5206C40F02000E2
:100A8000206484F83C700120BDE8F08100F0C4F9D6
:100A9000064613E0681C11D025B100F0BDF9801B9B
:100AA000A8420BD920680068800707D4206C40F06A
:100AB0000400206484F83C700320E5E720680068A7
:100AC0008007E7D521686FF012000860206C40F4C1
:100AD000007020642068816811F0405F13D1217E8E
:100AE00089B9C16A11F4700F02D0806840050AD438
:100AF000206C20F480702064206CC00403D4206C2F
:100B000040F0010020640020BEE7000018B500217D
:100B1000009190F83C20012A07D0012280F83C2067
:100B200002689368DB0702D011E0022018BD9368C9
:100B300043F0010393602E4A2E4B1268B2FBF3F28E
:100B400002EB420200E0521E0092002AFBD1026832
:100B50009368DB0742D0036C40F20164A34343F483
:100B60008073036453685B0505D5036C23F400535D
:100B700043F480530364036CDB0404D5436C23F01B
:100B80000603436400E0416480F83C101A496FF0AA
:100B90002203136049680068CA06184906D08842D3
:100BA00024D1816811F0405F13D01FE08842F8D053
:100BB000134A904203D1D1F80423D206F1D0114A4E
:100BC000904213D1D1F8041301F01F011029E8D38A
:100BD0000CE0816841F08041816007E0016C41F0E8
:100BE00010010164416C41F001014164002018BD15
:100BF0000C00002040420F00002301400020014073
:100C0000002101400022014070B5044600F004F9C3
:100C10000546601C02D004480078044400F0FCF84B
:100C2000401BA042FAD370BD000000202DE9F84F10
:100C3000DFF8B8A1002201250AF1040B03264FF0CA
:100C40000F090BF1040E00BF0B6805FA02F42340F4
:100C5000A3426FD10F7907F00307012F01D0022FB4
:100C600016D187684FEA420806FA08FC27EA0C0703
:100C7000D1F80CC00CFA08FC4CEA070CC0F808C00C
:100C80004768A7430C79C4F3001494403C43446084
:100C90000C79E443A4070AD0C4684FEA420C06FA70
:100CA0000CF7BC438F6807FA0CF72743C7600C7931
:100CB00004F00304022C12D1D40800EB840CDCF8FD
:100CC00020405707FF0E09FA07F824EA0804D1F874
:100CD000108008FA07F848EA0408CCF82080046875
:100CE0004FEA420C06FA0CF7BC430F7907F00307F2
:100CF00007FA0CF7274307604C68E40070D53C4CBA
:100D0000276847F480472760246822F0030704F42B
:100D100080440094374C07EB040CDCF80848970734
:100D20004FEA177809FA08F7BC43334FB84202D1AB
:100D3000002724E054E0314FB84201D101271EE0E2
:100D40002F4FB84201D1022719E02E4FB84201D1EE
:100D5000032714E02C4FB84201D104270FE02B4F9A
:100D6000B84201D105270AE0294FB84201D1062730
:100D700005E0284FB84201D1072700E0082707FA0D
:100D800008F72743CCF80878DAF800405746D1F83E
:100D900004C09C435FEACC3C00D51C433C60DBF8BC
:100DA00000405F46D1F804C09C435FEA8C3C00D50C
:100DB0001C433C60DEF800407746D1F804C09C43F9
:100DC0005FEACC2C00D51C433C60084F0C373C68D4
:100DD000D1F804C09C435FEA8C2C00D51C433C60D6
:100DE000521C102AFFF430AFBDE8F88F003C0140E0
:100DF000443802400030014000000240000402403C
:100E000000080240000C02400010024000140240A2
:100E100000180240001C0240014880687047000032
:100E20000000002002488168027811448160704708
:100E3000000000200B4810B5016841F4007101600A
:100E4000016841F480610160016841F480710160D2
:100E5000032000F06FF8002000F006F800F024F8FE
:100E6000002010BD003C024070B50D4D04464FF40B
:100E70007A712878B1FBF0F00A490968B1FBF0F00B
:100E800000F086FF48B9102C07D200222146501EE0
:100E900000F030F800206C6070BD012070BD0000D3
:100EA000000000200C0000200A4808B5016841F449
:100EB00080410160006800F4804000900548001FF8
:100EC000016841F080510160006800F0805000909E
:100ED00008BD000044380240002809DB00F01F0272
:100EE000012191404009800000F1E020C0F800118C
:100EF00070470000F0B40E4B1B680C46C3F302238E
:100F0000C3F10705042D00D90425191D072901D2B5
:100F1000002300E0DB1E012606FA05F1491E2140F0
:100F200099409E40761E16403143F0BC02F0D4BC7E
:100F30000CED00E0064900F0070208684FF6FF03D9
:100F4000184040EA0220034A10430860704700003E
:100F50000CED00E00000FA057047006841620020D7
:100F60007047F0B50368586A39B19C6A4FF48276CD
:100F700000EB144400204D1E0AE040EA0240986253
:100F80000FE006EB8007DF59401C04EB1744C0B2AA
:100F9000A842F6D344EA02404FF4807202EB81018A
:100FA00058500020F0BDD0F8040401F05BBCC1EB48
:100FB000C10200EB8202D0F80404926C01F0C8BBBD
:100FC000C1EBC10200EB8202D0F80404D2F808227F
:100FD00001F012BCD0F8040401F046BC70B5044620
:100FE0000B0601F00F00C0EBC00104EB81014FF0D4
:100FF00001024FF0000503D581F83D203C3103E0AC
:1010000081F8FD5101F5FE71087094F8BC030128C8
:1010100008D084F8BC23206801F0E0FF84F8BC53BA
:10102000002070BD022070BD70B5044601F00F00B5
:101030006268904201D9012070BD0B0601F00F01DA
:10104000C1EBC10104EB81014FF001024FF000053B
:1010500003D581F83D203C3103E081F8FD5101F5D5
:10106000FE718D70087094F8BC03012808D084F8D4
:10107000BC23206802F0ACF984F8BC53002070BD9A
:10108000022070BD01F00F01C1EBC10100EB810036
:10109000D0F8140270472DE9F04104460F0601F024
:1010A0000F00C0EBC00104EB81014FF001064FF0CF
:1010B000000503D581F83D603C3103E081F8FD5126
:1010C00001F5FE7108708A60CB704A7802B1C88061
:1010D000022B00D10D7194F8BC03012809D084F8CB
:1010E000BC63206801F0D6FE284684F8BC53BDE8F6
:1010F000F0810220FBE770B50C4601F00F05C5EB4F
:10110000C50100EB8101C1F81032C1F808220023AB
:10111000C1F8143281F8FD3181F8FC51036901F501
:10112000FE71012B00D10A612207027C006803D006
:1011300002F0A6F9002070BD02F092F8FAE770B54F
:1011400004460D4601F00F006168884201D9012074
:1011500070BD29064FF000064FF0010207D5C0EB25
:10116000C00104EB810181F83D203C3107E0C5EB73
:10117000C50104EB810181F8FD6101F5FE718A7002
:10118000087094F8BC03012807D084F8BC232068B9
:1011900002F04AF9280702D007E0022070BD217C46
:1011A00004F57172206802F0E7F884F8BC6300204F
:1011B00070BD70B50C4601F00F05C5EBC50100EB25
:1011C00081010B658A6400234B65012381F83D3062
:1011D00001F83C5F0369012B00D10A612207027C00
:1011E000006803D002F04CF9002070BD02F038F81E
:1011F000FAE700002DE9FC5F05680446284602F086
:1012000068FA00287ED1206802F08FFA002879D091
:10121000206802F08AFA800704D52168486900F046
:1012200002004861206802F080FAC10604F571707E
:10123000009034D52068816921F0100181612F6A06
:1012400007F00F00C0EBC00004EB8006C7F343407B
:1012500006F5FE76022802D0062811D01AE047F6DD
:10126000F070074216D0C7F30A1217462846F168F5
:1012700002F05FFAF0683844F060B069384408E082
:1012800008222846009902F054FAB069C7F30A11FF
:101290000844B0612068816941F0100181612068D3
:1012A00002F043FA00034FF0010A4FF0080B5BD540
:1012B0000026206802F018FA0746DFF8689351E02C
:1012C000F8074DD0F1B2206802F027FA8046C00737
:1012D00007D005EB4611C1F808AB3146204600F0B7
:1012E00001FE5FEA087022D505EB4611C1F808BB84
:1012F0002068016C00EB46100191D0F8082B49459D
:1013000007D900E08BE1110403D54FF40041C0F888
:10131000081B204600F076FA0198484507D9206955
:10132000012804D120680121009A02F025F85FEA23
:10133000C86004D505EB46111020C1F8080B5FEA20
:10134000886004D505EB46112020C1F8080B5FEA40
:10135000884005D505EB46104FF40051C0F8081B36
:101360007F08761C002FABD1206802F0DEF9400325
:101370004FF000095CD5206802F0AFF9074600265F
:1013800054E0F80750D0F1B2206802F0B4F980467A
:10139000C00723D006F00F020AFA02F0D5F834286D
:1013A0008243C5F8342805EB4610C0F808A9206927
:1013B00001280FD1C6EBC60004EB8000D0E9112153
:1013C0001144816436B9206D20B920680121009A4A
:1013D00001F0D2FFF1B22046FFF7E9FD5FEA0870A5
:1013E00003D505EB4611C1F808B95FEAC86004D51A
:1013F00005EB46111020C1F808095FEA486004D5E2
:1014000005EB46114020C1F808095FEA887004D551
:1014100005EB46110220C1F808095FEA086003D510
:101420003146204600F0C4FD7F08761C002FA8D16D
:10143000206802F07AF9002811DAD5F8040820F0C3
:101440000100C5F8040894F8F403012829D02046C7
:1014500000F0BCF92068416901F000414161206859
:1014600002F063F900050BD5D5F80808C00702D0D3
:10147000204600F0EFF92068416901F40061416104
:10148000206802F052F9C00468D5D5F8040820F0AD
:101490000100C5F804081021206802F0FBF80021C3
:1014A00027E084F8F49300212046FFF755FDD1E7AB
:1014B00005EB41104FF67F32C0F80829D0F800390B
:1014C00023F40013C0F80039D0F8003943F000636A
:1014D000C0F80039C0F8082BD0F8002B22F4001215
:1014E000C0F8002BD0F8002B42F00062C0F8002BAF
:1014F000491C60688842DBD8D5F81C0840F0011010
:10150000C5F81C08206B60B1D5F8840840F00B00CA
:10151000C5F88408D5F8440840F00B00C5F8440825
:101520000CE0D5F8141842F22B000143C5F814184A
:10153000D5F8100840F00B00C5F81008D5F80008E1
:1015400020F4FE60C5F80008217C2068009A01F0B4
:1015500013FF2068416901F480514161206802F065
:10156000E4F8800415D5206801F0D4FC206802F06E
:10157000A3F8E06000F020FA0146227B206802F028
:101580000FF9204600F00CF92068416901F4005180
:101590004161206802F0C9F8000707D5204600F035
:1015A00019F92068416901F008014161206802F0E1
:1015B000BCF8C00208D50021204600F035F82068AC
:1015C000416901F480114161206802F0AEF88002A7
:1015D00008D50021204600F02BF82068416901F46D
:1015E00000114161206802F0A0F8400007D52046B4
:1015F000FFF7D9FC2068416901F080414161206812
:1016000002F093F840070AD520684568680702D5BC
:101610002046FFF7DFFC2068416829434160BDE8B0
:10162000FC9F00000A30544FD0F8040401F06CB95C
:10163000D0F8040401F078B92DE9F0418AB0040033
:1016400005D094F8BD032668002520B108E00120EC
:101650000AB0BDE8F08184F8BC53204600F05EF883
:10166000032084F8BD03F06BC00500D42561206819
:1016700001F0F0FD04F11001282288466846FEF7CB
:10168000D0FD94E80F0001F053FC0226C8BB0021F6
:10169000206802F05CF8002001270EE0C0EBC001DA
:1016A00004EB810181F83D7001F83C0FC880CD70DA
:1016B0008D60CD60401CC0B24D6161688142EDD843
:1016C000002011E0C0EBC00104EB810181F8FD5165
:1016D00081F8FC0181F8FF51C1F80452C1F80852A9
:1016E000401CC0B2C1F8105261688142EAD8282279
:1016F00041466846FEF795FD94E80F0001F0F0FCC6
:1017000010B184F8BD63A2E784F8385084F8BD7343
:10171000206801F0D7FC00209AE7000010B586B0E1
:10172000044614216846FEF795FD2068B0F1A04FED
:101730002FD119480021026842F0010202600068BE
:1017400000F0010005904FF4C05000900220CDE958
:101750000101032003900A20049069460F48FFF717
:1017600065FA0D48001D016841F0800101600A48DA
:101770001430016841F4804101600068002200F4E7
:101780008040059011464320FFF7B4FB4320FFF74C
:10179000A3FB06B010BD000030380240000002403C
:1017A00070B50446C068012570B1022801D0FEF76B
:1017B000A8FF2946D4F8040401F022F9D4F804045F
:1017C000BDE8704001F0D5B80025F2E7D0F8040478
:1017D00001F0FCB8D0F8040401F002B910B50446D9
:1017E00090F8BC0301280BD0012084F8BC0384F8D6
:1017F0003810206801F0C2FF002084F8BC0310BD3F
:10180000022010BDD0F8042400F57171104601F0DB
:1018100003B910B50446006894F8BC13012906D03A
:10182000012184F8BC13A16A012902D008E002203A
:1018300010BDA169012903D0816B41F4803181631E
:10184000206801F011FF206801F02EFC002084F8D0
:10185000BC0310BD10B50446D0F8040401F01EF915
:101860002068D0F8001E41F00101C0F8001E206A77
:10187000002804D00248016841F00601016010BD53
:1018800010ED00E02DE9F0470E46050065D0DFF8C9
:101890001481D8F80000F7B200F00700B04207D278
:1018A00088F80070D8F8000000F00700B04254D16A
:1018B00028683D4C810712D5400703D5206840F4C5
:1018C000E05020602878000703D5206840F460408D
:1018D00020602068A96820F0F00008432060287884
:1018E000C0072DD0304968680839012812D0022875
:1018F00013D0032811D00968890700292DDA21683F
:1019000021F0030101432160FFF786FA814641F28D
:10191000883A0EE009688903EFE709688901ECE776
:10192000FFF77AFAA0EB0901514502D90320BDE87F
:10193000F0872068696800F00C00B0EB810FEFD1F0
:10194000D8F80010404601F00701B14207D90770EE
:10195000006800F00700B04201D00120E7E72878D6
:10196000400705D52068E96820F4E050084320606E
:101970002878000706D52068296920F4604040EAED
:10198000C100206000F01EF82168084AC1F303116D
:10199000515CC8400649086006480068FFF764FAD1
:1019A0000020C4E7003C0240083802400C3B00081D
:1019B0000C0000200400002001480068704700006F
:1019C0000C000020154810B5006810F00C021448F7
:1019D00013D04110042A0FD0082A0ED10F4C241F17
:1019E0002268236802F03F025B0207D52068C0F33B
:1019F0008810A0FB010106E0084610BD2168C1F374
:101A00008811A1FB00010023FEF7DAFB2168C1F376
:101A10000141491C4900B0FBF1F010BD08380240FB
:101A20000024F4002DE9F84F04006ED02078DFF890
:101A30004C93C007A9F104054AD009F104000168DC
:101A4000C1F38101012908D00068C0F38100022898
:101A50000AD1D9F80000400206D52868800337D59E
:101A600060680028E1D033E06068B0F5803F10D0B6
:101A7000B0F5A02F286810D020F4803028602868A6
:101A800020F4802028606068A8B1FFF7C5F90646F9
:101A90000DE0286840F48030F4E740F480202860AE
:101AA000F7E700BFFFF7B8F9801B642873D82868F0
:101AB0008003F7D50CE0FFF7AFF9064605E000BF5D
:101AC000FFF7AAF9801B6428F0D828688003F7D4B0
:101AD0002078DFF8AC8280074FF0000A3ED5A74897
:101AE000001D016811F00C0F08D00068C0F38100E0
:101AF00002280BD1D9F80000400207D428688007DB
:101B000016D5E068012800D112E033E1E068B8B1F1
:101B10000120C8F80000FFF77FF9064605E000BF86
:101B2000FFF77AF9801B0228C0D828688007F7D50C
:101B30002868216920F0F80040EAC10028600DE023
:101B4000C8F800A0FFF768F9064604E0FFF764F95B
:101B5000801B02281FD828688007F7D42078000748
:101B600022D5864F87486169703771B101210160C4
:101B7000FFF752F9064604E0FFF74EF9801B0228F2
:101B800009D838688007F7D50EE0C0F800A0FFF745
:101B900043F9064605E082E0FFF73EF9801B022884
:101BA0007DD838688007F7D42078400768D5DFF8FB
:101BB000CCB100270BF13C0BDBF80000C0000BD4CC
:101BC000DBF8001041F08051CBF80010DBF800008A
:101BD000012700F0805000906B4E3068C00510D493
:101BE000306840F480703060FFF716F9009005E02F
:101BF000FFF712F90099401A022850D83068C00542
:101C0000F6D55E4EA0686C3601280FD005283068E6
:101C100010D020F001003060306820F00400306007
:101C2000A068B8B1FFF7F8F800900FE0306840F016
:101C30000100F4E740F004003060F7E7FFF7ECF84C
:101C40000099411A41F28830814266D83068800795
:101C5000F4D50EE0FFF7E0F8009007E0FFF7DCF8BE
:101C60000099411A41F28830814256D83068800785
:101C7000F4D42FB1DBF8001021F08051CBF8001024
:101C8000A069C8B33D49091D0968C1F38101022952
:101C90004AD00228504607D0C8F8600000E03CE077
:101CA000FFF7BAF804463BE04746C8F86000FFF784
:101CB000B3F8064605E000BFFFF7AEF8801B022828
:101CC0002BD828688001F7D4D4E907010843A16A1A
:101CD0002E4A490802EB0141626A41EA8211084337
:101CE00094F82C1040EA0161C9F800100120386610
:101CF000FFF792F8044606E03EE000BFFFF78CF8DD
:101D0000001B022809D828688001F7D534E000BFFD
:101D1000FFF782F8001B022802D90320BDE8F88FE4
:101D200028688001F4D427E00128F7D0D9F8000012
:101D3000E26900F4800191421CD1226A00F03F0167
:101D4000914217D147F6C071626A0140B1EB821F20
:101D500010D1A26A4FF0FF3300F4403103EB52027E
:101D6000B1EB024F06D194F82C1000F07060B0EB8C
:101D7000016F01D00120D1E70020CFE704380240F5
:101D800000004742800E4742007000400000FFFF05
:101D900010B5401EB0F1807F01D3012010BD4FF07F
:101DA000E02460610F21601701F096FD0020A06122
:101DB00007202061002010BDFEE70000F0B50023E1
:101DC0000A24302537261F4611E000BFB4EB107FF0
:101DD00002D905EB107C01E006EB107C01F813C082
:101DE00001EB430C00015B1C8CF80170DBB29342E9
:101DF000ECD3F0BD7FB50024144800940194029404
:101E000011490394C0E9001484600125046105763A
:101E100080F820400E49C0E90A14C561C46080F80A
:101E200030404561FEF7B9FD08B1FEF76AFC0620B7
:101E3000CDE90005694602940448FEF765FC0028D8
:101E400001D0FEF75EFC7FBD00200140880100202C
:101E50000100000F094808B5016841F080010160E8
:101E6000016801F080010091016841F00101016009
:101E7000006800F00100009008BD0000303802400A
:101E800010B500220F49104800F03DFC08B1FEF7E4
:101E900038FC0E490C4800F029FE08B1FEF731FC71
:101EA0000B49094800F02DFA08B1FEF72AFC064854
:101EB00000F096FE002803D0BDE81040FEF721BCDC
:101EC00010BD000010000020D001002050010020B3
:101ED00060000020FEE7FEE70148FFF78BB9000035
:101EE000C01800202DE9F04103680D4604461E6C21
:101EF00003EB4511D1F8080BD4F810E04FF400477C
:101F00004FF0200C04F57172BEF1010F09D0DFF81B
:101F100098E0764539D1020432D500BFC1F8087B7C
:101F20003FE0224B5FEA007E04D59E4239D900048F
:101F3000F4D436E05FEA806E02D5C1F808CB30E019
:101F400010F0280F2DD19E4201D90004E6D4C5EB34
:101F5000C50004EB8000D1F8101BD0F80432C1F3A7
:101F60001201591AC0F81412D0F808121944C0F816
:101F7000081295B9D4F8100278B9012120680AE056
:101F800080060AD5C1F808CB07E035B9D4F81002AD
:101F900018B90021184601F0EFF9E9B22046FFF721
:101FA0000FF80020BDE8F0810A31544F0A30544F39
:101FB0002DE9F84F0E46C1EBC60100EB81048146C6
:101FC0000568D4E914103C34884202D90120BDE8E8
:101FD000F88F081AA168814200D20846C01C870801
:101FE00005EB46181BE000BFA0EB010AA0685045B6
:101FF00000D282460AF10300870899F81000009089
:102000001FFA8AF3F2B22846E16801F03DFCE1686C
:1020100001EB0A00E060A16901EB0A00A061D8F8B9
:10202000180980B2B84205D3D4E90501814201D232
:102030000028D9D1D4E90501884208D806F00F015B
:1020400001208840D5F834188143C5F834180020A1
:10205000BDE7704770470178407841EA002070473B
:10206000FEF7E0BE30B593B030216846FEF7F2F8D7
:1020700014210CA8FEF7EEF81C480025016841F079
:1020800080510160006800F080501190184801688C
:1020900041F4804101600068022400F48040119006
:1020A00001200090000401908001CDE90640042049
:1020B00008904820CDE9090403200B906846FFF7FB
:1020C000B1FC08B172B6FEE70CA90F2081E831001F
:1020D0004FF48050CDE90F0502210CA8FFF7D2FB89
:1020E000002801D072B6FEE713B030BD4038024080
:1020F000007000400248016841F4700101607047BF
:1021000088ED00E02DE9F0410C46D0F8C422D0F86B
:10211000BC12F9B104EB840300EB83050026AB6924
:102120004BB1C4EBC40702EB8702526CB3FBF2F76E
:1021300002FB173282B1C1F81462D0F8C002036901
:102140002BB1D1F80802224601F50471984700200E
:10215000BDE8F0810320FBE700231A462146AE616B
:1021600000F0A5FCF3E770B5D0F8BC4205466CB1B1
:1021700000F086FBC4F80C02D5F8C012D4F80402B3
:10218000CA6804F503719047002070BD032070BD3C
:1021900070B50446812100F0D2FA0025258701217F
:1021A000204600F0CCFAA4F878518221204600F0B5
:1021B000C6FAA4F84C50A4F84E50D4F8BC0248B16A
:1021C000D4F8C00204F52F7440688047206800F0FE
:1021D0005CFE2560002070BD10B5D0F8BC4284B113
:1021E000D0F8C01259B194F80002FF2807D08B68CC
:1021F00094F8012221469847FF2084F8000200202D
:1022000010BD032010BD00000A2101800048704766
:10221000780000204321018000487047C80000205A
:102220004321018000487047840000204321018041
:10223000004870470C0100202DE9F04704464FF498
:10224000077000F023FE05004FF0000735D0C4F8FA
:10225000BC52207C4FF010084FF40079012680B367
:10226000402302228121204600F06EFB2687402376
:1022700002220121204600F067FBA4F87861A4F84F
:102280004E80082303228221204600F05DFBA4F843
:102290004C60D4F8C00200688047C5F81472C5F8D5
:1022A0001872207CD5F80422A8B1402301212046D1
:1022B00000F056FB0020BDE8F0870220C4F8BC7295
:1022C000F9E7FFE74B4602228121204600F03CFB64
:1022D00026874B46CCE74B46E8E710B5D0F8BC1252
:1022E00051B1027C002AD1F8042207D040230121F9
:1022F00000F036FB002010BD032010BD4FF400732A
:10230000F5E719B1C0F8C0120020704703207047EC
:10231000D0F8BC0218B1C0F80412002070470320A6
:102320007047D0F8BC0228B1C0F81022C0F80812DB
:1023300000207047032070472DE9FC410646D0F885
:10234000BC7200200C468DF80000ADF80400054674
:1023500037B1207810F0600128D0202944D102E064
:102360000320BDE8FC81E288C2B1000660780AD58E
:10237000D6F8C0128B6839469847E288072A00D9F8
:102380000722394628E087F80002A07987F8010281
:10239000E2883946304600F06CF82AE0D6F8C012E0
:1023A000607800228B682146984722E0607830B13F
:1023B00001281ED00A2809D00B2815D110E096F864
:1023C0009C02032810D1022201A905E096F89C0284
:1023D000032809D101226946304600F064F808E07C
:1023E00096F89C02032804D02146304600F036F8C7
:1023F00003252846B5E710B5D0F8BC12012219B163
:10240000D1F8143213B10FE0032010BD0122C1F83E
:102410001422D1F81022C262D1F81032D1F8082269
:10242000812100F044FB0022104610BD10B5D0F809
:10243000B8220AB152689047002010BD134610B56B
:102440000A46002100F08CFA002010BD134610B59A
:102450000A46002100F02BFB002010BD10B50446F9
:10246000802100F009FB2046BDE81040002100F06B
:1024700003BB10B50323C0F89432C0F858211346AB
:10248000C0F85C210A46002100F06AFA002010BD65
:1024900010B50521C0F8941200231A46194600F021
:1024A0005FFA002010BD10B50223C0F8943282619B
:1024B0001346C2610A46002100F0F9FA002010BD5F
:1024C00010B50421C0F8941200231A46194600F0F2
:1024D000EEFA002010BD000010B50A46024903A024
:1024E00000F0E1F8004810BDA00400204344432060
:1024F000436F6E66696700001220088000487047CD
:102500003000002010B50A46024903A000F0CBF8C5
:10251000004810BDA004002043444320496E746568
:1025200072666163650000000420088000487047FF
:102530002C00002010B50A46024903A000F0B3F8B1
:10254000004810BDA004002053544D6963726F65AC
:102550006C656374726F6E696373000010B50A4630
:10256000024903A000F09FF8004810BDA00400201D
:1025700053544D3332205669727475616C20436F29
:102580006D506F727400000010B51A2008800A4860
:102590000168001D0468001D0068081809D00822A1
:1025A0000649FFF70BFC0549042210312046FFF7CE
:1025B00005FC0248801E10BD107AFF1F4600002057
:1025C000F8B504460020ADF8000048880D46010A21
:1025D00008295FD2DFE801F05E0409175E5E3C4522
:1025E000D4F8B412207C0A6819E0207C0226002866
:1025F000D4F8B80205D0C16A6846884701464670DB
:1026000039E0816AF8E7C0B2062843D2DFE800F07B
:10261000030A1014181CD4F8B402426805E0694695
:1026200090471CE0D4F8B402826892B3207CF6E7AD
:10263000D4F8B402C268F8E7D4F8B4020269F4E747
:10264000D4F8B4024269F0E7D4F8B4028269ECE746
:10265000207CF0B9D4F8B802416B6846884701463F
:1026600009E0207CA8B9D4F8B802016B6846884715
:10267000014607204870EA888AB1BDF8000040B1E1
:10268000824200D90246ADF800202046FFF70BFF3A
:10269000F8BDFFE729462046FFF7E0FEF8E72046B1
:1026A000FFF70EFFF4E770B5002300281ED00025C9
:1026B000044602E06D1CEDB2641C2678002EF9D1B0
:1026C000022404EB450414801278CA545B1C0322D4
:1026D000CA5400245B1C06E0CA545B1CDAB28C545A
:1026E000521CD3B2401C0278002AF5D170BD010003
:1026F0004FF0000004D0012901D0022901D00320AD
:1027000070470120704778B10023C0F8B832C0F894
:10271000C032C0F8CC3209B1C0F8B412012180F83F
:102720009C12027000F0B0B80320704710B5D0F8CA
:10273000C402FEF779FCBDE81040FFF7D8BF10B522
:10274000D0F8C402FEF74AFCBDE81040FFF7CFBF47
:1027500070B51646044621B194F89C02032841D076
:1027600048E0D4F8941204F114000025022932D173
:10277000D0E902318B4206D95A1A8260314620468E
:10278000FFF764FE0FE0994214D14068884211D3EC
:10279000D4F8981288420DD2002211462046FFF745
:1027A00055FEC4F8985200231A461946204600F0F8
:1027B000D7F810E094F89C02032805D1D4F8B802A9
:1027C000C16809B1204688478021204600F054F9AD
:1027D0002046FFF75DFE94F8A00201280AD184F894
:1027E000A05207E0D4F8B80242691AB120469047D7
:1027F000002800D1002070BD10B51346044621B159
:1028000094F89C02032823D02AE0D4F8941204F50B
:10281000AA70032924D1D0E9021291420AD98A1A56
:102820008260C068824200D3024619462046FFF704
:1028300005FE15E094F89C02032805D1D4F8B802EF
:10284000016909B1204688472046FFF739FE07E0B5
:10285000D4F8B80282691AB120469047002800D106
:10286000002010BD0020704710B5012180F89C1297
:10287000D0F8B82212B1526801799047002010BDFB
:10288000D0F8C402FEF7FEBB10B5017839BB15497C
:102890000222C1F80404C0F8C4124FF0A04008603E
:1028A000042048600020C1E90320C1E90620086235
:1028B0004862C86208630846FEF7BEFE08B1FDF72D
:1028C00020FF80210748FEF748FB402200210548F1
:1028D000FEF747FB802201210248FEF742FB002061
:1028E00010BD0000C01800200A0601F07F01D0F8DA
:1028F000C402C1EBC10100EB810002D590F83E009B
:10290000704790F8FE01704710B5D0F8B82222B198
:1029100090F89C32032B02D004E0032010BD126A11
:1029200002B19047002010BD10B5D0F8B82222B1F6
:1029300090F89C32032B02D004E0032010BD526AB1
:1029400002B19047002010BD10B51C461346D0F8C8
:10295000C4022246FEF79FFBBDE81040FFF7C7BE4A
:1029600010B5D0F8C402FEF7C6FBBDE81040FFF773
:10297000BEBE70B50125044680F89C520020C4F804
:1029800094026060C4F8A402D4F8B802E0B1D4F8AC
:10299000BC1221B1426812B10021204690470022AA
:1029A000402311462046FFF7CFFF4026A4F864518C
:1029B0003346002280212046C4F86061FFF7C4FF3F
:1029C000A5840020266270BD032070BD90F89C1283
:1029D000042903D190F89D1280F89C1200207047C2
:1029E00010B5D0F8B81221B190F89C22032A02D079
:1029F00004E0032010BDC96901B18847002010BD63
:102A000001740020704710B5D0F8C402FEF7E6FE4E
:102A1000BDE81040FFF76BBE70B5044600F2AA2077
:102A2000054600F04DF80120C4F89402B4F8B00255
:102A3000C4F8980294F8AA0210F01F010AD00129E4
:102A40000ED0022912D000F080012046BDE870406F
:102A500000F012B829462046BDE8704000F0C2B828
:102A600029462046BDE8704000F0E6B929462046D8
:102A7000BDE8704000F040B910B5D0F8C402FEF7D0
:102A80005EFBBDE81040FFF732BE10B5D0F8C402BF
:102A9000FEF7BFFEBDE81040FFF729BE90F89C127C
:102AA00080F89D12042180F89C120020704710B518
:102AB000D0F8C402FEF77DFBBDE81040FFF717BE5B
:102AC00070B5054611F8010B2870087868704C1C29
:102AD0002046FFF7C0FA6880A41C2046FFF7BBFA27
:102AE000A880A01CFFF7B7FAE88070BD38B504468F
:102AF0000020ADF8000049B1C4F8B812C96A19B194
:102B000068468847C4F8CC02002038BD032038BD91
:102B100002460320D2F8B832002B02D01B681046C0
:102B2000184770472DE9F0410F462C4E8978002553
:102B300004463170012906D939462046FFF78EFC3C
:102B40000320BDE8F08194F89C0202280CD00328F1
:102B50001DD039462046FFF781FC31782046FFF72B
:102B600065FC03252846ECE799B320466160FFF732
:102B7000CFFF050004D039462046FFF76FFCF1E790
:102B80002046FFF79DFC032084F89C02EAE74FF003
:102B90000208C1B1606888421BD0C1B22046FFF76D
:102BA00045FC317820466160FFF7B2FF050010D088
:102BB00039462046FFF752FC21792046FFF736FCC4
:102BC00084F89C82CEE784F89C8220466160FFF7FF
:102BD0002DFC2046FFF774FCC4E7000074000020C1
:102BE000FFF753BF2DE9F0410A78002512F060028B
:102BF00008D0202A01D0402A71D1D0F8B82292689A
:102C0000904731E04B78002201260A2B67D2DFE89B
:102C100003F0415E6658660805662D29FFF7D0FC73
:102C20005FE004468888D8B9C888C8B94888802831
:102C300016D200F07F0794F89C02032810D084F885
:102C40009E7239462046FFF7DEFE2046FFF738FC2D
:102C50001FB1022084F89C0243E084F89C6240E0AB
:102C600020463CE0FFF75EFF05463AE0CB88012BAB
:102C700035D190F89C32012B04D0022B02D0032BCB
:102C80002DD104E08260012200F1080116E001224A
:102C9000011D13E090F89C22012A03D0022A01D0E2
:102CA000032A1CD1CA88022A19D1C660D0F8A412FE
:102CB00009B10321C160022200F10C01FFF7F3FB0F
:102CC0000FE0498801290CD1C0F8A46211E090F806
:102CD0009C32012B08D0022B06D0032B04D0FFF727
:102CE000BDFB2846BDE8F08149880129F9D1C0F82B
:102CF000A422FFF7E5FBF4E72DE9F0410D46044679
:102D000028780026097910F060000BD0202801D027
:102D100040286DD1D4F8B8022946826820469047F1
:102D2000064686E06878A8B3012822D003287CD123
:102D300094F89C02022802D0032876D10BE00029E7
:102D400073D0802971D02046FFF796FE802120465F
:102D5000FFF792FE6DE0688838B931B1802904D060
:102D6000E88810B92046FFF787FE2046FFF7A8FB4A
:102D70005FE094F89C020228E1D0032855D16888CE
:102D8000A8BB480602D02046FFF7D0FC2046FFF73C
:102D900097FBBFE7FFE794F89C020027022802D0C8
:102DA000032842D111E009B180293ED1080601F083
:102DB0007F0000EB800004EB800101D5143101E0BD
:102DC00001F5AA7102220F602BE0080601F00F0046
:102DD00000EB800004EB80000BD5808C40B101F04B
:102DE0007F0000EB800004EB800514350CE020E050
:102DF0001BE0B0F86401C0B101F07F0000EB80007F
:102E000004EB800505F5AA7541B1802906D020465E
:102E1000FFF76AFD10B10120286000E02F60022258
:102E200029462046FFF73FFB03E029462046FFF7EF
:102E300015FB3046BDE8F08170B5064608780024E1
:102E40000D4610F0600003D0202801D0402817D193
:102E500096F89C02012803D0022801D003280FD144
:102E6000287901280CD8D6F8B802826830469047F5
:102E70000446E888204306D13046FFF721FB02E0F4
:102E80003046FFF7EBFA204670BD704700487047A8
:102E9000A016002070B50A78012302F00F054E78C5
:102EA000AB401B4CD0F81C58012E17D045EA034309
:102EB000C0F81C3800EB4210D0F8002B12040BD4E1
:102EC000D0F8002B0B89C978C3F30A031A4344EAEC
:102ED00081410A43C0F8002B002070BD9BB21D4306
:102EE000C0F81C5800EB4210D0F800391B04F3D492
:102EF000D0F800390D89C978C5F30A0589042B4338
:102F000041EA82510B432343C0F80039E4E7000053
:102F100000800010D0F800196FF30A01C0F8001902
:102F2000D0F8041841F48071C0F8041800207047EC
:102F300070B5044606990A9E049D0D98012916D085
:102F4000E06840F04000E060204600F02BF8A16B04
:102F50001EB321F48031A163012D07D1A16841F096
:102F60000601A160A16841F02001A16070BDA16BC4
:102F700021F48031A163E168094A1140E160E16810
:102F800021F44011E160012803D1E06840F4801091
:102F9000E060204600F006F8DEE741F48031DAE731
:102FA000BFFFBDFF01220C4902E0521C8A420BD830
:102FB0000369002BF9DA026942F001020261012281
:102FC00004E0521C8A4201D9032070470369DB07E1
:102FD000F7D1002070470000400D030030B54C7859
:102FE0000A78012300EB4212012C2CD0D2F8004BBE
:102FF000002C0BDAD2F8004B44F00064C2F8004B0E
:10300000D2F8004B44F08044C2F8004BD0F83C5852
:103010000C7804F00F0403FA04F425EA0444C0F821
:103020003C48D0F81C48097801F00F018B4024EA95
:103030000341C0F81C18D2F8000B19490840C2F827
:10304000000B002030BDD2F80049002C0BDAD2F87A
:10305000004944F00064C2F80049D2F8004944F045
:103060008044C2F80049D0F83C480D7805F00F05BF
:1030700003FA05F5ADB2AC43C0F83C48D0F81C48A3
:10308000097801F00F018B4099B28C43C0F81C48BD
:10309000D2F8000903490840C2F80009D1E700004E
:1030A0000078F3EF007833ECD0F8001E21F0030134
:1030B000C0F8001ED0F8041821F00201C0F804186E
:1030C00000207047D0F8001E21F00301C0F8001E58
:1030D000D0F8041841F00201C0F80418002070472D
:1030E0002DE9F04F00250E460446DDF82CC0DDF832
:1030F00024B0109F2846294604EB8002C2F8041130
:10310000401C0F28F8D32046C7B1806B20F4001272
:10311000A263A06B40F40022A26308468846C4F86C
:10312000000ED4F800182046C4F80018BCF1010FB6
:1031300016D0D0F8001841F0030116E0D0F80408CA
:1031400040F00202C4F80428A06B40F40012A2630D
:10315000A06B20F40022A263A06B20F48022DBE7A6
:10316000D0F800180BB141F00101C0F8001810218F
:1031700000F090FA00B10125204600F07BFA00B182
:1031800001254046C4F81088C4F81488C4F81C8887
:1031900000214FF000694FF0904A4FF67F3314E062
:1031A00004EB4112D2F800C9BCF1000F06DA11B1EC
:1031B000C2F800A904E0C4F8009901E0C2F80009CF
:1031C000C2F81009C2F80839491C8E42E8D800211B
:1031D00015E000BF04EB4112D2F800CBBCF1000FA8
:1031E00006DA11B1C2F800AB04E0C4F8009B01E0BC
:1031F000C2F8000BC2F8100BC2F8083B491C8E4203
:10320000E8D8D4F8101821F48072C4F81028A0610E
:103210006FF080406061BBF1000F03D1A06940F006
:103220001000A061A06909490843A0610C9818B179
:10323000A06940F00800A061012F03D1A0690449F2
:103240000843A0612846BDE8F08F000000383C80AC
:1032500004000040816821F0010181600020704776
:1032600070B50D784E78434CEBB200EB4313012E52
:103270001FD0D3F8100B6FF31200C3F8100BD3F864
:10328000100B2040C3F8100B486908B188684861EA
:10329000D3F8100B40F40020C3F8100BD3F8100B38
:1032A0008C68C4F312042043C3F8100B012A55D0D4
:1032B00058E04E69002ED3F8106932D06FF3120631
:1032C000C3F81069D3F810692640C3F810694E6935
:1032D0008C68A64200D94C61D3F8104944F400240C
:1032E000C3F81049D3F810494E69C6F312063443A7
:1032F000C3F81049012A22D000EB4512D2F8003958
:1033000043F00443C2F800394A6932B3D0F8342894
:10331000097801F00F03012199400A43C0F83428CD
:1033200026E02640C3F81069D3F8104944F400247D
:10333000C3F81049D3F810496FF31204D8E70969AC
:1033400019B100EB4512C2F8141900EB4510D0F882
:10335000001941F00441C0F8001909E0C86808B13B
:10336000C3F8140BD3F8000B40F00440C3F8000B73
:10337000002070BDFFFF07E010B5036C134CA342A3
:1033800003D9D0F8003B002B1EDB0023C0F8103B14
:10339000D0F8103B43F40023C0F8103BD0F8103BAA
:1033A00043F01803C0F8103BD0F8103B43F0C04383
:1033B000C0F8103B012907D1C0F8142BD0F8001B2E
:1033C00041F08021C0F8001B002010BD0A30544F8E
:1033D0004A780B78012A00EB43100BD0D0F8002B71
:1033E00022F40012C0F8002BC978032914D0022956
:1033F00012D017E0D0F8002922F40012C0F80029FA
:10340000C978032901D002290CD1D0F8001941F064
:103410008051C0F8001905E0D0F8001B41F0805140
:10342000C0F8001B002070470A784B78D1B200EB3F
:103430004110012B12D0D0F8001B002906DB2AB165
:10344000D0F8001B21F08041C0F8001BD0F8001B11
:1034500041F40011C0F8001B00207047D0F800199B
:10346000002906DB2AB1D0F8001921F08041C0F80C
:103470000019D0F8001941F40011C0F80019EBE769
:10348000F8B50C784F78774DE3B26FF0604600EBFB
:103490004313012F26D0D3F8104B6FF31204C3F857
:1034A000104BD3F8104B2C40C3F8104B4C69002C38
:1034B00074D08D682C44641EB4FBF5F4D3F8105B13
:1034C000A4B206EAC4463543C3F8105BD3F8105BD8
:1034D0008E686643C6F312042543C3F8105B012AC5
:1034E00071D0A6E04F691FB3D3F810796FF31207BC
:1034F000C3F81079D3F810792F40C3F810794F69C9
:103500008D682F447F1EB7FBF5F506EAC545D3F855
:1035100010693543C3F81059D3F810594E69C6F3F2
:1035200012063543C3F81059CD78012D10D01BE099
:10353000D3F810692E40C3F81069D3F8105945F438
:103540000025C3F81059D3F810596FF3120509E09C
:10355000D3F8105925F0C045C3F81059D3F81059C5
:1035600045F00055C3F81059012A18D000EB441358
:10357000D3F8004944F00444C3F80049CC78012C46
:103580002FD04A6962B3D0F83428097801F00F03CC
:10359000012199400A43C0F8342860E036E00A6906
:1035A0001AB100EB4413C3F81429C97801290FD1CB
:1035B000D0F80818C90500EB4411D1F8002903D44C
:1035C00042F0005202E030E042F08052C1F800299F
:1035D00000EB4410D0F8001941F00441C0F8001984
:1035E0003DE0D0F80848E405D3F8004902D444F09F
:1035F000005401E044F08054C3F8004900928A8AE4
:1036000093B20A78C96800F03FF928E0D3F8104B6C
:103610008D68C5F312052C43C3F8104BD3F8104B3B
:1036200044F40024C3F8104B59E7CA680AB1C3F840
:10363000142BC97801290CD1D0F80808C005D3F89B
:10364000000B02D440F0005001E040F08050C3F87D
:10365000000BD3F8000B40F00440C3F8000B00202F
:10366000F8BD0000FFFF07E0816841F001018160C3
:1036700000207047002110220261054A491C914236
:1036800001D9032070470369DB06F7D40020704797
:10369000400D03000022202343EA81110161054906
:1036A000521C8A4201D90320704703699B06F7D454
:1036B00000207047400D0300D0F8080810F0060005
:1036C00004D0022803D0062801D00F207047022022
:1036D0007047406900F001007047D0F81818D0F822
:1036E0001C08084080B27047D0F81818D0F81C08A1
:1036F0000840000C704710B5D0F81038D0F83428C6
:1037000001F00F0400EB4110E24002F00102D0F89A
:10371000080943EAC212104010BD00EB4111D1F874
:10372000081BD0F8140808407047416980690840B8
:103730007047D21C10B59308002200F5805002E0BB
:103740000468521C10C19A42FAD3084610BD10B545
:10375000C26822F0C042C260012902D029B1012012
:1037600010BDC16841F0005102E0C16841F08041E4
:10377000C1603220FDF748FA002010BDD0F80028C3
:1037800022F4FE62C0F80028D0F800284FF4FE634F
:1037900003EA01110A43C0F8002800207047000026
:1037A000022A3ED1264A274B0A449A4201D20F21CF
:1037B00038E0254A254B0A449A4201D20E2131E0D5
:1037C000234A244B0A449A4201D20D212AE0224A7C
:1037D000224B0A449A4201D20C2123E0204A214B79
:1037E0000A449A4201D20B211CE01F4A1F4B0A4493
:1037F0009A4201D20A2115E01D4A1E4B0A449A4200
:103800000FD31D4A1D4B0A449A4201D2082109E0F8
:103810001B4A11441B4A914201D2072102E00621B2
:1038200000E00921C26822F47052C260C2684FF4FD
:10383000705303EA81210A43C260002070470000F0
:10384000405327FF00350C00401E1BFF40420F0075
:1038500000DC0BFF804F1200808CF9FE20D6130095
:1038600060B6E5FE60E3160000D3CEFE40771B0095
:10387000C05BB3FEC091210000CA91FE20753800E4
:10388000E05459FEE09C410010B5029C64B9DB1C79
:103890009C0800EB0230002300F5805002E004C9D0
:1038A00002605B1CA342FAD3002010BDFEE70000BB
:1038B0000FB4084B10B504A902AA039800F02CF825
:1038C000044602A9002000F0D1F8204610BC5DF8A3
:1038D00014FB00006D3A00080907090E002804DBFC
:1038E00000F1E02080F80014704700F00F0000F1B4
:1038F000E02080F8141D704702E008C8121F08C1BC
:10390000002AFAD170477047002001E001C1121F60
:10391000002AFBD1704700002DE9FF4F89B09B467C
:103920000446002506E025280BD05A460B999047FF
:10393000641C6D1C20780028F5D10DB02846BDE828
:10394000F08F0027B8460122474900E0074314F8EA
:10395000013F203B02FA03F00842F7D120782E28DD
:1039600019D114F8010F47F004072A280ED06FF080
:103970002F022078A0F1300109290CD808EB88012A
:1039800002EB410100EB0108641CF2E70A98641C99
:1039900050F8048B0A9020780028CED0642808D0F4
:1039A000692806D075281ED05A460B9990476D1C81
:1039B00058E00A994FF00A0901C90A91002802DA71
:1039C00040422D2102E0390504D52B218DF820102D
:1039D000012103E0F90704D02021F7E78A4608AE69
:1039E0000DE00021FAE70A994FF00A0901C90A918E
:1039F000F7E74946FCF7D8FC303106F8011D0028EE
:103A0000F7D1ADEB060000F12009780701D44FF0A3
:103A10000108C84502DDA8EB090000E0002080464F
:103A2000002706E008A85A46C05D0B9990476D1C18
:103A30007F1C5745F6DB04E030205A460B9990472F
:103A40006D1CB8F10001A8F10108F5DC05E016F8DD
:103A5000010B5A460B9990476D1CB9F10001A9F171
:103A60000109F4DC641C65E7092801000A68531C9D
:103A70000B601070704700002DED028B8AB024217E
:103A80006846FCF7E7FBFDF7D5F9FEF7EBFAFEF722
:103A9000E1F9FEF7AFF9FEF7F3F91448FDF736F850
:103AA00032211248FCF7DCFF9FED118B0F48FDF728
:103AB0002DF80A210D48FCF7D3FF0C48FCF7CCFE8B
:103AC000FCF74CFC53EC182BFCF7D6FBFCF753FC33
:103AD000C2B209A16846FFF7EBFE6846FCF7C5FBDA
:103AE00081B26846FCF7F6FDE0E70000880100209F
:103AF0006666666666664A3F4144435F56616C751A
:103B000065203D2025640D0A000000000000000033
:103B10000000000001020304060708093C3B0008FE
:103B20000000002088010000F0040008003C0008AC
:103B300088010020405B0000083900083201821033
:103B40001324F413F924140829251B0835041A5DDD
:103B5000041A89041AD9141A05081704030904124F
:103B600001140202021640830440571D02010203A1
:103B700041031A1A031389061B0883041A7F041AC7
:103B8000AD041AD10441130A0632022A40801C09EE
:103B900002434B1125C03209041B01020B130524FB
:103BA000161001052401100901042402020524064F
:103BB000170107058203081C10090481320A1D073A
:103BC000050102432C070581070938442A40072ACA
:103BD0008107112B0907440A3B04441339221408B6
:103BE00091214C083923E81AD90C1A05041A6704E4
:103BF000C11A21281A15041A2D041A0904000000FC
:040000050800018965
:00000001FF
